:100000000C9442000C946A000C946A000C946A00F0
:100010000C946A000C946A000C946A000C946A00B8
:100020000C946A000C94AD080C94D6080C94FF084C
:100030000C94A3090C9428090C9451090C947A0986
:100040000C9432080C945B080C9484080C946A009D
:100050000C94FD070C94B0050C946A000C946A0093
:100060000C946A000C946A000C946A000C946A0068
:100070000C94D2070C94FE050C946A00EB009102DC
:100080002808DF0A11241FBECFEFD0E1DEBFCDBFAD
:1000900011E0A0E0B1E0E2E0FAE102C005900D92CB
:1000A000AC34B107D9F713E0ACE4B1E001C01D9264
:1000B000A734B107E1F710E0C4E8D0E004C022970C
:1000C000FE010E94EF0CCC37D107C9F70E94F7045C
:1000D0000C94FF0C0C940000EF920F93E12C01E0C4
:1000E00028E040E051EE60E070E085E892E00E9498
:1000F000D00665E872E084E791E00E94DB0167E0EA
:100100008CE491E00F91EF900C94DE03AF92BF92DC
:10011000CF92DF92EF92FF920F931F93CF9384E7DA
:1001200091E00E94010284E791E00E9400020E9497
:100130001501882309F445C084E791E00E9400027C
:100140000E9412018039E9F584E791E00E940002E3
:100150006AE571E00E94440160E070E088E591E0AA
:100160000E949E01C82F4AE050E0682F70E085E8A9
:1001700092E00E94F00B6C2F70E080E090E01F9204
:100180001F921F9224EB2F93A12CB12C6501E12C1F
:10019000F12C8701EA9420E030E0A9010E940A0CCA
:1001A0000F900F900F900F908CE491E0CF911F91E2
:1001B0000F91FF90EF90DF90CF90BF90AF900C9495
:1001C0001304CF911F910F91FF90EF90DF90CF908C
:1001D000BF90AF90089584E791E00E94C9018BE63B
:1001E00091E00E94110188E591E00E9436018FE4C0
:1001F00091E00E94B9018CE491E00C9441038BE002
:100200000895CF93DC011696CC911697ED91FC9151
:100210000280F381E02D0995C150C81B8C2FCF912E
:1002200008950895FC0182810895FC018781089555
:10023000FC01DB01828112968C93129787811796BD
:100240008C931797858115968C93159780851896B2
:100250008C931897868116968C93169783811396A4
:100260008C931397848114968C930895FC018EE0EF
:1002700091E09183808313861486158616861786EF
:10028000108A118A128A08950F931F93CF93DF93D8
:100290008C01EB01DC018D919C9199838883C801CD
:1002A0000E941801D801ED91FC91808190E0A0E0BE
:1002B000B0E0B82FAA2799278827418150E060E055
:1002C00070E0BA0155274427840F951FA61FB71F5A
:1002D0002381820F911DA11DB11D328120E0820F6B
:1002E000931FA11DB11D89879A87AB87BC87848125
:1002F00090E0A0E0B0E0B82FAA2799278827458191
:1003000050E060E070E0BA0155274427840F951F44
:10031000A61FB71F2781820F911DA11DB11D368118
:1003200020E0820F931FA11DB11D8D879E87AF878F
:10033000B88BDF91CF911F910F9108950F931F9369
:10034000CF93DF93EB01DC0112960D911C91139773
:10035000ED91FC910280F381E02D0995F801EC0FFD
:10036000FD1FE80FF11D8081DF91CF911F910F914B
:1003700008950895FC011782108615821282138257
:10038000148216820895FC011286118614860C943C
:10039000BA01FC0112861186148615861782108612
:1003A00015820E9691838083E458FF4F85E892E092
:1003B00091838083089584589F4FFC0171836083EB
:1003C000089584589F4FDC018D919C91DC01ED9143
:1003D000FC910480F581E02D099521E0892B09F439
:1003E00020E0822F089584589F4FDC018D919C91CD
:1003F000DC01ED91FC910084F185E02D09950895D3
:100400000895DF92EF92FF920F931F93CF93DF93A4
:10041000EC018F81811179C08885811176C002E05D
:10042000F02E11E083E0E82E94E0D92E00E2CE0118
:100430000E94E101882309F46CC0CE010E94F301FF
:100440008B879A85992399F08E3711F483E039C010
:100450008D3769F4CE010E94E101882331F0CE018D
:100460000E94F30180278B8702C01987E0CF89851E
:10047000882321F08B8580278B8719864A85433016
:1004800020F08C859B85890F8C87413059F028F0AE
:10049000423061F0433091F40DC08B858E3739F6D0
:1004A0001A87C5CF8B858B83FA86C1CF8B858C83CA
:1004B000EA86BDCF8B858A83DA86B9CF4F3618F0AE
:1004C00082E0888726C0242F30E08C8190E003965C
:1004D0002817390779F48C858F3F31F48B858D830C
:1004E00081E08F83188602C081E0888744504E8364
:1004F0001A860FC08B85E881F981E20FF31F3497CC
:1005000080838A858F5F8A8792CFCE010E94C30144
:1005100086CFDF91CF911F910F91FF90EF90DF90E9
:1005200008951092F2011092F3011092F4011092CA
:10053000F5018FEF9FEFA0E0B0E08093F60190937C
:10054000F701A093F801B093F90108958091FB01A0
:1005500087FF05C010928500109284001AC0209178
:10056000FB01332727FD30958091FA0190E0281791
:1005700039077CF48091FB01992787FD9095FC0158
:10058000EE0FFF1FE80FF91FE450FE4F808186FD3C
:1005900036C08091FB018F5F8093FB012091FB01AE
:1005A000332727FD30958091FA0190E0281739070D
:1005B000C4F58091FB018C30E4F133C08091FB01E4
:1005C000992787FD9095FC01EE0FFF1FE80FF91F9B
:1005D000E450FE4F808161E08F730C94C90480E485
:1005E0009CE905C0809184009091850004969093C9
:1005F0008900809388008FEF8093FB01089580919C
:10060000FB01992787FD9095FC01EE0FFF1FE80F76
:10061000F91FE450FE4F808160E08F730E94C9048F
:10062000B8CF809184009091850084349C49B8F2C1
:10063000D9CF80918400909185002091FB013327D0
:1006400027FD3095F901EE0FFF1FE20FF31FE45075
:10065000FE4F21813281820F931F909389008093F6
:1006600088008091FB01992787FD9095FC01EE0F92
:10067000FF1FE80FF91FE450FE4F808186FD9ECFDB
:1006800008952091FA012C30A0F4FC012083822FE0
:100690008F5F8093FA01822F90E0FC01EE0FFF1F25
:1006A000E80FF91FE450FE4F88EB9BE092838183B3
:1006B00008952FEFFC0120830895DF92EF92FF92BF
:1006C0000F931F93CF93DF93EC01D62E7A0189010C
:1006D00088818C3008F065C061E08D2D0E949B04FC
:1006E0008881A82FB0E0FD01EE0FFF1FEA0FFB1F6E
:1006F000E450FE4F2D2D2F739081907C922B908390
:1007000060E272E06E197F09769567957695679538
:10071000698340E659E0401B510B56954795569525
:1007200047954A836CE00E94980C9CE0899FB00139
:10073000112420E030E0A901460F571FFA01EE0F07
:10074000FF1FE40FF51FE450FE4F908196FD1DC082
:100750002F5F3F4F2C30310571F725C060E083E0FB
:1007600093E00E94C90A62E083E093E00E94CC0912
:100770001092850010928400B19A21E046EA52E07E
:1007800061E083E093E00E949F0A888190E0FC0191
:10079000EE0FFF1FE80FF91FE450FE4F80818064C9
:1007A0008083888103C08111F0CFD8CFDF91CF91B2
:1007B0001F910F91FF90EF90DF90089520E639E0B0
:1007C00040E252E00C945D03FC0180818C3050F5D6
:1007D000918128E830E0291B3109220F331F220FB5
:1007E000331F6217730768F0928128E532E0291BF6
:1007F0003109220F331F220F331F6217730708F4CA
:100800009B01225031094FB7F89490E0FC01EE0FA4
:10081000FF1FE80FF91FE450FE4F220F331F3283F2
:1008200021834FBF0895AF92BF92CF92DF92EF9294
:10083000FF920F931F93CF93DF93EC01603282E01E
:100840007807B8F5898128E830E0281B3109220FA4
:10085000331F220F331F5901CC24B7FCC094DC2C6A
:10086000CB01653B710510F084EB90E0BC0180E0AA
:1008700090E02A8148E552E0421B5109440F551F80
:10088000440F551F8A01222717FD2095322F3F93D1
:100890002F931F930F9314EBE12EF12C00E010E047
:1008A00020E030E0A9010E940A0C0F900F900F90F9
:1008B0000F90CE01DF91CF911F910F91FF90EF909C
:1008C000DF90CF90BF90AF900C94E4038091210211
:1008D00090912202A0912302B09124023091200233
:1008E000232F2D5F2D3720F40196A11DB11D05C0CA
:1008F000232F2A570296A11DB11D20932002809319
:10090000210290932202A0932302B09324028091AB
:10091000250290912602A0912702B091280201960B
:10092000A11DB11D8093250290932602A09327025A
:10093000B09328020895982F977021E030E0092E97
:1009400001C0220F0A94EAF786958695869581F074
:10095000813089F0823091F08330D1F412C08081EF
:100960002095822302C08081822B80839FBF0895BF
:10097000EAE2F0E008C0E7E2F0E005C0E4E2F0E01F
:1009800002C0E1E2F0E09FB7F894662341F3EBCFB9
:100990000895982F977021E030E0092E01C0220FB2
:1009A0000A94EAF786958695869581F0813089F0DC
:1009B000823091F08330D1F412C08081209582235F
:1009C00002C08081822B80839FBF0895EBE2F0E01C
:1009D00008C0E8E2F0E005C0E5E2F0E002C0E2E2D3
:1009E000F0E09FB7F894662341F3EBCF08950E949F
:1009F000600C0E946C000E948600FDCFFC012089E3
:100A00003189C9010895DC0150962D913C9151978F
:100A1000232B49F05496ED91FC915597E80FF91F5F
:100A2000268930E002C02FEF3FEFC9010895FC0195
:100A3000118A108A158A148A138A128A0895FC0171
:100A400024813581C9010895FC0124813581C901C2
:100A50000895FC0180899189892BD1F03FB7F894E2
:100A6000808991890197918B808B84899589DF0199
:100A7000A80FB91F56962C910196803291051CF44F
:100A8000958B848B02C0158A148A3FBF30E002C068
:100A90002FEF3FEFC9010895EF92FF921F93CF937D
:100AA000DF931F92CDB7DEB77C01D701DA968D9127
:100AB0009C91DB974097C8F71FB7F894D696ED91B5
:100AC000FC91D7970190F081E02DC701C69669830C
:100AD000099569814097C8F4F70182AD93AD0196FD
:100AE00093AF82AF84AD95ADE80FF91FE05CFF4F87
:100AF00060830196D701DD969C938E93DC97409797
:100B000024F0DD961C921E92DC97F701EA5AFF4F03
:100B10000190F081E02D8081806280831FBF81E0A1
:100B200090E00F90DF91CF911F91FF90EF9008958B
:100B3000665F7F4F680F791FCB010895665F7F4F17
:100B4000680F791FCB010895665F7F4F680F791F8B
:100B5000CB010895665F7F4F680F791FCB01089521
:100B60001F920F920FB60F9211242F938F939F9382
:100B7000AF93BF93EF93FF938091BF029091C00218
:100B8000892B21F1E091DF02F091E0028091BF0218
:100B90009091C00201979093C0028093BF02809110
:100BA000C3029091C402DC01A554BD4F1A962C914A
:100BB0000196803191052CF49093C4028093C30276
:100BC00004C01092C4021092C30220838091BF021D
:100BD0009091C002892B31F4E091DB02F091DC02AC
:100BE00088E98083FF91EF91BF91AF919F918F91A1
:100BF0002F910F900FBE0F901F9018951F920F927C
:100C00000FB60F9211242F938F939F93AF93BF939F
:100C1000EF93FF938091630290916402892B21F1FD
:100C2000E0918302F09184028091630290916402CA
:100C30000197909364028093630280916702909180
:100C40006802DC01A15ABD4F1A962C9101968031A1
:100C500091052CF4909368028093670204C010926F
:100C6000680210926702208380916302909164026F
:100C7000892B31F4E0917F02F091800288E9808332
:100C8000FF91EF91BF91AF919F918F912F910F9015
:100C90000FBE0F901F901895FC01262F1382128211
:100CA00048EE53E060E070E04483558366837783C9
:100CB00086E191E09183808386E291E09587848745
:100CC00080E290E097878687118A108A158A148AB5
:100CD000138A128A80E391E097AB86AB80E190E0C3
:100CE00091AF80AF13AE12AE17AE16AE15AE14AE06
:100CF000222321F0213009F052C028C0DF01A05B7F
:100D0000BF4F85EC90E08D939C93DF01AE5ABF4FAF
:100D100084EC90E08D939C93DF01AC5ABF4F80EC44
:100D200090E08D939C93DF01AA5ABF4F81EC90E035
:100D30008D939C93DF01A85ABF4F82EC90E08D9376
:100D40009C93E65AFF4F86EC90E027C0DF01A05B42
:100D5000BF4F8DEC90E08D939C93DF01AE5ABF4F57
:100D60008CEC90E08D939C93DF01AC5ABF4F88ECE4
:100D700090E08D939C93DF01AA5ABF4F89EC90E0DD
:100D80008D939C93DF01A85ABF4F8AEC90E08D931E
:100D90009C93E65AFF4F8EEC90E0918380830895F8
:100DA0003F924F925F926F927F928F929F92AF92FB
:100DB000BF92CF92DF92EF92FF920F931F93CF9348
:100DC000DF93EC014A015B01122F3E2C60E072E1DF
:100DD0008AE790E0A50194010E94A40C69017A01C0
:100DE00084E0C80ED11CE11CF11C83E0F694E7946A
:100DF000D794C7948A95D1F760E074E284EF90E0CD
:100E0000A50194010E94A40C29013A0194E0490E25
:100E1000511C611C711C93E076946794579447941D
:100E20009A95D1F7A30192014427552760E874E809
:100E30008EE190E00E94C60C5901A818B908B7FECF
:100E400003C0B194A194B108A70196014427552786
:100E500060E472E48FE090E00E94C60C2819390922
:100E600037FF03C0319521953109FE01EC5AFF4F40
:100E70000190F081E02DA216B3063CF482E080835D
:100E8000620181E0C81AD10804C0108291E0C91A39
:100E9000D1081630C1F018F4153099F405C0173098
:100EA00029F0193071F404C080E00EC084E00CC059
:100EB000FE01EA5AFF4F0190F081E02D80818460AD
:100EC000808386E001C082E0023009F4886091E00E
:100ED000391621F092E0391204C002C0806301C0CB
:100EE0008062FE01E85AFF4F0190F081E02D80837F
:100EF000FE01E05BFF4F0190F081E02DD082FE010A
:100F0000EE5AFF4F0190F081E02DC082CA5ADF4FA8
:100F1000E881F98188E98083DF91CF911F910F915A
:100F2000FF90EF90DF90CF90BF90AF909F908F9009
:100F30007F906F905F904F903F9008950F931F9315
:100F4000CF93DF931F92CDB7DEB78C01DC01ED911B
:100F5000FC910190F081E02D69830995698180976A
:100F6000D0F4F801848195810196958384838681EC
:100F70009781E80FF91F628701968032910534F45A
:100F8000D80117969C938E93169703C0F801178289
:100F9000168281E001C080E00F90DF91CF911F9118
:100FA0000F9108951F920F920FB60F9211242F9355
:100FB0003F934F935F936F937F938F939F93AF93E1
:100FC000BF93EF93FF93E0918302F09184026081DD
:100FD00085E392E00E949E07FF91EF91BF91AF9150
:100FE0009F918F917F916F915F914F913F912F9141
:100FF0000F900FBE0F901F9018951F920F920FB673
:101000000F9211242F933F934F935F936F937F938E
:101010008F939F93AF93BF93EF93FF93E091DF0282
:10102000F091E002608181E992E00E949E07FF91C9
:10103000EF91BF91AF919F918F917F916F915F9150
:101040004F913F912F910F900FBE0F901F901895C9
:1010500060E085E892E00E944C0661E089E292E05F
:101060000C944C061F920F920FB60F9211242F93DF
:101070003F934F935F936F937F938F939F93AF9320
:10108000BF93EF93FF93E0913F03F09140033097BC
:1010900009F00995FF91EF91BF91AF919F918F91C9
:1010A0007F916F915F914F913F912F910F900FBE64
:1010B0000F901F9018951F920F920FB60F92112448
:1010C0002F933F934F935F936F937F938F939F9350
:1010D000AF93BF93EF93FF93E0914103F0914203ED
:1010E000309709F00995FF91EF91BF91AF919F91D2
:1010F0008F917F916F915F914F913F912F910F90C1
:101100000FBE0F901F9018951F920F920FB60F925F
:1011100011242F933F934F935F936F937F938F93FC
:101120009F93AF93BF93EF93FF93E0913D03F091B3
:101130003E03309709F00995FF91EF91BF91AF9170
:101140009F918F917F916F915F914F913F912F91DF
:101150000F900FBE0F901F9018951F920F920FB611
:101160000F9211242F933F934F935F936F937F932D
:101170008F939F93AF93BF93EF93FF93E091FB0205
:10118000F091FC02309709F00995FF91EF91BF9122
:10119000AF919F918F917F916F915F914F913F910F
:1011A0002F910F900FBE0F901F9018951F920F92C6
:1011B0000FB60F9211242F933F934F935F936F932A
:1011C0007F938F939F93AF93BF93EF93FF93E091A0
:1011D000FD02F091FE02309709F00995FF91EF9121
:1011E000BF91AF919F918F917F916F915F914F913F
:1011F0003F912F910F900FBE0F901F9018951F9247
:101200000F920FB60F9211242F933F934F935F933A
:101210006F937F938F939F93AF93BF93EF93FF93BE
:10122000E091F902F091FA02309709F00995FF91E7
:10123000EF91BF91AF919F918F917F916F915F914E
:101240004F913F912F910F900FBE0F901F901895C7
:101250001F920F920FB60F9211242F933F934F932B
:101260005F936F937F938F939F93AF93BF93EF930E
:10127000FF93E0911D03F0911E03309709F009954B
:10128000FF91EF91BF91AF919F918F917F916F915E
:101290005F914F913F912F910F900FBE0F901F9034
:1012A00018951F920F920FB60F9211242F933F9310
:1012B0004F935F936F937F938F939F93AF93BF935E
:1012C000EF93FF93E0911F03F0912003309709F013
:1012D0000995FF91EF91BF91AF919F918F917F9170
:1012E0006F915F914F913F912F910F900FBE0F9093
:1012F0001F9018951F920F920FB60F9211242F93E3
:101300003F934F935F936F937F938F939F93AF938D
:10131000BF93EF93FF93E0911B03F0911C03309771
:1013200009F00995FF91EF91BF91AF919F918F9136
:101330007F916F915F914F913F912F910F900FBED1
:101340000F901F9018951F920F920FB60F921124B5
:101350002F933F934F935F936F937F938F939F93BD
:10136000AF93BF93EF93FF93E0912303F091240396
:10137000309709F00995FF91EF91BF91AF919F913F
:101380008F917F916F915F914F913F912F910F902E
:101390000FBE0F901F901895DC012C9161502230E8
:1013A00039F4673068F4E62FF0E0EA5CFE4F06C0DF
:1013B000693030F4E62FF0E0E35CFE4F208101C09D
:1013C00020E0DC011A96ED91FC911B978081887FCB
:1013D000822B80830895CF93DF93EC016883613083
:1013E00011F120F0623009F06CC048C01B821A82F3
:1013F00086E490E09D838C838EE690E09F838E83CD
:1014000084E490E09987888785E490E09B878A87C9
:101410001D861C8687E490E09F878E87198A188A2C
:1014200088E490E022C08FE690E09F838E8385E879
:1014300090E09B838A8384E890E09D838C8380E89E
:1014400090E09987888781E890E09B878A8789E880
:1014500090E09D878C8788E890E09F878E878BE857
:1014600090E0998B888B8AE890E09B8B8A8B1D8A11
:101470001C8A1F8A1E8A82E0898323C01B821A82EB
:1014800082EB90E09D838C8380E790E09F838E8346
:1014900080EB90E09987888781EB90E09B878A8733
:1014A0001D861C8683EB90E09F878E87198A188A99
:1014B00084EB90E09B8B8A8B1D8A1C8A1F8A1E8A74
:1014C000698360E0CE010E94CC09EA81FB813097FC
:1014D00009F01082EC81FD811082198E188E1B8E0E
:1014E0001A8E1D8E1C8E1F8E1E8E19A218A2DF91C1
:1014F000CF91089551E0411101C050E06530F0F402
:10150000E62FF0E0EA5BFE4F408147FD17C0DC01AB
:101510001696ED91FC911797808121E030E0042E22
:1015200001C0220F0A94EAF720952823852F042E64
:1015300001C0880F0A94EAF7282B208308956230AF
:1015400099F028F4662341F06130C9F409C0633092
:1015500079F06430A1F410C0FC01518F408F0FC0AE
:10156000FC01538F428F0BC0FC01558F448F07C085
:10157000FC01578F468F03C0FC0151A340A3452BAC
:1015800011F440E003C0222319F041E00C947A0AE0
:101590000895DC011896ED91FC9119973081262F62
:1015A00023703C7F232B20831A96ED91FC911B978F
:1015B00080816C70660F877E682B6083089560E081
:1015C00085E293E00E94EB0961E083E093E00E94F2
:1015D000EB0962E081EE92E00C94EB09CF92DF928E
:1015E000EF92FF920F931F93CF93DF936C01EB0168
:1015F0007A01E60EF71E00E010E00BC06991D601FB
:10160000ED91FC910190F081E02DC6010995080F44
:10161000191FCE15DF0591F7C801DF91CF911F91FA
:101620000F91FF90EF90DF90CF90089561157105B5
:1016300081F0DB010D900020E9F7AD014150510927
:10164000461B570BDC01ED91FC910280F381E02DEC
:10165000099480E090E00895DC01ED91FC91019007
:10166000F081E02D09940F931F93CF93DF93EC014A
:101670006DE00E942C0B8C016AE0CE010E942C0BC5
:101680009C01200F311FC901DF91CF911F910F9154
:1016900008954F925F926F927F929F92AF92BF9206
:1016A000CF92DF92EF92FF920F931F93CF93DF932E
:1016B000CDB7DEB7A1970FB6F894DEBF0FBECDBF92
:1016C0005C016A017B01922E19A281E0821710F061
:1016D0008AE0982E8E010F5D1F4F492C512C612CF2
:1016E000712CC701B601A30192010E94A40C8C2D9C
:1016F000929E80191124015011098A3014F4805DE2
:1017000001C0895CF801808369017A01C114D104A8
:10171000E104F10431F7B801C5010E94160BA1964E
:101720000FB6F894DEBF0FBECDBFDF91CF911F91F2
:101730000F91FF90EF90DF90CF90BF90AF909F9070
:101740007F906F905F904F900895CF92DF92EF92CD
:10175000FF920F931F93CF93DF93EC016A017B01FC
:101760002115310579F4E881F9810190F081E02DAE
:10177000642FDF91CF911F910F91FF90EF90DF9039
:10178000CF9009942A30310519F477FD0EC02AE074
:10179000B701A601CE01DF91CF911F910F91FF906C
:1017A000EF90DF90CF900C94490B6DE20E942C0BD0
:1017B0008C0144275527BA014C195D096E097F0930
:1017C0002AE0CE010E94490B080F191FC801DF91C2
:1017D000CF911F910F91FF90EF90DF90CF900895E0
:1017E0000F931F93CF93DF93EC019A01AB01662710
:1017F00057FD6095762F0E94A50B8C01CE010E94AB
:10180000330B9801280F391FC901DF91CF911F9128
:101810000F9108954F925F926F927F92AF92BF9215
:10182000CF92DF92EF92FF920F931F93CF93DF93AC
:1018300000D000D0CDB7DEB72B013C0129833A831D
:101840004B835C836D897E898F89988D421A530AF8
:10185000640A750A6A197B098C099D096F5F7F4FBD
:101860008F4F9F4FA30192010E94880C29813A81DA
:101870004B815C81E21AF30A040B150B3FEFE31A6C
:10188000F30A0F4F1F4FA80197010E94C60C2A0DA3
:101890003B1D4C1D5D1DB901CA010F900F900F90AB
:1018A0000F90DF91CF911F910F91FF90EF90DF90FC
:1018B000CF90BF90AF907F906F905F904F900895C2
:1018C00063E085E293E00E94C90A21E046E654E025
:1018D00060E085E293E00E949F0A64E085E293E085
:1018E0000E94CC0961E083E093E00E94C90A64E0B1
:1018F00083E093E00E94CC0961E081EE92E00E94D7
:10190000C90A64E081EE92E00E94CC0978940895BF
:10191000DB018F939F930E94E20CBF91AF91A29F36
:10192000800D911DA39F900DB29F900D11240895DD
:10193000991B79E004C0991F961708F0961B881F21
:101940007A95C9F780950895A1E21A2EAA1BBB1BB0
:10195000FD010DC0AA1FBB1FEE1FFF1FA217B3077B
:10196000E407F50720F0A21BB30BE40BF50B661F91
:10197000771F881F991F1A9469F760957095809555
:1019800090959B01AC01BD01CF010895052E97FBF9
:1019900016F4009407D057FD0DD00E94A40C07FC4C
:1019A00009D07EF490958095709561957F4F8F4F0B
:1019B0009F4F089550954095309521953F4F4F4F3B
:1019C0005F4F08950E94F30CA59F900DB49F900D5A
:1019D000A49F800D911D11240895EE0FFF1F059007
:1019E000F491E02D0994A29FB001B39FC001A39F81
:1019F00001D0B29F700D811D1124911D0895F8949E
:021A0000FFCF16
:101A02000000470320000100000000000000010167
:101A1200FF00000000004C05EE0AFE040305290544
:101A22001705000000002405A405AA050000000017
:101A32001F0598059E050102030405060701020021
:0C1A420003000405060700010203050074
:00000001FF
