:100000000C9442000C946A000C946A000C946A00F0
:100010000C946A000C946A000C946A000C946A00B8
:100020000C946A000C94760B0C949F0B0C94C80BE8
:100030000C946C0C0C94F10B0C941A0C0C94430C57
:100040000C94FB0A0C94240B0C944D0B0C946A003A
:100050000C94A4090C9457070C946A000C946A0041
:100060000C946A000C946A000C946A000C946A0068
:100070000C9479090C94A5070C946A00A702E90571
:10008000CF09A80D11241FBECFEFD0E1DEBFCDBF39
:1000900012E0A0E0B1E0EAEFFBE102C005900D92B2
:1000A000AA32B107D9F714E0AAE2B2E001C01D926A
:1000B000AE31B107E1F710E0C4E8D0E004C0229708
:1000C000FE010E94F70DCC37D107C9F70E949E06AA
:1000D0000C94FB0D0C9400000F931F93CF93DF93B0
:1000E000CDB7DEB728970FB6F894DEBF0FBECDBFF1
:1000F00009831A832B833C834D835E836F837887C8
:10010000FC011082118212821382148215821682DF
:10011000178228E0FE013196DC0101900D922A95AC
:10012000E1F7FC011086118628960FB6F894DEBF21
:100130000FBECDBFDF91CF911F910F910895FC01AC
:1001400060870895FC0180850895FC018085918574
:10015000891719F0818781E0089580E00895CF9391
:10016000DF93CDB7DEB728970FB6F894DEBF0FBE8A
:10017000CDBF28E0FC01DE01119601900D922A9579
:10018000E1F729813A814B815C816D817E818F818C
:10019000988528960FB6F894DEBF0FBECDBFDF91CD
:1001A000CF9108950F93CF93DF93CDB7DEB76C97C0
:1001B0000FB6F894DEBF0FBECDBF2D8B3E8B4F8B9D
:1001C000588F698F7A8F8B8F9C8FCE0101960E94FA
:1001D0002605BE016B5E7F4FCE0101960E94410550
:1001E0000C8BBE016C5E7F4FCE0101960E941F05F5
:1001F00061E0CE0101960E94230560E0CE010196E8
:100200000E941C0561E0CE0101960E944A05BE01D4
:100210006F5F7F4F81E792E00E9479056C960FB681
:10022000F894DEBF0FBECDBFDF91CF910F9108953F
:10023000BF92CF92DF92EF92FF920F931F93CF93D3
:10024000DF93CDB7DEB760970FB6F894DEBF0FBE71
:10025000CDBF85E00E9405069C0197FF02C02D5F7F
:100260003F4F359527953595279530933E0220933E
:100270003D0200E010E05AE0F52EF09EC001F19E34
:10028000900D112460913D02815C9D4F0E949F0062
:100290000F5F1F4F0530110581F7E12CF12C8AE02B
:1002A000D82E98E0C92EDE9C8001DF9C100D112411
:1002B000015C1D4FC8010E94A500882319F1C801E7
:1002C0000E94A200B82EC8010E94AF0029873A8779
:1002D0004B875C876D877E878F87988BFE01399669
:1002E000DE0111968C2D01900D928A95E1F70B2D70
:1002F00029813A814B815C816D817E818F819885D6
:100300000E94D2008FEFE81AF80A85E0E816F1049F
:1003100051F662E370E080E090E060960FB6F894EA
:10032000DEBF0FBECDBFDF91CF911F910F91FF9028
:10033000EF90DF90CF90BF900C947C06CF93DF932B
:100340006AE071E08CE593E00E94360A64E372E0B3
:1003500081E792E00E94790568E873E181E792E025
:100360000E94EE04882309F4A4C081E792E00E9471
:100370005D040E94A403883809F086C081E792E0FA
:100380000E945D046AE272E00E94F6038AE292E053
:100390000E94EE03882309F46AC066E271E08CE5EE
:1003A00093E00E941E0A8AE292E00E94D1034AE092
:1003B00050E0FC0160818CE593E00E94B30A8AE280
:1003C00092E00E94D1034AE050E0FC0161818CE59B
:1003D00093E00E94B30A60E371E08CE593E00E9431
:1003E000360A8AE292E00E94DD03882309F486C07F
:1003F00062E471E08CE593E00E941E0A8AE292E0DA
:100400000E94DD034AE050E0682F8CE593E00E94F3
:10041000BA0A6BE571E08CE593E00E941E0AC0E029
:10042000D0E015C08AE292E00E94E1038C0F9D1F8C
:1004300040E150E0FC0160818CE593E00E94B30A4A
:1004400067EC71E08CE593E00E941E0A21968AE237
:1004500092E00E94DD0390E0C817D9071CF368EC16
:1004600071E08CE593E0DF91CF910C94360A6BE656
:1004700071E08CE593E00E941E0A8AE292E00E94FD
:10048000D80340E150E02BC067E871E08CE593E0D1
:100490000E941E0A81E792E00E945D040E94A4036C
:1004A00040E150E0682F8CE593E0DF91CF910C9410
:1004B000B30A81E792E00E945D040E94A7038823AB
:1004C000A9F065EA71E08CE593E00E941E0A81E7DD
:1004D00092E00E945D040E94AF034AE050E0682F62
:1004E0008CE593E0DF91CF910C94BA0A69EC71E04E
:1004F0008CE593E0DF91CF910C941E0ADF91CF91B0
:100500000895EF920F93E12C01E028E040E051EED6
:1005100060E070E08CE593E00E94770828E040E01E
:1005200051EE60E070E080E093E00E94770860E0C8
:1005300073E081E792E00E941F0468E873E180E0C5
:1005400090E00E947C060F91EF900C949E01CF9258
:10055000DF92EF92FF920F931F93CF93DF93CDB76C
:10056000DEB728970FB6F894DEBF0FBECDBF81E788
:1005700092E00E940D04C12C62EAD62E63E1E62EC1
:10058000F12C0C2DC982DA82EB82FC8283E19CE69D
:10059000A6EEB0E4482F8D839E83AF83B8871A817F
:1005A0002B813C815E816F8178858FE392E00E9490
:1005B0006C00C982DA82EB82FC8287ED9DE6A6EEB2
:1005C000B0E4482F8D839E83AF83B8871A812B8137
:1005D0003C815E816F81788589E492E00E946C00A5
:1005E000C982DA82EB82FC8289E49CE6A6EEB0E462
:1005F000482F8D839E83AF83B8871A812B813C81DE
:100600005E816F81788583E592E00E946C00C982EB
:10061000DA82EB82FC8288E19CE6A6EEB0E4482F09
:100620008D839E83AF83B8871A812B813C815E8145
:100630006F8178858DE592E00E946C00C982DA8234
:10064000EB82FC828FE29CE6A6EEB0E4482F8D831D
:100650009E83AF83B8871A812B813C815E816F8135
:10066000788587E692E00E946C0066E071E084E3A2
:1006700092E00E944D058AE292E028960FB6F89427
:10068000DEBF0FBECDBFDF91CF911F910F91FF90C5
:10069000EF90DF90CF900C94D003FC018681845FB3
:1006A0000895FC0180858E5F0895FC01611104C0EE
:1006B0000480F581E02D0DC0613029F40480F581BE
:1006C000E02D818108950680F781E02DE60FF11D70
:1006D000329780810895FC01611102C082850895DE
:1006E000613011F481850895623011F48085089598
:1006F000633011F487810895643011F4868508957C
:10070000653011F485850895663011F48485089567
:10071000673011F483850895683011F48089089555
:10072000693011F4878508956A3011F4818908953C
:100730006B3011F4828908950480F581E02DE60F75
:10074000F11D3C9780810895FC018281089521E08C
:10075000FC018085811101C020E0822F0895FC01F9
:1007600080850895FC01DB01828112968C9312979B
:10077000878117968C931797858115968C9315977B
:10078000808518968C931897868116968C93169769
:10079000838113968C931397848114968C93089578
:1007A0000895FC01208131812F5F3F4FC9010895D9
:1007B000DC01ED91FC9183810895FC0186818450D8
:1007C0000895FC012681243029F0208131812C5F9D
:1007D0003F4F02C020E030E0C9010895DC01ED91F7
:1007E000FC9181E09381911180E00895FC012081CA
:1007F0003181FB01318320830C94B203FC01178209
:100800001086158212821382148216820895FC01CA
:100810001286118614860C94FE03FC011286118642
:10082000148615861782108615820E969183808312
:10083000E458FF4F8CE593E09183808308958458BA
:100840009F4FFC0171836083089584589F4FDC01A2
:100850008D919C91DC01ED91FC910480F581E02D5E
:10086000099521E0892B09F420E0822F089584580E
:100870009F4FDC018D919C91DC01ED91FC910084F6
:10088000F185E02D0995089584589F4FDC018D91E5
:100890009C91DC01ED91FC910284F385E02D09949B
:1008A00084589F4FFC01A081B181ED91FC9111977B
:1008B0000190F081E02DCD0109940895DF92EF922F
:1008C000FF920F931F93CF93DF93EC018F818111E0
:1008D00079C08885811176C002E0F02E11E083E0B6
:1008E000E82E94E0D92E00E2CE010E942504882350
:1008F00009F46CC0CE010E9437048B879A85992336
:1009000099F08E3711F483E039C08D3769F4CE0148
:100910000E942504882331F0CE010E9437048027ED
:100920008B8702C01987E0CF8985882321F08B85CA
:1009300080278B8719864A85433020F08C859B85DC
:10094000890F8C87413059F028F0423061F04330F4
:1009500091F40DC08B858E3739F61A87C5CF8B85FC
:100960008B83FA86C1CF8B858C83EA86BDCF8B853E
:100970008A83DA86B9CF4F3618F082E0888726C09E
:10098000242F30E08C8190E003962817390779F402
:100990008C858F3F31F48B858D8381E08F83188622
:1009A00002C081E0888744504E831A860FC08B8531
:1009B000E881F981E20FF31F349780838A858F5F86
:1009C0008A8792CFCE010E94070486CFDF91CF9114
:1009D0001F910F91FF90EF90DF900895CF92DF92DB
:1009E000EF92FF920F931F93CF93DF93EC018B0154
:1009F00077FF02C080E017C00E946A066B017C018D
:100A000009C0CE010E945E048F8181110BC08885D0
:100A10008111F0CF0E946A066C197D096017710779
:100A200084F3E8CF81E0DF91CF911F910F91FF9088
:100A3000EF90DF90CF900895FC0163830895FC014F
:100A4000758364830895FC0166830895FC0180E149
:100A5000828381E0838315821482168284EE91E082
:100A600091838083178210861186128613861486DE
:100A7000158616868EEF9FEF908B8787118A128AD4
:100A8000089528E0FB01DC01179601900D922A954C
:100A9000E1F70895FC01628B0895FC0188E08283F0
:100AA00081E083838CEE91E09183808375836483FE
:100AB00017821682108608951F93CF93DF93EC015F
:100AC000162F442379F0862F8D57823020F0613124
:100AD00011F0633139F46DE7CE010E94500460E2F9
:100AE000612701C0612FCE01DF91CF911F910C943E
:100AF0005004DF92EF92FF920F931F93CF93DF93F7
:100B00008C01EB016EE70E945004E881F9810280BC
:100B1000F381E02DCE010995E82EE881F98102806C
:100B2000F381E02DCE010995F82E2E2D30E02E5FB9
:100B30003F4F41E0632FC8010E945C056F2D6E5F3F
:100B400041E0C8010E945C0541E06A81C8010E9441
:100B50005C0541E06B81C8010E945C05DA808B81F5
:100B6000D80EE12CF12C19C0E881F9810190F081B7
:100B7000E02D6E2DCE01099541E0682FC8010E943D
:100B80005C05E881F9810190F081E02D6E2DCE01A8
:100B90000995D80E8FEFE81AF80AE881F9810280EA
:100BA000F381E02DCE010995282F30E0E216F306FF
:100BB000DCF26D2D609541E0C8010E945C05C80122
:100BC000DF91CF911F910F91FF90EF90DF900C94E8
:100BD00044041092EF021092F0021092F10210926F
:100BE000F2028FEF9FEFA0E0B0E08093F3029093CA
:100BF000F402A093F502B093F602089580E4809386
:100C00007C0087E880937A000895CF93DF931F924A
:100C1000CDB7DEB790910801913031F489830E94FD
:100C2000FE0510920801898187702091090140E436
:100C3000249F90011124822B80937C0080917A0064
:100C4000806480937A0080917A0086FDFCCF2091A9
:100C5000780030917900932F80E0FC01E22B9F0116
:100C6000C9010F90DF91CF9108958091F802909182
:100C7000F902A091FA02B091FB023091F702232F02
:100C80002D5F2D3720F40196A11DB11D05C0232F26
:100C90002A570296A11DB11D2093F7028093F802F6
:100CA0009093F902A093FA02B093FB028091FC02A8
:100CB0009091FD02A091FE02B091FF020196A11D4C
:100CC000B11D8093FC029093FD02A093FE02B093AD
:100CD000FF0208950F931F938FB7F8940091F802C5
:100CE0001091F9022091FA023091FB028FBFB801F6
:100CF000C9011F910F9108958F929F92AF92BF9259
:100D0000CF92DF92EF92FF926B017C010E946A0604
:100D10004B015C010E946A06681979098A099B09DE
:100D20006C157D058E059F05A8F3FF90EF90DF9071
:100D3000CF90BF90AF909F908F9008950E94D30A5C
:100D40000E9481020E941801FDCFFC012089318997
:100D5000C9010895DC0150962D913C915197232BA8
:100D600049F05496ED91FC915597E80FF91F2689AB
:100D700030E002C02FEF3FEFC9010895FC01118A56
:100D8000108A158A148A138A128A0895FC01248114
:100D90003581C9010895FC0124813581C901089577
:100DA000FC0180899189892BD1F03FB7F894808923
:100DB00091890197918B808B84899589DF01A80F98
:100DC000B91F56962C910196803291051CF4958B93
:100DD000848B02C0158A148A3FBF30E002C02FEF17
:100DE0003FEFC9010895EF92FF921F93CF93DF93D6
:100DF0001F92CDB7DEB77C01D701DA968D919C9119
:100E0000DB974097C8F71FB7F894D696ED91FC9101
:100E1000D7970190F081E02DC701C69669830995A7
:100E200069814097C8F4F70182AD93AD019693AF05
:100E300082AF84AD95ADE80FF91FE05CFF4F608392
:100E40000196D701DD969C938E93DC97409724F012
:100E5000DD961C921E92DC97F701EA5AFF4F019033
:100E6000F081E02D8081806280831FBF81E090E06F
:100E70000F90DF91CF911F91FF90EF900895665FE3
:100E80007F4F680F791FCB010895665F7F4F680F12
:100E9000791FCB010895665F7F4F680F791FCB01E3
:100EA0000895665F7F4F680F791FCB0108951F92E9
:100EB0000F920FB60F9211242F938F939F93AF939E
:100EC000BF93EF93FF938091960390919703892BA3
:100ED00021F1E091B603F091B703809196039091D0
:100EE00097030197909397038093960380919A03B9
:100EF00090919B03DC01AE56BC4F1A962C91019643
:100F0000803191052CF490939B0380939A0304C045
:100F100010929B0310929A032083809196039091E4
:100F20009703892B31F4E091B203F091B30388E980
:100F30008083FF91EF91BF91AF919F918F912F91FE
:100F40000F900FBE0F901F9018951F920F920FB623
:100F50000F9211242F938F939F93AF93BF93EF938F
:100F6000FF9380913A0390913B03892B21F1E0910B
:100F70005A03F0915B0380913A0390913B030197F0
:100F800090933B0380933A0380913E0390913F03FB
:100F9000DC01AA5CBC4F1A962C9101968031910518
:100FA0002CF490933F0380933E0304C010923F03C0
:100FB00010923E03208380913A0390913B03892B4A
:100FC00031F4E0915603F091570388E98083FF9153
:100FD000EF91BF91AF919F918F912F910F900FBE85
:100FE0000F901F901895FC01262F1382128248EE55
:100FF00053E060E070E0448355836683778384EF39
:1010000091E09183808384E092E09587848780E2F9
:1010100090E097878687118A108A158A148A138A26
:10102000128A8EE092E097AB86AB80E190E091AFC0
:1010300080AF13AE12AE17AE16AE15AE14AE2223AD
:1010400021F0213009F052C028C0DF01A05BBF4F62
:1010500085EC90E08D939C93DF01AE5ABF4F84ECFA
:1010600090E08D939C93DF01AC5ABF4F80EC90E0F1
:101070008D939C93DF01AA5ABF4F81EC90E08D9332
:101080009C93DF01A85ABF4F82EC90E08D939C9314
:10109000E65AFF4F86EC90E027C0DF01A05BBF4F10
:1010A0008DEC90E08D939C93DF01AE5ABF4F8CEC9A
:1010B00090E08D939C93DF01AC5ABF4F88EC90E099
:1010C0008D939C93DF01AA5ABF4F89EC90E08D93DA
:1010D0009C93DF01A85ABF4F8AEC90E08D939C93BC
:1010E000E65AFF4F8EEC90E09183808308953F9203
:1010F0004F925F926F927F928F929F92AF92BF9228
:10110000CF92DF92EF92FF920F931F93CF93DF93D3
:10111000EC014A015B01122F3E2C60E072E18AE78C
:1011200090E0A50194010E94B70D69017A0184E065
:10113000C80ED11CE11CF11C83E0F694E794D7940F
:10114000C7948A95D1F760E074E284EF90E0A5013E
:1011500094010E94B70D29013A0194E0490E511CF7
:10116000611C711C93E076946794579447949A9508
:10117000D1F7A30192014427552760E874E88EE176
:1011800090E00E94D90D5901A818B908B7FE03C014
:10119000B194A194B108A70196014427552760E4B2
:1011A00072E48FE090E00E94D90D2819390937FFC9
:1011B00003C0319521953109FE01EC5AFF4F019092
:1011C000F081E02DA216B3063CF482E08083620138
:1011D00081E0C81AD10804C0108291E0C91AD10870
:1011E0001630C1F018F4153099F405C0173029F005
:1011F000193071F404C080E00EC084E00CC0FE0120
:10120000EA5AFF4F0190F081E02D80818460808355
:1012100086E001C082E0023009F4886091E039166E
:1012200021F092E0391204C002C0806301C08062E4
:10123000FE01E85AFF4F0190F081E02D8083FE010E
:10124000E05BFF4F0190F081E02DD082FE01EE5A6D
:10125000FF4F0190F081E02DC082CA5ADF4FE88134
:10126000F98188E98083DF91CF911F910F91FF90E1
:10127000EF90DF90CF90BF90AF909F908F907F9036
:101280006F905F904F903F9008950F931F93CF936F
:10129000DF931F92CDB7DEB78C01DC01ED91FC919D
:1012A0000190F081E02D6983099569818097D0F4E0
:1012B000F801848195810196958384838681978145
:1012C000E80FF91F628701968032910534F4D80146
:1012D00017969C938E93169703C0F8011782168277
:1012E00081E001C080E00F90DF91CF911F910F91BD
:1012F00008951F920F920FB60F9211242F933F93D0
:101300004F935F936F937F938F939F93AF93BF930D
:10131000EF93FF93E0915A03F0915B0360818CE0BF
:1013200093E00E944509FF91EF91BF91AF919F918A
:101330008F917F916F915F914F913F912F910F907E
:101340000FBE0F901F9018951F920F920FB60F921D
:1013500011242F933F934F935F936F937F938F93BA
:101360009F93AF93BF93EF93FF93E091B603F091F8
:10137000B703608188E693E00E944509FF91EF91F1
:10138000BF91AF919F918F917F916F915F914F919D
:101390003F912F910F900FBE0F901F90189560E016
:1013A0008CE593E00E94F30761E080E093E00C9409
:1013B000F307CF92DF92EF92FF920F931F93CF9399
:1013C000DF936C01EB017A01E60EF71E00E010E0FE
:1013D0000BC06991D601ED91FC910190F081E02D57
:1013E000C6010995080F191FCE15DF0591F7C80131
:1013F000DF91CF911F910F91FF90EF90DF90CF90F1
:1014000008956115710581F0DB010D900020E9F769
:10141000AD0141505109461B570BDC01ED91FC9188
:101420000280F381E02D099480E090E00895DC01D2
:10143000ED91FC910190F081E02D09940C94010A4A
:101440000F931F93CF93DF93EC016DE00E94170A77
:101450008C016AE0CE010E94170A9C01200F311F07
:10146000C901DF91CF911F910F9108950F931F93A1
:10147000CF93DF93EC010E94010A8C01CE010E9400
:10148000200A9801280F391FC901DF91CF911F91C0
:101490000F9108954F925F926F927F929F92AF92B9
:1014A000BF92CF92DF92EF92FF920F931F93CF9351
:1014B000DF93CDB7DEB7A1970FB6F894DEBF0FBEAE
:1014C000CDBF5C016A017B01922E19A281E08217D7
:1014D00010F08AE0982E8E010F5D1F4F492C512C81
:1014E000612C712CC701B601A30192010E94B70DB6
:1014F0008C2D929E80191124015011098A3014F408
:10150000805D01C0895CF801808369017A01C114A2
:10151000D104E104F10431F7B801C5010E94010AC8
:10152000A1960FB6F894DEBF0FBECDBFDF91CF916D
:101530001F910F91FF90EF90DF90CF90BF90AF90F1
:101540009F907F906F905F904F9008952115310587
:1015500041F4DC01ED91FC910190F081E02D642FCC
:1015600009940C944A0A9A01462F50E060E070E01A
:101570000C94A60A0F931F93CF93DF93EC019A016B
:10158000462F50E060E070E00E94A60A8C01CE0178
:101590000E94200A9801280F391FC901DF91CF91BD
:1015A0001F910F91089563E08CEF93E00E94920DDC
:1015B00021E045E356E060E08CEF93E00E94680D87
:1015C00064E08CEF93E00E94950C61E08AED93E07B
:1015D0000E94920D64E08AED93E00E94950C61E018
:1015E00088EB93E00E94920D64E088EB93E00E9408
:1015F000950C789408951F920F920FB60F921124B4
:101600002F933F934F935F936F937F938F939F930A
:10161000AF93BF93EF93FF93E0911604F0911704FB
:10162000309709F00995FF91EF91BF91AF919F918C
:101630008F917F916F915F914F913F912F910F907B
:101640000FBE0F901F9018951F920F920FB60F921A
:1016500011242F933F934F935F936F937F938F93B7
:101660009F93AF93BF93EF93FF93E0911804F09192
:101670001904309709F00995FF91EF91BF91AF914F
:101680009F918F917F916F915F914F913F912F919A
:101690000F900FBE0F901F9018951F920F920FB6CC
:1016A0000F9211242F933F934F935F936F937F93E8
:1016B0008F939F93AF93BF93EF93FF93E0911404A5
:1016C000F0911504309709F00995FF91EF91BF91C2
:1016D000AF919F918F917F916F915F914F913F91CA
:1016E0002F910F900FBE0F901F9018951F920F9281
:1016F0000FB60F9211242F933F934F935F936F93E5
:101700007F938F939F93AF93BF93EF93FF93E0915A
:10171000D203F091D303309709F00995FF91EF912F
:10172000BF91AF919F918F917F916F915F914F91F9
:101730003F912F910F900FBE0F901F9018951F9201
:101740000F920FB60F9211242F933F934F935F93F5
:101750006F937F938F939F93AF93BF93EF93FF9379
:10176000E091D403F091D503309709F00995FF91EA
:10177000EF91BF91AF919F918F917F916F915F9109
:101780004F913F912F910F900FBE0F901F90189582
:101790001F920F920FB60F9211242F933F934F93E6
:1017A0005F936F937F938F939F93AF93BF93EF93C9
:1017B000FF93E091D003F091D103309709F00995A0
:1017C000FF91EF91BF91AF919F918F917F916F9119
:1017D0005F914F913F912F910F900FBE0F901F90EF
:1017E00018951F920F920FB60F9211242F933F93CB
:1017F0004F935F936F937F938F939F93AF93BF9319
:10180000EF93FF93E091F403F091F503309709F023
:101810000995FF91EF91BF91AF919F918F917F912A
:101820006F915F914F913F912F910F900FBE0F904D
:101830001F9018951F920F920FB60F9211242F939D
:101840003F934F935F936F937F938F939F93AF9348
:10185000BF93EF93FF93E091F603F091F703309776
:1018600009F00995FF91EF91BF91AF919F918F91F1
:101870007F916F915F914F913F912F910F900FBE8C
:101880000F901F9018951F920F920FB60F92112470
:101890002F933F934F935F936F937F938F939F9378
:1018A000AF93BF93EF93FF93E091F203F091F303B3
:1018B000309709F00995FF91EF91BF91AF919F91FA
:1018C0008F917F916F915F914F913F912F910F90E9
:1018D0000FBE0F901F9018951F920F920FB60F9288
:1018E00011242F933F934F935F936F937F938F9325
:1018F0009F93AF93BF93EF93FF93E091FA03F0911F
:10190000FB03309709F00995FF91EF91BF91AF91DB
:101910009F918F917F916F915F914F913F912F9107
:101920000F900FBE0F901F901895DC012C91615005
:10193000223039F4673068F4E62FF0E0EC5EFD4FBA
:1019400006C0693030F4E62FF0E0E55EFD4F2081FF
:1019500001C020E0DC011A96ED91FC911B9780817B
:10196000887F822B80830895CF93DF93EC01688377
:10197000613011F120F0623009F06CC048C01B8268
:101980001A8286E490E09D838C838EE690E09F83AC
:101990008E8384E490E09987888785E490E09B8734
:1019A0008A871D861C8687E490E09F878E87198A28
:1019B000188A88E490E022C08FE690E09F838E83AF
:1019C00085E890E09B838A8384E890E09D838C8304
:1019D00080E890E09987888781E890E09B878A87F4
:1019E00089E890E09D878C8788E890E09F878E87C4
:1019F0008BE890E0998B888B8AE890E09B8B8A8BB0
:101A00001D8A1C8A1F8A1E8A82E0898323C01B824A
:101A10001A8282EB90E09D838C8380E790E09F8325
:101A20008E8380EB90E09987888781EB90E09B879D
:101A30008A871D861C8683EB90E09F878E87198A94
:101A4000188A84EB90E09B8B8A8B1D8A1C8A1F8AE4
:101A50001E8A698360E0CE010E94950CEA81FB81B9
:101A6000309709F01082EC81FD811082198E188E5A
:101A70001B8E1A8E1D8E1C8E1F8E1E8E19A218A2F2
:101A8000DF91CF91089551E0411101C050E06530E0
:101A9000F0F4E62FF0E0EC5DFD4F408147FD17C00C
:101AA000DC011696ED91FC911797808121E030E0E2
:101AB000042E01C0220F0A94EAF720952823852FCF
:101AC000042E01C0880F0A94EAF7282B208308957A
:101AD000623099F028F4662341F06130C9F409C0FE
:101AE000633079F06430A1F410C0FC01518F408F55
:101AF0000FC0FC01538F428F0BC0FC01558F448FE8
:101B000007C0FC01578F468F03C0FC0151A340A3BF
:101B1000452B11F440E003C0222319F041E00C945E
:101B2000430D0895DC011896ED91FC9119973081D1
:101B3000262F23703C7F232B20831A96ED91FC9156
:101B40001B9780816C70660F877E682B6083089579
:101B500060E08CEF93E00E94B40C61E08AED93E0CA
:101B60000E94B40C62E088EB93E00C94B40CA1E208
:101B70001A2EAA1BBB1BFD010DC0AA1FBB1FEE1F07
:101B8000FF1FA217B307E407F50720F0A21BB30B52
:101B9000E40BF50B661F771F881F991F1A9469F7CE
:101BA00060957095809590959B01AC01BD01CF012A
:101BB0000895052E97FB16F4009407D057FD0DD01D
:101BC0000E94B70D07FC09D07EF490958095709522
:101BD00061957F4F8F4F9F4F089550954095309559
:101BE00021953F4F4F4F5F4F0895EE0FFF1F059018
:0A1BF000F491E02D0994F894FFCF62
:101BFA0000001E0420004E44010153656E64696EA4
:101C0A006720636F6D6D616E6420746F2074686500
:101C1A00205842656500436F6D6D616E64205B00FC
:101C2A005D20776173207375636365737366756C82
:101C3A002100436F6D6D616E642076616C7565205D
:101C4A006C656E6774682069732000436F6D6D61FF
:101C5A006E642076616C75653A2000436F6D6D6124
:101C6A006E642072657475726E206572726F72206E
:101C7A00636F64653A200045787065637465642013
:101C8A00415420726573706F6E736520627574209B
:101C9A00676F7420004572726F72207265616469A1
:101CAA006E67207061636B65742E20204572726FB7
:101CBA007220636F64653A20004E6F2072657370FC
:101CCA006F6E73652066726F6D20726164696F0052
:101CDA00000000006B034D03000000005503510390
:101CEA0000000000F306D909A506AA06D006BE061A
:101CFA0000000000CB064B07510700000000C60693
:101D0A003F07450701020304050607010200030015
:0A1D1A00040506070001020305009E
:00000001FF
