:100000000C9442000C946A000C946A000C946A00F0
:100010000C946A000C946A000C946A000C946A00B8
:100020000C946A000C94E3070C940C080C943508AB
:100030000C94D9080C945E080C9487080C94B008B2
:100040000C9468070C9491070C94BA070C946A00FE
:100050000C94E3060C9496040C946A000C946A00C9
:100060000C946A000C946A000C946A000C946A0068
:100070000C94B8060C94E4040C946A006101FA0232
:100080000E07150A11241FBECFEFD0E1DEBFCDBF92
:1000900011E0A0E0B1E0E4EDF4E102C005900D92C2
:1000A000AE34B107D9F713E0AEE4B1E001C01D9260
:1000B000A732B107E1F710E0C4E8D0E004C022970E
:1000C000FE010E94640ACC37D107C9F70E94DD0304
:1000D0000C94680A0C940000EF920F9361E08091F9
:1000E00008010E94AF0361E0809106010E94AF0306
:1000F000E12C01E028E040E051EE60E070E085E6B0
:1001000092E00E94B60528E040E051EE60E070E029
:1001100089E092E00E94B60569E072E08AE791E02A
:100120000F91EF900C941D02CF93DF93CDB7DEB704
:100130006C970FB6F894DEBF0FBECDBF2D8B3E8BF4
:100140004F8B588F698F7A8F8B8F9C8FCE01019642
:100150000E944602BE016B5E7F4FCE0101960E9457
:100160006102809150018C8BBE016C5E7F4FCE018D
:1001700001960E943F0261E0CE0101960E94430277
:1001800060E0CE0101960E943C0261E0CE01019642
:100190000E946A02BE016F5F7F4F8AE791E00E9472
:1001A0008A026C960FB6F894DEBF0FBECDBFDF910A
:1001B000CF910895809150019091510190934F01FA
:1001C00080934E0185E00E9416039C0197FF02C0B8
:1001D0002D5F3F4F359527953595279530935101E4
:1001E0002093500180914E0190914F01281B390BB3
:1001F00037FF03C0319521953109233031050CF4C7
:100200005AC0209172013091730140917401509154
:1002100075016091760170917701809178019091DC
:1002200079010E94940020916A0130916B01409104
:100230006C0150916D0160916E0170916F01809120
:100240007001909171010E9494002091620130919F
:100250006301409164015091650160916601709164
:10026000670180916801909169010E94940020913A
:100270005A0130915B0140915C0150915D016091A8
:100280005E0170915F0180916001909161010E9417
:1002900094002091520130915301409154015091AA
:1002A00055016091560170915701809158019091CC
:1002B00059010E94940062E370E080E090E00C94A9
:1002C0008D038AE791E00E940B0280E092EAA3E1AD
:1002D000B0E08093720190937301A0937401B09386
:1002E000750143E15CE666EE70E44093760150935D
:1002F0007701609378017093790180936A019093FC
:100300006B01A0936C01B0936D0147ED5DE666EE65
:1003100070E440936E0150936F016093700170938D
:1003200071018093620190936301A0936401B09383
:10033000650149E45CE666EE70E440936601509323
:100340006701609368017093690180935A019093EB
:100350005B01A0935C01B0935D0148E15CE666EE51
:1003600070E440935E0150935F016093600170936D
:1003700061018093520190935301A0935401B09373
:1003800055018FE29CE6A6EEB0E48093560190936F
:100390005701A0935801B09359010895FC0186813B
:1003A000845F0895FC01611102C082850895613067
:1003B00011F481850895623011F4808508956330C9
:1003C00011F487810895643011F4868508956530AD
:1003D00011F485850895663011F484850895673099
:1003E00011F483850895683011F480890895693087
:1003F00011F4878508956A3011F4818908956B306E
:1004000011F4828908950480F581E02DE60FF11D35
:100410003C9780810895FC0112861186148615860A
:100420001782108615820E9691838083E458FF4FC1
:1004300085E692E091838083089584589F4FFC0164
:1004400071836083089584589F4FDC018D919C9146
:10045000DC01ED91FC910284F385E02D0994845830
:100460009F4FFC01A081B181ED91FC91119701900A
:10047000F081E02DCD010994FC0163830895FC0116
:10048000758364830895FC0166830895FC0180E10F
:10049000828381E0838315821482168280E191E059
:1004A00091838083178210861186128613861486A4
:1004B000158616868EEF9FEF908B8787118A128A9A
:1004C000089528E0FB01DC01179601900D922A9512
:1004D000E1F70895FC01628B08951F93CF93DF939A
:1004E000EC01162F442379F0862F8D57823020F0AF
:1004F000613111F0633139F46DE7CE010E942F02B2
:1005000060E2612701C0612FCE01DF91CF911F9181
:100510000C942F02DF92EF92FF920F931F93CF93D1
:10052000DF938C01EB016EE70E942F02E881F981D5
:100530000280F381E02DCE010995E82EE881F98152
:100540000280F381E02DCE010995F82E2E2D30E0AA
:100550002E5F3F4F41E0632FC8010E946D026F2D57
:100560006E5F41E0C8010E946D0241E06A81C801EE
:100570000E946D0241E06B81C8010E946D02DA8029
:100580008B81D80EE12CF12C19C0E881F981019002
:10059000F081E02D6E2DCE01099541E0682FC80154
:1005A0000E946D02E881F9810190F081E02D6E2DAD
:1005B000CE010995D80E8FEFE81AF80AE881F98183
:1005C0000280F381E02DCE010995282F30E0E2165C
:1005D000F306DCF26D2D609541E0C8010E946D02CA
:1005E000C801DF91CF911F910F91FF90EF90DF90A5
:1005F0000C9423021092F8011092F9011092FA0162
:100600001092FB018FEF9FEFA0E0B0E08093FC0120
:100610009093FD01A093FE01B093FF01089580E443
:1006200080937C0087E880937A000895CF93DF93CE
:100630001F92CDB7DEB790910A01913031F48983D2
:100640000E940F0310920A018981877020910B018B
:1006500040E4249F90011124822B80937C008091A0
:100660007A00806480937A0080917A0086FDFCCFC6
:100670002091780030917900932F80E0FC01E22BEB
:100680009F01C9010F90DF91CF91089580910102E0
:1006900090910202A0910302B091040230910002F5
:1006A000232F2D5F2D3720F40196A11DB11D05C00C
:1006B000232F2A570296A11DB11D2093000280937B
:1006C000010290930202A0930302B093040280916E
:1006D000050290910602A0910702B09108020196CE
:1006E000A11DB11D8093050290930602A0930702FD
:1006F000B093080208950F931F938FB7F894009159
:1007000001021091020220910302309104028FBF76
:10071000B801C9011F910F9108958F929F92AF92D6
:10072000BF92CF92DF92EF92FF926B017C010E9409
:100730007B034B015C010E947B03681979098A09DC
:100740009B096C157D058E059F05A8F3FF90EF9022
:10075000DF90CF90BF90AF909F908F900895982F8B
:10076000977021E030E0092E01C0220F0A94EAF7C9
:1007700086958695869581F0813089F0823091F05A
:100780008330D1F412C080812095822302C0808101
:10079000822B80839FBF0895EAE2F0E008C0E7E281
:1007A000F0E005C0E4E2F0E002C0E1E2F0E09FB773
:1007B000F894662341F3EBCF08950E9440070E940E
:1007C0006C000E94DA00FDCFFC0120893189C9014B
:1007D0000895DC0150962D913C915197232B49F0BF
:1007E0005496ED91FC915597E80FF91F268930E05A
:1007F00002C02FEF3FEFC9010895FC01118A108A52
:10080000158A148A138A128A0895FC01248135817D
:10081000C9010895FC0124813581C9010895FC01B5
:1008200080899189892BD1F03FB7F894808991898B
:100830000197918B808B84899589DF01A80FB91F5F
:1008400056962C910196803291051CF4958B848BE1
:1008500002C0158A148A3FBF30E002C02FEF3FEF7D
:10086000C9010895EF92FF921F93CF93DF931F92D8
:10087000CDB7DEB77C01D701DA968D919C91DB97DD
:100880004097C8F71FB7F894D696ED91FC91D7978B
:100890000190F081E02DC701C696698309956981B1
:1008A0004097C8F4F70182AD93AD019693AF82AF44
:1008B00084AD95ADE80FF91FE05CFF4F60830196B2
:1008C000D701DD969C938E93DC97409724F0DD96BC
:1008D0001C921E92DC97F701EA5AFF4F0190F081BB
:1008E000E02D8081806280831FBF81E090E00F90C7
:1008F000DF91CF911F91FF90EF900895665F7F4F3A
:10090000680F791FCB010895665F7F4F680F791FCD
:10091000CB010895665F7F4F680F791FCB01089563
:10092000665F7F4F680F791FCB0108951F920F926A
:100930000FB60F9211242F938F939F93AF93BF9372
:10094000EF93FF9380919F029091A002892B21F158
:10095000E091BF02F091C00280919F029091A002AD
:1009600001979093A00280939F028091A30290919F
:10097000A402DC01A556BD4F1A962C910196803138
:1009800091052CF49093A4028093A30204C01092CA
:10099000A4021092A302208380919F029091A00252
:1009A000892B31F4E091BB02F091BC0288E980838D
:1009B000FF91EF91BF91AF919F918F912F910F90E8
:1009C0000FBE0F901F9018951F920F920FB60F92A7
:1009D00011242F938F939F93AF93BF93EF93FF9324
:1009E0008091430290914402892B21F1E0916302AE
:1009F000F091640280914302909144020197909398
:100A00004402809343028091470290914802DC01A6
:100A1000A15CBD4F1A962C910196803191052CF462
:100A2000909348028093470204C0109248021092AB
:100A3000470220838091430290914402892B31F434
:100A4000E0915F02F091600288E98083FF91EF916D
:100A5000BF91AF919F918F912F910F900FBE0F90EB
:100A60001F901895FC01262F1382128248EE53E046
:100A700060E070E0448355836683778388E191E08A
:100A80009183808388E291E09587848780E290E07B
:100A900097878687118A108A158A148A138A128A80
:100AA00082E391E097AB86AB80E190E091AF80AFBD
:100AB00013AE12AE17AE16AE15AE14AE222321F051
:100AC000213009F052C028C0DF01A05BBF4F85EC88
:100AD00090E08D939C93DF01AE5ABF4F84EC90E081
:100AE0008D939C93DF01AC5ABF4F80EC90E08D93C7
:100AF0009C93DF01AA5ABF4F81EC90E08D939C93A9
:100B0000DF01A85ABF4F82EC90E08D939C93E65A88
:100B1000FF4F86EC90E027C0DF01A05BBF4F8DEC5C
:100B200090E08D939C93DF01AE5ABF4F8CEC90E028
:100B30008D939C93DF01AC5ABF4F88EC90E08D936E
:100B40009C93DF01AA5ABF4F89EC90E08D939C9350
:100B5000DF01A85ABF4F8AEC90E08D939C93E65A30
:100B6000FF4F8EEC90E09183808308953F924F92E7
:100B70005F926F927F928F929F92AF92BF92CF922D
:100B8000DF92EF92FF920F931F93CF93DF93EC01CD
:100B90004A015B01122F3E2C60E072E18AE790E08F
:100BA000A50194010E94240A69017A0184E0C80E1B
:100BB000D11CE11CF11C83E0F694E794D794C79410
:100BC0008A95D1F760E074E284EF90E0A50194018A
:100BD0000E94240A29013A0194E0490E511C611C2B
:100BE000711C93E076946794579447949A95D1F743
:100BF000A30192014427552760E874E88EE190E054
:100C00000E94460A5901A818B908B7FE03C0B1945A
:100C1000A194B108A70196014427552760E472E426
:100C20008FE090E00E94460A2819390937FF03C077
:100C3000319521953109FE01EC5AFF4F0190F08169
:100C4000E02DA216B3063CF482E08083620181E0CD
:100C5000C81AD10804C0108291E0C91AD108163010
:100C6000C1F018F4153099F405C0173029F0193087
:100C700071F404C080E00EC084E00CC0FE01EA5AAA
:100C8000FF4F0190F081E02D80818460808386E0B9
:100C900001C082E0023009F4886091E0391621F049
:100CA00092E0391204C002C0806301C08062FE017C
:100CB000E85AFF4F0190F081E02D8083FE01E05B58
:100CC000FF4F0190F081E02DD082FE01EE5AFF4FE0
:100CD0000190F081E02DC082CA5ADF4FE881F9818E
:100CE00088E98083DF91CF911F910F91FF90EF9062
:100CF000DF90CF90BF90AF909F908F907F906F903C
:100D00005F904F903F9008950F931F93CF93DF9381
:100D10001F92CDB7DEB78C01DC01ED91FC91019003
:100D2000F081E02D6983099569818097D0F4F801FD
:100D30008481958101969583848386819781E80FCC
:100D4000F91F628701968032910534F4D801179615
:100D50009C938E93169703C0F8011782168281E048
:100D600001C080E00F90DF91CF911F910F91089506
:100D70001F920F920FB60F9211242F933F934F9310
:100D80005F936F937F938F939F93AF93BF93EF93F3
:100D9000FF93E0916302F0916402608185E192E04B
:100DA0000E948406FF91EF91BF91AF919F918F9127
:100DB0007F916F915F914F913F912F910F900FBE57
:100DC0000F901F9018951F920F920FB60F9211243B
:100DD0002F933F934F935F936F937F938F939F9343
:100DE000AF93BF93EF93FF93E091BF02F091C002E6
:100DF000608181E792E00E948406FF91EF91BF91AC
:100E0000AF919F918F917F916F915F914F913F91A2
:100E10002F910F900FBE0F901F90189560E085E600
:100E200092E00E94320561E089E092E00C94320584
:100E3000CF92DF92EF92FF920F931F93CF93DF93A6
:100E40006C01EB017A01E60EF71E00E010E00BC02A
:100E50006991D601ED91FC910190F081E02DC601E0
:100E60000995080F191FCE15DF0591F7C801DF910D
:100E7000CF911F910F91FF90EF90DF90CF90089549
:100E800063E085E093E00E94FF0921E046E453E03F
:100E900060E085E093E00E94D50964E085E093E09E
:100EA0000E94020961E083EE92E00E94FF0964E083
:100EB00083EE92E00E94020961E081EC92E00E94E0
:100EC000FF0964E081EC92E00E94020978940895A1
:100ED0001F920F920FB60F9211242F933F934F93AF
:100EE0005F936F937F938F939F93AF93BF93EF9392
:100EF000FF93E0911F03F0912003309709F00995CB
:100F0000FF91EF91BF91AF919F918F917F916F91E1
:100F10005F914F913F912F910F900FBE0F901F90B7
:100F200018951F920F920FB60F9211242F933F9393
:100F30004F935F936F937F938F939F93AF93BF93E1
:100F4000EF93FF93E0912103F0912203309709F092
:100F50000995FF91EF91BF91AF919F918F917F91F3
:100F60006F915F914F913F912F910F900FBE0F9016
:100F70001F9018951F920F920FB60F9211242F9366
:100F80003F934F935F936F937F938F939F93AF9311
:100F9000BF93EF93FF93E0911D03F0911E033097F1
:100FA00009F00995FF91EF91BF91AF919F918F91BA
:100FB0007F916F915F914F913F912F910F900FBE55
:100FC0000F901F9018951F920F920FB60F92112439
:100FD0002F933F934F935F936F937F938F939F9341
:100FE000AF93BF93EF93FF93E091DB02F091DC02AC
:100FF000309709F00995FF91EF91BF91AF919F91C3
:101000008F917F916F915F914F913F912F910F90B1
:101010000FBE0F901F9018951F920F920FB60F9250
:1010200011242F933F934F935F936F937F938F93ED
:101030009F93AF93BF93EF93FF93E091DD02F09105
:10104000DE02309709F00995FF91EF91BF91AF91C2
:101050009F918F917F916F915F914F913F912F91D0
:101060000F900FBE0F901F9018951F920F920FB602
:101070000F9211242F933F934F935F936F937F931E
:101080008F939F93AF93BF93EF93FF93E091D90218
:10109000F091DA02309709F00995FF91EF91BF9135
:1010A000AF919F918F917F916F915F914F913F9100
:1010B0002F910F900FBE0F901F9018951F920F92B7
:1010C0000FB60F9211242F933F934F935F936F931B
:1010D0007F938F939F93AF93BF93EF93FF93E09191
:1010E000FD02F091FE02309709F00995FF91EF9112
:1010F000BF91AF919F918F917F916F915F914F9130
:101100003F912F910F900FBE0F901F9018951F9237
:101110000F920FB60F9211242F933F934F935F932B
:101120006F937F938F939F93AF93BF93EF93FF93AF
:10113000E091FF02F0910003309709F00995FF91CB
:10114000EF91BF91AF919F918F917F916F915F913F
:101150004F913F912F910F900FBE0F901F901895B8
:101160001F920F920FB60F9211242F933F934F931C
:101170005F936F937F938F939F93AF93BF93EF93FF
:10118000FF93E091FB02F091FC02309709F0099582
:10119000FF91EF91BF91AF919F918F917F916F914F
:1011A0005F914F913F912F910F900FBE0F901F9025
:1011B00018951F920F920FB60F9211242F933F9301
:1011C0004F935F936F937F938F939F93AF93BF934F
:1011D000EF93FF93E0910303F0910403309709F03C
:1011E0000995FF91EF91BF91AF919F918F917F9161
:1011F0006F915F914F913F912F910F900FBE0F9084
:101200001F901895DC012C916150223039F4673021
:1012100068F4E62FF0E0E85CFE4F06C0693030F479
:10122000E62FF0E0E15CFE4F208101C020E0DC0110
:101230001A96ED91FC911B978081887F822B808389
:101240000895CF93DF93EC016883613011F120F0B2
:10125000623009F06CC048C01B821A8286E490E0BC
:101260009D838C838EE690E09F838E8384E490E060
:101270009987888785E490E09B878A871D861C86EE
:1012800087E490E09F878E87198A188A88E490E027
:1012900022C08FE690E09F838E8385E890E09B8359
:1012A0008A8384E890E09D838C8380E890E099872E
:1012B000888781E890E09B878A8789E890E09D870E
:1012C0008C8788E890E09F878E878BE890E0998BE9
:1012D000888B8AE890E09B8B8A8B1D8A1C8A1F8AE8
:1012E0001E8A82E0898323C01B821A8282EB90E0EF
:1012F0009D838C8380E790E09F838E8380EB90E0DA
:101300009987888781EB90E09B878A871D861C865A
:1013100083EB90E09F878E87198A188A84EB90E090
:101320009B8B8A8B1D8A1C8A1F8A1E8A698360E0B8
:10133000CE010E940209EA81FB81309709F01082F8
:10134000EC81FD811082198E188E1B8E1A8E1D8ED7
:101350001C8E1F8E1E8E19A218A2DF91CF910895A8
:1013600051E0411101C050E06530F0F4E62FF0E0AB
:10137000E85BFE4F408147FD17C0DC011696ED91FA
:10138000FC911797808121E030E0042E01C0220FEC
:101390000A94EAF720952823852F042E01C0880F90
:1013A0000A94EAF7282B20830895623099F028F4F4
:1013B000662341F06130C9F409C0633079F06430CC
:1013C000A1F410C0FC01518F408F0FC0FC01538F5E
:1013D000428F0BC0FC01558F448F07C0FC01578F13
:1013E000468F03C0FC0151A340A3452B11F440E0FC
:1013F00003C0222319F041E00C94B0090895DC01E8
:101400001896ED91FC9119973081262F23703C7F1F
:10141000232B20831A96ED91FC911B9780816C7091
:10142000660F877E682B6083089560E085E093E017
:101430000E94210961E083EE92E00E94210962E0AE
:1014400081EC92E00C942109A1E21A2EAA1BBB1B8D
:10145000FD010DC0AA1FBB1FEE1FFF1FA217B30780
:10146000E407F50720F0A21BB30BE40BF50B661F96
:10147000771F881F991F1A9469F76095709580955A
:1014800090959B01AC01BD01CF010895052E97FBFE
:1014900016F4009407D057FD0DD00E94240A07FCD3
:1014A00009D07EF490958095709561957F4F8F4F10
:1014B0009F4F089550954095309521953F4F4F4F40
:1014C0005F4F0895EE0FFF1F0590F491E02D0994F2
:0414D000F894FFCFBE
:1014D4000000270320000F000F000101000000009E
:1014E400D201CE010000000032041807E403E9032E
:1014F4000F04FD03000000000A048A0490040000A5
:10150400000005047E0484040102030405060701A7
:0E1514000200030004050607000102030500A3
:00000001FF
