:100000000C9442000C946A000C946A000C946A00F0
:100010000C946A000C946A000C946A000C946A00B8
:100020000C946A000C94EF080C9418090C94410984
:100030000C94E5090C946A090C9493090C94BC097E
:100040000C9474080C949D080C94C6080C946A00D7
:100050000C9499070C944C050C946A000C946A005B
:100060000C946A000C946A000C946A000C946A0068
:100070000C946E070C949A050C946A00EA01C7036D
:10008000C407210B11241FBECFEFD0E1DEBFCDBFCF
:1000900011E0A0E0B1E0EAE3F7E102C005900D92C3
:1000A000AC34B107D9F713E0ACE4B1E001C01D9264
:1000B000A73BB107E1F710E0C4E8D0E004C0229705
:1000C000FE010E948B0BCC37D107C9F70E94930425
:1000D0000C949B0B0C940000EF920F931F93CF9303
:1000E000DF93CDB7DEB728970FB6F894DEBF0FBE0B
:1000F000CDBF09831A832B833C834D835E836F833B
:100100007887FC0110821182128213821482158278
:100110001682178228E0FE013196DC0101900D92D3
:100120002A95E1F7FC01E0861186128628960FB623
:10013000F894DEBF0FBECDBFDF91CF911F910F911D
:10014000EF900895FC0180850895FC016187089572
:10015000FC0181850895FC0181859285891719F03C
:10016000828781E0089580E00895CF93DF93CDB733
:10017000DEB728970FB6F894DEBF0FBECDBF28E0DC
:10018000FC01DE01119601900D922A95E1F729817B
:100190003A814B815C816D817E818F819885289623
:1001A0000FB6F894DEBF0FBECDBFDF91CF9108959B
:1001B000EF920F93E12C01E028E040E051EE60E087
:1001C00070E085EF92E00E946C0628E040E051EE7E
:1001D00060E070E089E992E00E946C0669E972E0F3
:1001E0008AE092E00F91EF900C94EA0283E891E0AC
:1001F0000C94E7030F93CF93DF93CDB7DEB76C97E3
:100200000FB6F894DEBF0FBECDBF2D8B3E8B4F8B4C
:10021000588F698F7A8F8B8F9C8FCE0101960E94A9
:100220001303BE016B5E7F4FCE0101960E942E0329
:100230000C8BBE016C5E7F4FCE0101960E940C03B9
:1002400061E0CE0101960E94100360E0CE010196AC
:100250000E94090361E0CE0101960E943703BE01AE
:100260006F5F7F4F8AE092E00E9457036C960FB653
:10027000F894DEBF0FBECDBFDF91CF910F910895EF
:100280009F92AF92BF92CF92DF92EF92FF920F9325
:100290001F93CF93DF93CDB7DEB760970FB6F89477
:1002A000DEBF0FBECDBF83E891E00E9456048230CE
:1002B00009F07EC060E083E891E00E945904982E26
:1002C00061E083E891E00E945904682F70E080E0CB
:1002D00090E01F921F921F922FEF2F93A12CB12C11
:1002E00065011FE7E12EF12C00E010E021E030E095
:1002F00040E050E00E94F607D62E0F900F900F902E
:100300000F9000E010E03BE0C32EC09E7001C19E44
:10031000F00C11248CE491E0E80EF91EC7010E9454
:10032000A200891104C06D2DC7010E94A5000F5FB6
:100330001F4F0530110549F7E12CF12C8BE0982E69
:1003400098E0D92E9E9C80019F9C100D1124045B87
:100350001E4FC8010E94AB00882319F1C8010E94FA
:10036000A800C82EC8010E94B50029873A874B878C
:100370005C876D877E878F87988BFE013996DE01BB
:1003800011968D2D01900D928A95E1F70C2D298102
:100390003A814B815C816D817E818F8198850E943D
:1003A000FA009FEFE91AF90A85E0E816F10451F620
:1003B00060960FB6F894DEBF0FBECDBFDF91CF9130
:1003C0001F910F91FF90EF90DF90CF90BF90AF9073
:1003D0009F9008958F929F92AF92BF92EF920F934A
:1003E0001F93CF93DF93CDB7DEB728970FB6F8945E
:1003F000DEBF0FBECDBF8AE092E00E94D80240E48B
:1004000051E065EF72E083E891E00E94DC03812C0B
:1004100042EA942E43E1A42EB12C082D89829A82BF
:10042000AB82BC8283E19CE6A6EEB0E4482F8D83CC
:100430009E83AF83B88750E4E52E1A812B813C81DF
:100440005E816F8178858CE491E00E946C008982E6
:100450009A82AB82BC8287ED9DE6A6EEB0E4482F7F
:100460008D839E83AF83B88761E4E62E1A812B814A
:100470003C815E816F81788587E591E00E946C0008
:1004800089829A82AB82BC8289E49CE6A6EEB0E4C3
:10049000482F8D839E83AF83B88772E4E72E1A813D
:1004A0002B813C815E816F81788582E691E00E949C
:1004B0006C0089829A82AB82BC8288E19CE6A6EEBF
:1004C000B0E4482F8D839E83AF83B887E3E4EE2E9C
:1004D0001A812B813C815E816F8178858DE691E068
:1004E0000E946C0089829A82AB82BC828FE29CE679
:1004F000A6EEB0E4482F8D839E83AF83B887F4E4E3
:10050000EF2E1A812B813C815E816F81788588E78F
:1005100091E00E946C0028960FB6F894DEBF0FBEE3
:10052000CDBFDF91CF911F910F91EF90BF90AF9012
:100530009F908F900895FC018681845F0895FC014F
:10054000611102C082850895613011F4818508959A
:10055000623011F480850895633011F48781089525
:10056000643011F486850895653011F48585089509
:10057000663011F484850895673011F483850895F9
:10058000683011F480890895693011F487850895E1
:100590006A3011F4818908956B3011F482890895CD
:1005A0000480F581E02DE60FF11D3C9780810895D0
:1005B000FC01128611861486158617821086158214
:1005C0000E9691838083E458FF4F85EF92E09183EC
:1005D0008083089584589F4FFC0171836083089540
:1005E00084589F4FDC018D919C91DC01ED91FC9131
:1005F0000284F385E02D099484589F4FFC01A0816B
:10060000B181ED91FC9111970190F081E02DCD0128
:100610000994FC0163830895FC0175836483089544
:10062000FC0166830895FC0180E1828381E083837D
:100630001582148216828EE091E091838083178266
:1006400010861186128613861486158616868EEFFE
:100650009FEF908B8787118A128A089528E0FB010B
:10066000DC01179601900D922A95E1F70895FC019F
:10067000628B08951F93CF93DF93EC01162F4423D1
:1006800079F0862F8D57823020F0613111F063317F
:1006900039F46DE7CE010E94FC0260E2612701C0DF
:1006A000612FCE01DF91CF911F910C94FC02DF925C
:1006B000EF92FF920F931F93CF93DF938C01EB0187
:1006C0006EE70E94FC02E881F9810280F381E02D4F
:1006D000CE010995E82EE881F9810280F381E02DB1
:1006E000CE010995F82E2E2D30E02E5F3F4F41E0D0
:1006F000632FC8010E943A036F2D6E5F41E0C8016D
:100700000E943A0341E06A81C8010E943A0341E035
:100710006B81C8010E943A03DA808B81D80EE12CEC
:10072000F12C19C0E881F9810190F081E02D6E2D46
:10073000CE01099541E0682FC8010E943A03E88183
:10074000F9810190F081E02D6E2DCE010995D80E32
:100750008FEFE81AF80AE881F9810280F381E02D31
:10076000CE010995282F30E0E216F306DCF26D2D5C
:10077000609541E0C8010E943A03C801DF91CF9122
:100780001F910F91FF90EF90DF900C94F002109268
:1007900088021092890210928A0210928B028FEFC7
:1007A0009FEFA0E0B0E080938C0290938D02A09325
:1007B0008E02B0938F020895FC01EB57FF4F7183B7
:1007C0006083FC01ED57FF4F518340830895BF9232
:1007D000CF92DF92EF92FF920F931F93CF93DF930D
:1007E000EC017C0185E8E80EF11C8E010E571F4FCD
:1007F000BB24B3946E01A3E8CA0ED11CF70180811B
:100800009181DC01ED91FC910480F581E02D099549
:10081000892B09F441C0F70180819181DC01ED91C0
:10082000FC910084F185E02D0995803C910579F4D7
:1008300088818983882331F0D601ED91FC9130972E
:1008400009F009951882F80110821982D7CF8B3DE3
:10085000910519F4D801BC92D1CFF801208122234F
:1008600071F08C3D910521F08D3D910531F403C06F
:1008700080EC90E002C08BED90E0D8011C92988152
:10088000FE01E90FF11D8283892F8F5F803811F0FF
:100890008883B4CF1882B2CFDF91CF911F910F918F
:1008A000FF90EF90DF90CF90BF900895FC01818181
:1008B0000895860F911DFC01828108958091910217
:1008C00090919202A0919302B09194023091900283
:1008D000232F2D5F2D3720F40196A11DB11D05C0DA
:1008E000232F2A570296A11DB11D209390028093B9
:1008F000910290939202A0939302B09394028091FC
:10090000950290919602A0919702B091980201965B
:10091000A11DB11D8093950290939602A09397021A
:10092000B093980208950E944C080E94D8000E943B
:10093000F600FDCFFC0120893189C9010895DC0151
:1009400050962D913C915197232B49F05496ED915F
:10095000FC915597E80FF91F268930E002C02FEF70
:100960003FEFC9010895FC01118A108A158A148A83
:10097000138A128A0895FC0124813581C9010895E2
:10098000FC0124813581C9010895FC018089918988
:10099000892BD1F03FB7F894808991890197918B89
:1009A000808B84899589DF01A80FB91F56962C91F9
:1009B0000196803291051CF4958B848B02C0158AB8
:1009C000148A3FBF30E002C02FEF3FEFC901089506
:1009D000EF92FF921F93CF93DF931F92CDB7DEB7B5
:1009E0007C01D701DA968D919C91DB974097C8F7EF
:1009F0001FB7F894D696ED91FC91D7970190F081AE
:100A0000E02DC701C6966983099569814097C8F4AE
:100A1000F70182AD93AD019693AF82AF84AD95ADF2
:100A2000E80FF91FE05CFF4F60830196D701DD9668
:100A30009C938E93DC97409724F0DD961C921E9237
:100A4000DC97F701EA5AFF4F0190F081E02D808199
:100A5000806280831FBF81E090E00F90DF91CF9193
:100A60001F91FF90EF900895665F7F4F680F791F89
:100A7000CB010895665F7F4F680F791FCB01089502
:100A8000665F7F4F680F791FCB010895665F7F4FC8
:100A9000680F791FCB0108951F920F920FB60F9226
:100AA00011242F938F939F93AF93BF93EF93FF9353
:100AB00080912F0390913003892B21F1E0914F0316
:100AC000F091500380912F03909130030197909300
:100AD000300380932F038091330390913403DC0122
:100AE000A55DBC4F1A962C910196803191052CF48E
:100AF000909334038093330304C010923403109214
:100B00003303208380912F0390913003892B31F49C
:100B1000E0914B03F0914C0388E98083FF91EF91C2
:100B2000BF91AF919F918F912F910F900FBE0F901A
:100B30001F9018951F920F920FB60F9211242F93AA
:100B40008F939F93AF93BF93EF93FF938091D302C3
:100B50009091D402892B21F1E091F302F091F402FB
:100B60008091D3029091D40201979093D402809304
:100B7000D3028091D7029091D802DC01A153BD4FDE
:100B80001A962C910196803191052CF49093D802FD
:100B90008093D70204C01092D8021092D70220830B
:100BA0008091D3029091D402892B31F4E091EF022D
:100BB000F091F00288E98083FF91EF91BF91AF91AE
:100BC0009F918F912F910F900FBE0F901F901895AE
:100BD000FC01262F1382128248EE53E060E070E0A1
:100BE000448355836683778386E191E09183808394
:100BF00086E291E09587848780E290E097878687F8
:100C0000118A108A158A148A138A128A80E391E065
:100C100097AB86AB80E190E091AF80AF13AE12AEA0
:100C200017AE16AE15AE14AE222321F0213009F016
:100C300052C028C0DF01A05BBF4F85EC90E08D93D0
:100C40009C93DF01AE5ABF4F84EC90E08D939C9350
:100C5000DF01AC5ABF4F80EC90E08D939C93DF0195
:100C6000AA5ABF4F81EC90E08D939C93DF01A85A64
:100C7000BF4F82EC90E08D939C93E65AFF4F86EC39
:100C800090E027C0DF01A05BBF4F8DEC90E08D931B
:100C90009C93DF01AE5ABF4F8CEC90E08D939C93F8
:100CA000DF01AC5ABF4F88EC90E08D939C93DF013D
:100CB000AA5ABF4F89EC90E08D939C93DF01A85A0C
:100CC000BF4F8AEC90E08D939C93E65AFF4F8EECD9
:100CD00090E09183808308953F924F925F926F924C
:100CE0007F928F929F92AF92BF92CF92DF92EF92BC
:100CF000FF920F931F93CF93DF93EC014A015B01A7
:100D0000122F3E2C60E072E18AE790E0A501940189
:100D10000E94400B69017A0184E0C80ED11CE11CDD
:100D2000F11C83E0F694E794D794C7948A95D1F7A1
:100D300060E074E284EF90E0A50194010E94400B12
:100D400029013A0194E0490E511C611C711C93E089
:100D500076946794579447949A95D1F7A30192019A
:100D60004427552760E874E88EE190E00E94620B0A
:100D70005901A818B908B7FE03C0B194A194B108ED
:100D8000A70196014427552760E472E48FE090E0C4
:100D90000E94620B2819390937FF03C0319521954C
:100DA0003109FE01EC5AFF4F0190F081E02DA216AF
:100DB000B3063CF482E08083620181E0C81AD10866
:100DC00004C0108291E0C91AD1081630C1F018F49D
:100DD000153099F405C0173029F0193071F404C0AA
:100DE00080E00EC084E00CC0FE01EA5AFF4F019083
:100DF000F081E02D80818460808386E001C082E004
:100E0000023009F4886091E0391621F092E039123D
:100E100004C002C0806301C08062FE01E85AFF4F37
:100E20000190F081E02D8083FE01E05BFF4F019097
:100E3000F081E02DD082FE01EE5AFF4F0190F0814B
:100E4000E02DC082CA5ADF4FE881F98188E98083AA
:100E5000DF91CF911F910F91FF90EF90DF90CF9096
:100E6000BF90AF909F908F907F906F905F904F90CA
:100E70003F9008950F931F93CF93DF931F92CDB7A9
:100E8000DEB78C01DC01ED91FC910190F081E02D49
:100E90006983099569818097D0F4F80184819581EF
:100EA00001969583848386819781E80FF91F628775
:100EB00001968032910534F4D80117969C938E9355
:100EC000169703C0F8011782168281E001C080E006
:100ED0000F90DF91CF911F910F9108951F920F9264
:100EE0000FB60F9211242F933F934F935F936F93FD
:100EF0007F938F939F93AF93BF93EF93FF93E09173
:100F0000F302F091F402608185EA92E00E943A07D0
:100F1000FF91EF91BF91AF919F918F917F916F91D1
:100F20005F914F913F912F910F900FBE0F901F90A7
:100F300018951F920F920FB60F9211242F933F9383
:100F40004F935F936F937F938F939F93AF93BF93D1
:100F5000EF93FF93E0914F03F0915003608181E0A4
:100F600093E00E943A07FF91EF91BF91AF919F915B
:100F70008F917F916F915F914F913F912F910F9042
:100F80000FBE0F901F90189560E085EF92E00E94D1
:100F9000E80561E089E992E00C94E805CF92DF92E0
:100FA000EF92FF920F931F93CF93DF936C01EB01AE
:100FB0007A01E60EF71E00E010E00BC06991D60141
:100FC000ED91FC910190F081E02DC6010995080F8B
:100FD000191FCE15DF0591F7C801DF91CF911F9141
:100FE0000F91FF90EF90DF90CF9008954F925F9216
:100FF0006F927F92AF92BF92CF92DF92EF92FF9269
:101000000F931F93CF93DF9300D000D0CDB7DEB7FF
:101010002B013C0129833A834B835C836D897E8954
:101020008F89988D421A530A640A750A6A197B09D6
:101030008C099D096F5F7F4F8F4F9F4FA3019201D6
:101040000E94300B29813A814B815C81E21AF30ABC
:10105000040B150B3FEFE31AF30A0F4F1F4FA801C4
:1010600097010E94620B2A0D3B1D4C1D5D1DB901AD
:10107000CA010F900F900F900F90DF91CF911F91A9
:101080000F91FF90EF90DF90CF90BF90AF907F9047
:101090006F905F904F90089563E085E993E00E9420
:1010A0000B0B21E04EE554E060E085E993E00E94FF
:1010B000E10A64E085E993E00E940E0A61E083E7BB
:1010C00093E00E940B0B64E083E793E00E940E0A1A
:1010D00061E081E593E00E940B0B64E081E593E021
:1010E0000E940E0A789408951F920F920FB60F92E5
:1010F00011242F933F934F935F936F937F938F931D
:101100009F93AF93BF93EF93FF93E091AF03F09161
:10111000B003309709F00995FF91EF91BF91AF911E
:101120009F918F917F916F915F914F913F912F91FF
:101130000F900FBE0F901F9018951F920F920FB631
:101140000F9211242F933F934F935F936F937F934D
:101150008F939F93AF93BF93EF93FF93E091B1036E
:10116000F091B203309709F00995FF91EF91BF918B
:10117000AF919F918F917F916F915F914F913F912F
:101180002F910F900FBE0F901F9018951F920F92E6
:101190000FB60F9211242F933F934F935F936F934A
:1011A0007F938F939F93AF93BF93EF93FF93E091C0
:1011B000AD03F091AE03309709F00995FF91EF91DF
:1011C000BF91AF919F918F917F916F915F914F915F
:1011D0003F912F910F900FBE0F901F9018951F9267
:1011E0000F920FB60F9211242F933F934F935F935B
:1011F0006F937F938F939F93AF93BF93EF93FF93DF
:10120000E0916B03F0916C03309709F00995FF9121
:10121000EF91BF91AF919F918F917F916F915F916E
:101220004F913F912F910F900FBE0F901F901895E7
:101230001F920F920FB60F9211242F933F934F934B
:101240005F936F937F938F939F93AF93BF93EF932E
:10125000FF93E0916D03F0916E03309709F00995CB
:10126000FF91EF91BF91AF919F918F917F916F917E
:101270005F914F913F912F910F900FBE0F901F9054
:1012800018951F920F920FB60F9211242F933F9330
:101290004F935F936F937F938F939F93AF93BF937E
:1012A000EF93FF93E0916903F0916A03309709F09F
:1012B0000995FF91EF91BF91AF919F918F917F9190
:1012C0006F915F914F913F912F910F900FBE0F90B3
:1012D0001F9018951F920F920FB60F9211242F9303
:1012E0003F934F935F936F937F938F939F93AF93AE
:1012F000BF93EF93FF93E0918D03F0918E033097AE
:1013000009F00995FF91EF91BF91AF919F918F9156
:101310007F916F915F914F913F912F910F900FBEF1
:101320000F901F9018951F920F920FB60F921124D5
:101330002F933F934F935F936F937F938F939F93DD
:10134000AF93BF93EF93FF93E0918F03F0919003DE
:10135000309709F00995FF91EF91BF91AF919F915F
:101360008F917F916F915F914F913F912F910F904E
:101370000FBE0F901F9018951F920F920FB60F92ED
:1013800011242F933F934F935F936F937F938F938A
:101390009F93AF93BF93EF93FF93E0918B03F091F3
:1013A0008C03309709F00995FF91EF91BF91AF91B0
:1013B0009F918F917F916F915F914F913F912F916D
:1013C0000F900FBE0F901F9018951F920F920FB69F
:1013D0000F9211242F933F934F935F936F937F93BB
:1013E0008F939F93AF93BF93EF93FF93E0919303FA
:1013F000F0919403309709F00995FF91EF91BF9117
:10140000AF919F918F917F916F915F914F913F919C
:101410002F910F900FBE0F901F901895DC012C910B
:101420006150223039F4673068F4E62FF0E0EA5C6E
:10143000FE4F06C0693030F4E62FF0E0E35CFE4F6B
:10144000208101C020E0DC011A96ED91FC911B97F0
:101450008081887F822B80830895CF93DF93EC0176
:101460006883613011F120F0623009F06CC048C02F
:101470001B821A8286E490E09D838C838EE690E046
:101480009F838E8384E490E09987888785E490E049
:101490009B878A871D861C8687E490E09F878E87BE
:1014A000198A188A88E490E022C08FE690E09F8332
:1014B0008E8385E890E09B838A8384E890E09D8317
:1014C0008C8380E890E09987888781E890E09B870B
:1014D0008A8789E890E09D878C8788E890E09F87DD
:1014E0008E878BE890E0998B888B8AE890E09B8BC5
:1014F0008A8B1D8A1C8A1F8A1E8A82E0898323C0E8
:101500001B821A8282EB90E09D838C8380E790E0BF
:101510009F838E8380EB90E09987888781EB90E0B2
:101520009B878A871D861C8683EB90E09F878E872A
:10153000198A188A84EB90E09B8B8A8B1D8A1C8AFF
:101540001F8A1E8A698360E0CE010E940E0AEA812A
:10155000FB81309709F01082EC81FD811082198E99
:10156000188E1B8E1A8E1D8E1C8E1F8E1E8E19A21B
:1015700018A2DF91CF91089551E0411101C050E0D0
:101580006530F0F4E62FF0E0EA5BFE4F408147FD66
:1015900017C0DC011696ED91FC911797808121E030
:1015A00030E0042E01C0220F0A94EAF72095282388
:1015B000852F042E01C0880F0A94EAF7282B208378
:1015C0000895623099F028F4662341F06130C9F43F
:1015D00009C0633079F06430A1F410C0FC01518F70
:1015E000408F0FC0FC01538F428F0BC0FC01558F01
:1015F000448F07C0FC01578F468F03C0FC0151A3E5
:1016000040A3452B11F440E003C0222319F041E030
:101610000C94BC0A0895DC011896ED91FC91199781
:101620003081262F23703C7F232B20831A96ED9147
:10163000FC911B9780816C70660F877E682B60839E
:10164000089560E085E993E00E942D0A61E083E758
:1016500093E00E942D0A62E081E593E00C942D0A4C
:10166000DB018F939F930E947E0BBF91AF91A29F4E
:10167000800D911DA39F900DB29F900D1124089590
:10168000A1E21A2EAA1BBB1BFD010DC0AA1FBB1F86
:10169000EE1FFF1FA217B307E407F50720F0A21BF8
:1016A000B30BE40BF50B661F771F881F991F1A9465
:1016B00069F760957095809590959B01AC01BD018F
:1016C000CF010895052E97FB16F4009407D057FD1F
:1016D0000DD00E94400B07FC09D07EF490958095B8
:1016E000709561957F4F8F4F9F4F0895509540950E
:1016F000309521953F4F4F4F5F4F08950E948F0BBC
:10170000A59F900DB49F900DA49F800D911D112455
:101710000895EE0FFF1F0590F491E02D0994A29F0C
:10172000B001B39FC001A39F01D0B29F700D811D76
:0A1730001124911D0895F894FFCFD5
:10173A000000B703200001000000000000009F0223
:10174A009B0200000000E804CE079A049F04C50427
:10175A00B30400000000C004400546050000000074
:10176A00BB0434053A050102030405060701020019
:0C177A000300040506070001020305003F
:00000001FF
