:100000000C9442000C946A000C946A000C946A00F0
:100010000C946A000C946A000C946A000C946A00B8
:100020000C946A000C943E080C9467080C94900899
:100030000C9434090C94B9080C94E2080C940B0944
:100040000C94C3070C94EC070C9415080C946A00EC
:100050000C943E070C94F1040C946A000C946A0012
:100060000C946A000C946A000C946A000C946A0068
:100070000C9413070C943F050C946A00BA01830397
:100080006907700A11241FBECFEFD0E1DEBFCDBFDC
:1000900011E0A0E0B1E0EAE8F5E102C005900D92C0
:1000A000AA34B107D9F713E0AAE4B1E001C01D9268
:1000B000AB32B107E1F710E0C4E8D0E004C022970A
:1000C000FE010E94BF0ACC37D107C9F70E9438044D
:1000D0000C94C30A0C9400000F931F93CF93DF93EB
:1000E000CDB7DEB728970FB6F894DEBF0FBECDBFF1
:1000F00009831A832B833C834D835E836F837887C8
:10010000FC011082118212821382148215821682DF
:10011000178228E0FE013196DC0101900D922A95AC
:10012000E1F7FC011086118628960FB6F894DEBF21
:100130000FBECDBFDF91CF911F910F910895FC01AC
:1001400060870895FC0180850895FC0181E0208589
:100150009185291301C080E00895CF93DF93CDB737
:10016000DEB728970FB6F894DEBF0FBECDBF28E0EC
:10017000FC01DE01119601900D922A95E1F729818B
:100180003A814B815C816D817E818F819885289633
:100190000FB6F894DEBF0FBECDBFDF91CF910895AB
:1001A000EF920F93E12C01E028E040E051EE60E097
:1001B00070E089E692E00E94110628E040E051EEEE
:1001C00060E070E08DE092E00E9411066DE072E068
:1001D0008EE791E00F91EF900C94A6020F93CF93CE
:1001E000DF93CDB7DEB76C970FB6F894DEBF0FBEC6
:1001F000CDBF2D8B3E8B4F8B588F698F7A8F8B8F16
:100200009C8FCE0101960E94CF02BE016B5E7F4F94
:10021000CE0101960E94EA0260E0CE0101960E94A2
:10022000C50261E0CE0101960E94F3020C8BBE0173
:100230006C5E7F4FCE0101960E94C80261E0CE0144
:1002400001960E94CC02BE016F5F7F4F8EE791E066
:100250000E9413036C960FB6F894DEBF0FBECDBF9D
:10026000DF91CF910F910895BF92CF92DF92EF92DD
:10027000FF920F931F93CF93DF93CDB7DEB76097B5
:100280000FB6F894DEBF0FBECDBF85E00E949F037E
:100290009C0197FF02C02D5F3F4F359527953595FF
:1002A000279530934B0120934A0100E010E05AE07B
:1002B000F52EF09EC001F19E900D112460914A012F
:1002C000845B9E4F0E949F000F5F1F4F05301105FA
:1002D00081F7E12CF12C8AE0D82E98E0C92EDE9C23
:1002E0008001DF9C100D1124045B1E4FC8010E9489
:1002F000A500882319F1C8010E94A200B82EC801E8
:100300000E94AD0029873A874B875C876D877E877F
:100310008F87988BFE013996DE0111968C2D019006
:100320000D928A95E1F70B2D29813A814B815C81F1
:100330006D817E818F8198850E94EE008FEFE81A93
:10034000F80A85E0E816F10451F662E370E080E017
:1003500090E060960FB6F894DEBF0FBECDBFDF9180
:10036000CF911F910F91FF90EF90DF90CF90BF90B2
:100370000C941604CF92DF92EF92FF920F931F938B
:10038000CF93DF93CDB7DEB728970FB6F894DEBFD3
:100390000FBECDBF8EE791E00E949402C12C62EAAD
:1003A000D62E63E1E62EF12C0C2DC982DA82EB8287
:1003B000FC8283E19CE6A6EEB0E4482F8D839E8309
:1003C000AF83B8871A812B813C815E816F817885EC
:1003D0008CE491E00E946C00C982DA82EB82FC829C
:1003E00087ED9DE6A6EEB0E4482F8D839E83AF8314
:1003F000B8871A812B813C815E816F81788586E583
:1004000091E00E946C00C982DA82EB82FC8289E46E
:100410009CE6A6EEB0E4482F8D839E83AF83B88719
:100420001A812B813C815E816F81788580E691E025
:100430000E946C00C982DA82EB82FC8288E19CE631
:10044000A6EEB0E4482F8D839E83AF83B8871A81D0
:100450002B813C815E816F8178858AE691E00E94E4
:100460006C00C982DA82EB82FC828FE29CE6A6EE07
:10047000B0E4482F8D839E83AF83B8871A812B8188
:100480003C815E816F81788584E791E00E946C00F9
:1004900028960FB6F894DEBF0FBECDBFDF91CF9187
:1004A0001F910F91FF90EF90DF90CF900895FC0186
:1004B0008681845F0895FC01611102C082850895E0
:1004C000613011F481850895623011F480850895BA
:1004D000633011F487810895643011F4868508959E
:1004E000653011F485850895663011F4848508958A
:1004F000673011F483850895683011F48089089578
:10050000693011F4878508956A3011F4818908955E
:100510006B3011F4828908950480F581E02DE60F97
:10052000F11D3C9780810895FC0112861186148686
:1005300015861782108615820E9691838083E45863
:10054000FF4F89E692E091838083089584589F4FFE
:10055000FC0171836083089584589F4FDC018D9165
:100560009C91DC01ED91FC910284F385E02D0994CE
:1005700084589F4FFC01A081B181ED91FC911197AE
:100580000190F081E02DCD010994FC016383089571
:10059000FC01758364830895FC0166830895FC0162
:1005A00080E1828381E083831582148216828CE04D
:1005B00091E09183808317821086118612861386BC
:1005C0001486158616868EEF9FEF908B8787118A8B
:1005D000128A089528E0FB01DC01179601900D9224
:1005E0002A95E1F70895FC01628B08951F93CF933C
:1005F000DF93EC01162F442379F0862F8D5782303C
:1006000020F0613111F0633139F46DE7CE010E94C1
:10061000B80260E2612701C0612FCE01DF91CF9166
:100620001F910C94B802DF92EF92FF920F931F93E9
:10063000CF93DF938C01EB016EE70E94B802E88153
:10064000F9810280F381E02DCE010995E82EE88141
:10065000F9810280F381E02DCE010995F82E2E2D2F
:1006600030E02E5F3F4F41E0632FC8010E94F60249
:100670006F2D6E5F41E0C8010E94F60241E06A8181
:10068000C8010E94F60241E06B81C8010E94F60297
:10069000DA808B81D80EE12CF12C19C0E881F98128
:1006A0000190F081E02D6E2DCE01099541E0682F7B
:1006B000C8010E94F602E881F9810190F081E02DE5
:1006C0006E2DCE010995D80E8FEFE81AF80AE88151
:1006D000F9810280F381E02DCE010995282F30E0C9
:1006E000E216F306DCF26D2D609541E0C8010E9430
:1006F000F602C801DF91CF911F910F91FF90EF900B
:10070000DF900C94AC021092FC011092FD0110924B
:10071000FE011092FF018FEF9FEFA0E0B0E0809309
:10072000000290930102A0930202B0930302089585
:1007300080E480937C0087E880937A000895CF93CB
:10074000DF931F92CDB7DEB790910601913031F45F
:1007500089830E94980310920601898187702091F5
:10076000070140E4249F90011124822B80937C0098
:1007700080917A00806480937A0080917A0086FD6F
:10078000FCCF2091780030917900932F80E0FC011C
:10079000E22B9F01C9010F90DF91CF9108958091C5
:1007A000050290910602A0910702B09108023091D3
:1007B0000402232F2D5F2D3720F40196A11DB11DBA
:1007C00005C0232F2A570296A11DB11D20930402B4
:1007D0008093050290930602A0930702B09308024B
:1007E0008091090290910A02A0910B02B0910C0233
:1007F0000196A11DB11D8093090290930A02A09356
:100800000B02B0930C0208950F931F938FB7F894C7
:100810000091050210910602209107023091080212
:100820008FBFB801C9011F910F9108958F929F92B8
:10083000AF92BF92CF92DF92EF92FF926B017C0159
:100840000E9404044B015C010E94040468197909A8
:100850008A099B096C157D058E059F05A8F3FF90FD
:10086000EF90DF90CF90BF90AF909F908F900895C2
:100870000E949B070E94D0000E943401FDCFFC0122
:1008800020893189C9010895DC0150962D913C9150
:100890005197232B49F05496ED91FC915597E80F11
:1008A000F91F268930E002C02FEF3FEFC9010895FC
:1008B000FC01118A108A158A148A138A128A0895F3
:1008C000FC0124813581C9010895FC012481358111
:1008D000C9010895FC0180899189892BD1F03FB726
:1008E000F894808991890197918B808B848995896F
:1008F000DF01A80FB91F56962C9101968032910501
:100900001CF4958B848B02C0158A148A3FBF30E09B
:1009100002C02FEF3FEFC9010895EF92FF921F939E
:10092000CF93DF931F92CDB7DEB77C01D701DA9664
:100930008D919C91DB974097C8F71FB7F894D69696
:10094000ED91FC91D7970190F081E02DC701C696FB
:100950006983099569814097C8F4F70182AD93AD29
:10096000019693AF82AF84AD95ADE80FF91FE05CBF
:10097000FF4F60830196D701DD969C938E93DC97A1
:10098000409724F0DD961C921E92DC97F701EA5AFC
:10099000FF4F0190F081E02D8081806280831FBF36
:1009A00081E090E00F90DF91CF911F91FF90EF9049
:1009B0000895665F7F4F680F791FCB010895665FCA
:1009C0007F4F680F791FCB010895665F7F4F680FD7
:1009D000791FCB010895665F7F4F680F791FCB01A8
:1009E00008951F920F920FB60F9211242F938F9399
:1009F0009F93AF93BF93EF93FF938091A302909146
:100A0000A402892B21F1E091C302F091C4028091EC
:100A1000A3029091A40201979093A4028093A30251
:100A20008091A7029091A802DC01A156BD4F1A96B1
:100A30002C910196803191052CF49093A80280931B
:100A4000A70204C01092A8021092A70220838091EE
:100A5000A3029091A402892B31F4E091BF02F0919E
:100A6000C00288E98083FF91EF91BF91AF919F9180
:100A70008F912F910F900FBE0F901F9018951F927E
:100A80000F920FB60F9211242F938F939F93AF93D2
:100A9000BF93EF93FF938091470290914802892B77
:100AA00021F1E0916702F0916802809147029091F4
:100AB00048020197909348028093470280914B022D
:100AC00090914C02DC01AD5BBD4F1A962C910196C2
:100AD000803191052CF490934C0280934B0204C01A
:100AE00010924C0210924B02208380914702909109
:100AF0004802892B31F4E0916302F091640288E9A5
:100B00008083FF91EF91BF91AF919F918F912F9132
:100B10000F900FBE0F901F901895FC01262F138287
:100B2000128248EE53E060E070E0448355836683B0
:100B3000778384E191E09183808384E291E09587DB
:100B4000848780E290E097878687118A108A158AC9
:100B5000148A138A128A8EE291E097AB86AB80E109
:100B600090E091AF80AF13AE12AE17AE16AE15AED9
:100B700014AE222321F0213009F052C028C0DF0139
:100B8000A05BBF4F85EC90E08D939C93DF01AE5A44
:100B9000BF4F84EC90E08D939C93DF01AC5ABF4F24
:100BA00080EC90E08D939C93DF01AA5ABF4F81ECBB
:100BB00090E08D939C93DF01A85ABF4F82EC90E0A8
:100BC0008D939C93E65AFF4F86EC90E027C0DF019F
:100BD000A05BBF4F8DEC90E08D939C93DF01AE5AEC
:100BE000BF4F8CEC90E08D939C93DF01AC5ABF4FCC
:100BF00088EC90E08D939C93DF01AA5ABF4F89EC5B
:100C000090E08D939C93DF01A85ABF4F8AEC90E04F
:100C10008D939C93E65AFF4F8EEC90E091838083F6
:100C200008953F924F925F926F927F928F929F9220
:100C3000AF92BF92CF92DF92EF92FF920F931F93EA
:100C4000CF93DF93EC014A015B01122F3E2C60E051
:100C500072E18AE790E0A50194010E947F0A690190
:100C60007A0184E0C80ED11CE11CF11C83E0F694EB
:100C7000E794D794C7948A95D1F760E074E284EF43
:100C800090E0A50194010E947F0A29013A0194E0B5
:100C9000490E511C611C711C93E076946794579423
:100CA00047949A95D1F7A30192014427552760E80C
:100CB00074E88EE190E00E94A10A5901A818B908D1
:100CC000B7FE03C0B194A194B108A70196014427CF
:100CD000552760E472E48FE090E00E94A10A281991
:100CE000390937FF03C0319521953109FE01EC5ACE
:100CF000FF4F0190F081E02DA216B3063CF482E094
:100D00008083620181E0C81AD10804C0108291E09A
:100D1000C91AD1081630C1F018F4153099F405C07D
:100D2000173029F0193071F404C080E00EC084E05F
:100D30000CC0FE01EA5AFF4F0190F081E02D808146
:100D40008460808386E001C082E0023009F488601C
:100D500091E0391621F092E0391204C002C080639C
:100D600001C08062FE01E85AFF4F0190F081E02D42
:100D70008083FE01E05BFF4F0190F081E02DD08287
:100D8000FE01EE5AFF4F0190F081E02DC082CA5A59
:100D9000DF4FE881F98188E98083DF91CF911F914E
:100DA0000F91FF90EF90DF90CF90BF90AF909F900A
:100DB0008F907F906F905F904F903F9008950F932A
:100DC0001F93CF93DF931F92CDB7DEB78C01DC0169
:100DD000ED91FC910190F081E02D69830995698185
:100DE0008097D0F4F801848195810196958384835E
:100DF00086819781E80FF91F6287019680329105FD
:100E000034F4D80117969C938E93169703C0F8017B
:100E10001782168281E001C080E00F90DF91CF91B0
:100E20001F910F9108951F920F920FB60F921124E8
:100E30002F933F934F935F936F937F938F939F93E2
:100E4000AF93BF93EF93FF93E0916702F091680235
:100E5000608189E192E00E94DF06FF91EF91BF91EE
:100E6000AF919F918F917F916F915F914F913F9142
:100E70002F910F900FBE0F901F9018951F920F92F9
:100E80000FB60F9211242F933F934F935F936F935D
:100E90007F938F939F93AF93BF93EF93FF93E091D3
:100EA000C302F091C402608185E792E00E94DF06F0
:100EB000FF91EF91BF91AF919F918F917F916F9132
:100EC0005F914F913F912F910F900FBE0F901F9008
:100ED000189560E089E692E00E948D0561E08DE062
:100EE00092E00C948D05CF92DF92EF92FF920F93D8
:100EF0001F93CF93DF936C01EB017A01E60EF71E8F
:100F000000E010E00BC06991D601ED91FC910190D9
:100F1000F081E02DC6010995080F191FCE15DF05D8
:100F200091F7C801DF91CF911F910F91FF90EF9042
:100F3000DF90CF90089563E089E093E00E945A0A21
:100F400021E04FEC53E060E089E093E00E94300A3A
:100F500064E089E093E00E945D0961E087EE92E041
:100F60000E945A0A64E087EE92E00E945D0961E007
:100F700085EC92E00E945A0A64E085EC92E00E94BF
:100F80005D09789408951F920F920FB60F92112465
:100F90002F933F934F935F936F937F938F939F9381
:100FA000AF93BF93EF93FF93E0912303F09124035A
:100FB000309709F00995FF91EF91BF91AF919F9103
:100FC0008F917F916F915F914F913F912F910F90F2
:100FD0000FBE0F901F9018951F920F920FB60F9291
:100FE00011242F933F934F935F936F937F938F932E
:100FF0009F93AF93BF93EF93FF93E0912503F091FD
:101000002603309709F00995FF91EF91BF91AF91B9
:101010009F918F917F916F915F914F913F912F9110
:101020000F900FBE0F901F9018951F920F920FB642
:101030000F9211242F933F934F935F936F937F935E
:101040008F939F93AF93BF93EF93FF93E09121030F
:10105000F0912203309709F00995FF91EF91BF912C
:10106000AF919F918F917F916F915F914F913F9140
:101070002F910F900FBE0F901F9018951F920F92F7
:101080000FB60F9211242F933F934F935F936F935B
:101090007F938F939F93AF93BF93EF93FF93E091D1
:1010A000DF02F091E002309709F00995FF91EF918E
:1010B000BF91AF919F918F917F916F915F914F9170
:1010C0003F912F910F900FBE0F901F9018951F9278
:1010D0000F920FB60F9211242F933F934F935F936C
:1010E0006F937F938F939F93AF93BF93EF93FF93F0
:1010F000E091E102F091E202309709F00995FF9149
:10110000EF91BF91AF919F918F917F916F915F917F
:101110004F913F912F910F900FBE0F901F901895F8
:101120001F920F920FB60F9211242F933F934F935C
:101130005F936F937F938F939F93AF93BF93EF933F
:10114000FF93E091DD02F091DE02309709F00995FE
:10115000FF91EF91BF91AF919F918F917F916F918F
:101160005F914F913F912F910F900FBE0F901F9065
:1011700018951F920F920FB60F9211242F933F9341
:101180004F935F936F937F938F939F93AF93BF938F
:10119000EF93FF93E0910103F0910203309709F080
:1011A0000995FF91EF91BF91AF919F918F917F91A1
:1011B0006F915F914F913F912F910F900FBE0F90C4
:1011C0001F9018951F920F920FB60F9211242F9314
:1011D0003F934F935F936F937F938F939F93AF93BF
:1011E000BF93EF93FF93E0910303F09104033097D3
:1011F00009F00995FF91EF91BF91AF919F918F9168
:101200007F916F915F914F913F912F910F900FBE02
:101210000F901F9018951F920F920FB60F921124E6
:101220002F933F934F935F936F937F938F939F93EE
:10123000AF93BF93EF93FF93E091FF02F091000310
:10124000309709F00995FF91EF91BF91AF919F9170
:101250008F917F916F915F914F913F912F910F905F
:101260000FBE0F901F9018951F920F920FB60F92FE
:1012700011242F933F934F935F936F937F938F939B
:101280009F93AF93BF93EF93FF93E0910703F09188
:101290000803309709F00995FF91EF91BF91AF9145
:1012A0009F918F917F916F915F914F913F912F917E
:1012B0000F900FBE0F901F901895DC012C9161507C
:1012C000223039F4673068F4E62FF0E0EC5CFE4F32
:1012D00006C0693030F4E62FF0E0E55CFE4F208177
:1012E00001C020E0DC011A96ED91FC911B978081F2
:1012F000887F822B80830895CF93DF93EC016883EE
:10130000613011F120F0623009F06CC048C01B82DE
:101310001A8286E490E09D838C838EE690E09F8322
:101320008E8384E490E09987888785E490E09B87AA
:101330008A871D861C8687E490E09F878E87198A9E
:10134000188A88E490E022C08FE690E09F838E8325
:1013500085E890E09B838A8384E890E09D838C837A
:1013600080E890E09987888781E890E09B878A876A
:1013700089E890E09D878C8788E890E09F878E873A
:101380008BE890E0998B888B8AE890E09B8B8A8B26
:101390001D8A1C8A1F8A1E8A82E0898323C01B82C1
:1013A0001A8282EB90E09D838C8380E790E09F839C
:1013B0008E8380EB90E09987888781EB90E09B8714
:1013C0008A871D861C8683EB90E09F878E87198A0B
:1013D000188A84EB90E09B8B8A8B1D8A1C8A1F8A5B
:1013E0001E8A698360E0CE010E945D09EA81FB816B
:1013F000309709F01082EC81FD811082198E188ED1
:101400001B8E1A8E1D8E1C8E1F8E1E8E19A218A268
:10141000DF91CF91089551E0411101C050E0653056
:10142000F0F4E62FF0E0EC5BFE4F408147FD17C083
:10143000DC011696ED91FC911797808121E030E058
:10144000042E01C0220F0A94EAF720952823852F45
:10145000042E01C0880F0A94EAF7282B20830895F0
:10146000623099F028F4662341F06130C9F409C074
:10147000633079F06430A1F410C0FC01518F408FCB
:101480000FC0FC01538F428F0BC0FC01558F448F5E
:1014900007C0FC01578F468F03C0FC0151A340A336
:1014A000452B11F440E003C0222319F041E00C94D5
:1014B0000B0A0895DC011896ED91FC911997308183
:1014C000262F23703C7F232B20831A96ED91FC91CD
:1014D0001B9780816C70660F877E682B60830895F0
:1014E00060E089E093E00E947C0961E087EE92E091
:1014F0000E947C0962E085EC92E00C947C09A1E2F8
:101500001A2EAA1BBB1BFD010DC0AA1FBB1FEE1F7D
:10151000FF1FA217B307E407F50720F0A21BB30BC8
:10152000E40BF50B661F771F881F991F1A9469F744
:1015300060957095809590959B01AC01BD01CF01A0
:101540000895052E97FB16F4009407D057FD0DD093
:101550000E947F0A07FC09D07EF4909580957095D3
:1015600061957F4F8F4F9F4F0895509540953095CF
:1015700021953F4F4F4F5F4F0895EE0FFF1F05908E
:0A158000F491E02D0994F894FFCFD8
:10158A0000002B0320000101000000005B0257024B
:10159A00000000008D0473073F0444046A045804E1
:1015AA00000000006504E504EB040000000060048C
:1015BA00D904DF040102030405060701020003003F
:0A15CA0004050607000102030500F6
:00000001FF
