:100000000C9442000C946A000C946A000C946A00F0
:100010000C946A000C946A000C946A000C946A00B8
:100020000C946A000C94F1080C941A090C9443097E
:100030000C94E7090C946C090C9495090C94BE0976
:100040000C9476080C949F080C94C8080C946A00D1
:100050000C940D070C94C0040C946A000C946A0074
:100060000C946A000C946A000C946A000C946A0068
:100070000C94E2060C940E050C946A007A01240399
:100080003807230B11241FBECFEFD0E1DEBFCDBF59
:1000900011E0A0E0B1E0E0EFF6E102C005900D92C2
:1000A000A035B107D9F713E0A0E5B1E001C01D927A
:1000B000A133B107E1F710E0C4E8D0E004C0229713
:1000C000FE010E94720BCC37D107C9F70E940704CA
:1000D0000C94760B0C940000EF920F9361E08091EA
:1000E00008010E94D90361E0809106010E94D903B2
:1000F000E12C01E028E040E051EE60E070E08FE6A6
:1001000092E00E94E00528E040E051EE60E070E0FF
:1001100083E192E00E94E00563E172E084E891E00F
:100120000F91EF900C944A02CF93DF93CDB7DEB7D7
:100130006C970FB6F894DEBF0FBECDBF2D8B3E8BF4
:100140004F8B588F698F7A8F8B8F9C8FCE01019642
:100150000E947302BE016B5E7F4FCE0101960E942A
:100160008E02809152018C8BBE016C5E7F4FCE015E
:1001700001960E946C0261E0CE0101960E9470021D
:1001800060E0CE0101960E946902BE016F5F7F4F61
:1001900084E891E00E94B4026C960FB6F894DEBF3A
:1001A0000FBECDBFDF91CF91089580915201909104
:1001B0005301909351018093500185E00E944003C8
:1001C000BC0197FF02C06D5F7F4F75956795759570
:1001D0006795709353016093520180915001909103
:1001E0005101681B790B77FF03C071956195710907
:1001F0004AE050E08FE692E00E9446086CE071E031
:100200008FE692E00E9487078FE692E00E948907BE
:1002100080915201909153012091500130915101F0
:10022000821B930B97FF03C09195819591090397CA
:100230000CF45AC020917C0130917D0140917E01E7
:1002400050917F01609180017091810180918201C4
:10025000909183010E949400209174013091750166
:100260004091760150917701609178017091790108
:1002700080917A0190917B010E94940020916C0101
:1002800030916D0140916E0150916F01609170014C
:100290007091710180917201909173010E9494009C
:1002A0002091640130916501409166015091670190
:1002B000609168017091690180916A0190916B0170
:1002C0000E94940020915C0130915D0140915E019B
:1002D00050915F01609160017091610180916201B4
:1002E000909163010E94940062E370E080E090E0EE
:1002F0000C94B70384E891E00E94380280E092EA0F
:10030000A3E1B0E080937C0190937D01A0937E01F6
:10031000B0937F0143E15CE666EE70E440938001B8
:1003200050938101609382017093830180937401E3
:1003300090937501A0937601B093770147ED5DE648
:1003400066EE70E4409378015093790160937A01EE
:1003500070937B0180936C0190936D01A0936E016B
:10036000B0936F0149E45CE666EE70E4409370017F
:1003700050937101609372017093730180936401D3
:1003800090936501A0936601B093670148E15CE634
:1003900066EE70E4409368015093690160936A01CE
:1003A00070936B0180935C0190935D01A0935E015B
:1003B000B0935F018FE29CE6A6EEB0E4809360010B
:1003C00090936101A0936201B09363011092540174
:1003D0001092550110925601109257018FEF9FEF26
:1003E000A0E0B0E08093580190935901A0935A0186
:1003F000B0935B010895FC018681845F0895FC0140
:10040000611102C082850895613011F481850895DB
:10041000623011F480850895633011F48781089566
:10042000643011F486850895653011F4858508954A
:10043000663011F484850895673011F4838508953A
:10044000683011F480890895693011F48785089522
:100450006A3011F4818908956B3011F4828908950E
:100460000480F581E02DE60FF11D3C978081089511
:10047000FC01128611861486158617821086158255
:100480000E9691838083E458FF4F8FE692E091832C
:100490008083089584589F4FFC0171836083089581
:1004A00084589F4FDC018D919C91DC01ED91FC9172
:1004B0000284F385E02D099484589F4FFC01A081AC
:1004C000B181ED91FC9111970190F081E02DCD016A
:1004D0000994FC0163830895FC0175836483089586
:1004E000FC0166830895FC0180E1828381E08383BF
:1004F00015821482168282E191E0918380831782B3
:1005000010861186128613861486158616868EEF3F
:100510009FEF908B8787118A128A089528E0FB014C
:10052000DC01179601900D922A95E1F708951F932B
:10053000CF93DF93EC01162F442379F0862F8D574C
:10054000823020F0613111F0633139F46DE7CE0172
:100550000E945C0260E2612701C0612FCE01DF9141
:10056000CF911F910C945C02DF92EF92FF920F9358
:100570001F93CF93DF938C01EB016EE70E945C0227
:10058000E881F9810280F381E02DCE010995E82E02
:10059000E881F9810280F381E02DCE010995F82EE2
:1005A0002E2D30E02E5F3F4F41E0632FC8010E94A7
:1005B00097026F2D6E5F41E0C8010E94970241E0F3
:1005C0006A81C8010E94970241E06B81C8010E94C4
:1005D0009702DA808B81D80EE12CF12C19C0E881CA
:1005E000F9810190F081E02D6E2DCE01099541E059
:1005F000682FC8010E949702E881F9810190F0817B
:10060000E02D6E2DCE010995D80E8FEFE81AF80A6D
:10061000E881F9810280F381E02DCE010995282F30
:1006200030E0E216F306DCF26D2D609541E0C80182
:100630000E949702C801DF91CF911F910F91FF9007
:10064000EF90DF900C94500210920202109203027D
:1006500010920402109205028FEF9FEFA0E0B0E02D
:100660008093060290930702A0930802B0930902B8
:10067000089580E480937C0087E880937A00089551
:10068000CF93DF931F92CDB7DEB790910A019130DF
:1006900031F489830E94390310920A01898187709D
:1006A00020910B0140E4249F90011124822B809320
:1006B0007C0080917A00806480937A0080917A0037
:1006C00086FDFCCF2091780030917900932F80E057
:1006D000FC01E22B9F01C9010F90DF91CF9108959A
:1006E00080910B0290910C02A0910D02B0910E022C
:1006F00030910A02232F2D5F2D3720F40196A11D82
:10070000B11D05C0232F2A570296A11DB11D2093AC
:100710000A0280930B0290930C02A0930D02B093F7
:100720000E0280910F0290911002A0911102B091DF
:1007300012020196A11DB11D80930F029093100229
:10074000A0931102B093120208950F931F938FB7D5
:10075000F89400910B0210910C0220910D0230913F
:100760000E028FBFB801C9011F910F9108958F929A
:100770009F92AF92BF92CF92DF92EF92FF926B0166
:100780007C010E94A5034B015C010E94A50368192E
:1007900079098A099B096C157D058E059F05A8F3CB
:1007A000FF90EF90DF90CF90BF90AF909F908F9091
:1007B0000895982F977021E030E0092E01C0220F94
:1007C0000A94EAF786958695869581F0813089F0BE
:1007D000823091F08330D1F412C080812095822341
:1007E00002C08081822B80839FBF0895EAE2F0E0FF
:1007F00008C0E7E2F0E005C0E4E2F0E002C0E1E2B8
:10080000F0E09FB7F894662341F3EBCF08950E9480
:100810004E080E946C000E94D500FDCFFC0120898B
:100820003189C9010895DC0150962D913C91519771
:10083000232B49F05496ED91FC915597E80FF91F41
:10084000268930E002C02FEF3FEFC9010895FC0177
:10085000118A108A158A148A138A128A0895FC0153
:1008600024813581C9010895FC0124813581C901A4
:100870000895FC0180899189892BD1F03FB7F894C4
:10088000808991890197918B808B84899589DF017B
:10089000A80FB91F56962C910196803291051CF431
:1008A000958B848B02C0158A148A3FBF30E002C04A
:1008B0002FEF3FEFC9010895EF92FF921F93CF935F
:1008C000DF931F92CDB7DEB77C01D701DA968D9109
:1008D0009C91DB974097C8F71FB7F894D696ED9197
:1008E000FC91D7970190F081E02DC701C6966983EE
:1008F000099569814097C8F4F70182AD93AD0196DF
:1009000093AF82AF84AD95ADE80FF91FE05CFF4F68
:1009100060830196D701DD969C938E93DC97409778
:1009200024F0DD961C921E92DC97F701EA5AFF4FE5
:100930000190F081E02D8081806280831FBF81E083
:1009400090E00F90DF91CF911F91FF90EF9008956D
:10095000665F7F4F680F791FCB010895665F7F4FF9
:10096000680F791FCB010895665F7F4F680F791F6D
:10097000CB010895665F7F4F680F791FCB01089503
:100980001F920F920FB60F9211242F938F939F9364
:10099000AF93BF93EF93FF938091A9029091AA0226
:1009A000892B21F1E091C902F091CA028091A9023C
:1009B0009091AA0201979093AA028093A902809134
:1009C000AD029091AE02DC01AB55BD4F1A962C9151
:1009D0000196803191052CF49093AE028093AD0284
:1009E00004C01092AE021092AD0220838091A90241
:1009F0009091AA02892B31F4E091C502F091C602D0
:100A000088E98083FF91EF91BF91AF919F918F9182
:100A10002F910F900FBE0F901F9018951F920F925D
:100A20000FB60F9211242F938F939F93AF93BF9381
:100A3000EF93FF9380914D0290914E02892B21F10B
:100A4000E0916D02F0916E0280914D0290914E0204
:100A5000019790934E0280934D02809151029091A4
:100A60005202DC01A75BBD4F1A962C910196803192
:100A700091052CF4909352028093510204C010927D
:100A8000520210925102208380914D0290914E02A9
:100A9000892B31F4E0916902F0916A0288E9808340
:100AA000FF91EF91BF91AF919F918F912F910F90F7
:100AB0000FBE0F901F901895FC01262F13821282F3
:100AC00048EE53E060E070E04483558366837783AB
:100AD0008AE191E0918380838AE291E0958784871F
:100AE00080E290E097878687118A108A158A148A97
:100AF000138A128A84E391E097AB86AB80E190E0A1
:100B000091AF80AF13AE12AE17AE16AE15AE14AEE7
:100B1000222321F0213009F052C028C0DF01A05B60
:100B2000BF4F85EC90E08D939C93DF01AE5ABF4F91
:100B300084EC90E08D939C93DF01AC5ABF4F80EC26
:100B400090E08D939C93DF01AA5ABF4F81EC90E017
:100B50008D939C93DF01A85ABF4F82EC90E08D9358
:100B60009C93E65AFF4F86EC90E027C0DF01A05B24
:100B7000BF4F8DEC90E08D939C93DF01AE5ABF4F39
:100B80008CEC90E08D939C93DF01AC5ABF4F88ECC6
:100B900090E08D939C93DF01AA5ABF4F89EC90E0BF
:100BA0008D939C93DF01A85ABF4F8AEC90E08D9300
:100BB0009C93E65AFF4F8EEC90E0918380830895DA
:100BC0003F924F925F926F927F928F929F92AF92DD
:100BD000BF92CF92DF92EF92FF920F931F93CF932A
:100BE000DF93EC014A015B01122F3E2C60E072E1C1
:100BF0008AE790E0A50194010E94320B69017A0115
:100C000084E0C80ED11CE11CF11C83E0F694E7944B
:100C1000D794C7948A95D1F760E074E284EF90E0AE
:100C2000A50194010E94320B29013A0194E0490E7A
:100C3000511C611C711C93E07694679457944794FF
:100C40009A95D1F7A30192014427552760E874E8EB
:100C50008EE190E00E94540B5901A818B908B7FE24
:100C600003C0B194A194B108A70196014427552768
:100C700060E472E48FE090E00E94540B2819390977
:100C800037FF03C0319521953109FE01EC5AFF4F22
:100C90000190F081E02DA216B3063CF482E080833F
:100CA000620181E0C81AD10804C0108291E0C91A1B
:100CB000D1081630C1F018F4153099F405C017307A
:100CC00029F0193071F404C080E00EC084E00CC03B
:100CD000FE01EA5AFF4F0190F081E02D808184608F
:100CE000808386E001C082E0023009F4886091E0F0
:100CF000391621F092E0391204C002C0806301C0AD
:100D00008062FE01E85AFF4F0190F081E02D808360
:100D1000FE01E05BFF4F0190F081E02DD082FE01EB
:100D2000EE5AFF4F0190F081E02DC082CA5ADF4F8A
:100D3000E881F98188E98083DF91CF911F910F913C
:100D4000FF90EF90DF90CF90BF90AF909F908F90EB
:100D50007F906F905F904F903F9008950F931F93F7
:100D6000CF93DF931F92CDB7DEB78C01DC01ED91FD
:100D7000FC910190F081E02D69830995698180974C
:100D8000D0F4F801848195810196958384838681CE
:100D90009781E80FF91F628701968032910534F43C
:100DA000D80117969C938E93169703C0F80117826B
:100DB000168281E001C080E00F90DF91CF911F91FA
:100DC0000F9108951F920F920FB60F9211242F9337
:100DD0003F934F935F936F937F938F939F93AF93C3
:100DE000BF93EF93FF93E0916D02F0916E026081EB
:100DF0008FE192E00E94AE06FF91EF91BF91AF911B
:100E00009F918F917F916F915F914F913F912F9122
:100E10000F900FBE0F901F9018951F920F920FB654
:100E20000F9211242F933F934F935F936F937F9370
:100E30008F939F93AF93BF93EF93FF93E091C9027A
:100E4000F091CA0260818BE792E00E94AE06FF91AA
:100E5000EF91BF91AF919F918F917F916F915F9132
:100E60004F913F912F910F900FBE0F901F901895AB
:100E700060E08FE692E00E945C0561E083E192E031
:100E80000C945C05CF92DF92EF92FF920F931F9329
:100E9000CF93DF936C01EB017A01E60EF71E00E0C1
:100EA00010E00BC06991D601ED91FC910190F081A9
:100EB000E02DC6010995080F191FCE15DF0591F722
:100EC000C801DF91CF911F910F91FF90EF90DF90BC
:100ED000CF9008956115710581F0DB010D90002020
:100EE000E9F7AD0141505109461B570BDC01ED916B
:100EF000FC910280F381E02D099480E090E0089558
:100F0000DC01ED91FC910190F081E02D09940C94AD
:100F10006A070F931F93CF93DF93EC016DE00E945C
:100F200080078C016AE0CE010E9480079C01200F9F
:100F3000311FC901DF91CF911F910F9108954F92F9
:100F40005F926F927F929F92AF92BF92CF92DF9209
:100F5000EF92FF920F931F93CF93DF93CDB7DEB73E
:100F6000A1970FB6F894DEBF0FBECDBF5C016A013A
:100F70007B01922E19A281E0821710F08AE0982E50
:100F80008E010F5D1F4F492C512C612C712CC70114
:100F9000B601A30192010E94320B8C2D929E801902
:100FA0001124015011098A3014F4805D01C0895C5C
:100FB000F801808369017A01C114D104E104F104CC
:100FC00031F7B801C5010E946A07A1960FB6F894DF
:100FD000DEBF0FBECDBFDF91CF911F910F91FF906C
:100FE000EF90DF90CF90BF90AF909F907F906F90E9
:100FF0005F904F900895CF92DF92EF92FF920F9300
:101000001F93CF93DF93EC016A017B01211531051A
:1010100079F4E881F9810190F081E02D642FDF916E
:10102000CF911F910F91FF90EF90DF90CF90099497
:101030002A30310519F477FD0EC02AE0B701A60168
:10104000CE01DF91CF911F910F91FF90EF90DF9034
:10105000CF900C949F076DE20E9480078C0144277B
:101060005527BA014C195D096E097F092AE0CE01A6
:101070000E949F07080F191FC801DF91CF911F9190
:101080000F91FF90EF90DF90CF9008959A01AB0100
:10109000662757FD6095762F0C94FB0763E08FE081
:1010A00093E00E940D0B21E040E753E060E08FE009
:1010B00093E00E94E30A64E08FE093E00E94100A4C
:1010C00061E08DEE92E00E940D0B64E08DEE92E007
:1010D0000E94100A61E08BEC92E00E940D0B64E02C
:1010E0008BEC92E00E94100A789408951F920F9260
:1010F0000FB60F9211242F933F934F935F936F93EB
:101100007F938F939F93AF93BF93EF93FF93E09160
:101110002903F0912A03309709F00995FF91EF9187
:10112000BF91AF919F918F917F916F915F914F91FF
:101130003F912F910F900FBE0F901F9018951F9207
:101140000F920FB60F9211242F933F934F935F93FB
:101150006F937F938F939F93AF93BF93EF93FF937F
:10116000E0912B03F0912C03309709F00995FF9142
:10117000EF91BF91AF919F918F917F916F915F910F
:101180004F913F912F910F900FBE0F901F90189588
:101190001F920F920FB60F9211242F933F934F93EC
:1011A0005F936F937F938F939F93AF93BF93EF93CF
:1011B000FF93E0912703F0912803309709F00995F8
:1011C000FF91EF91BF91AF919F918F917F916F911F
:1011D0005F914F913F912F910F900FBE0F901F90F5
:1011E00018951F920F920FB60F9211242F933F93D1
:1011F0004F935F936F937F938F939F93AF93BF931F
:10120000EF93FF93E091E502F091E602309709F049
:101210000995FF91EF91BF91AF919F918F917F9130
:101220006F915F914F913F912F910F900FBE0F9053
:101230001F9018951F920F920FB60F9211242F93A3
:101240003F934F935F936F937F938F939F93AF934E
:10125000BF93EF93FF93E091E702F091E80230979C
:1012600009F00995FF91EF91BF91AF919F918F91F7
:101270007F916F915F914F913F912F910F900FBE92
:101280000F901F9018951F920F920FB60F92112476
:101290002F933F934F935F936F937F938F939F937E
:1012A000AF93BF93EF93FF93E091E302F091E402D9
:1012B000309709F00995FF91EF91BF91AF919F9100
:1012C0008F917F916F915F914F913F912F910F90EF
:1012D0000FBE0F901F9018951F920F920FB60F928E
:1012E00011242F933F934F935F936F937F938F932B
:1012F0009F93AF93BF93EF93FF93E0910703F09118
:101300000803309709F00995FF91EF91BF91AF91D4
:101310009F918F917F916F915F914F913F912F910D
:101320000F900FBE0F901F9018951F920F920FB63F
:101330000F9211242F933F934F935F936F937F935B
:101340008F939F93AF93BF93EF93FF93E091090324
:10135000F0910A03309709F00995FF91EF91BF9141
:10136000AF919F918F917F916F915F914F913F913D
:101370002F910F900FBE0F901F9018951F920F92F4
:101380000FB60F9211242F933F934F935F936F9358
:101390007F938F939F93AF93BF93EF93FF93E091CE
:1013A0000503F0910603309709F00995FF91EF913D
:1013B000BF91AF919F918F917F916F915F914F916D
:1013C0003F912F910F900FBE0F901F9018951F9275
:1013D0000F920FB60F9211242F933F934F935F9369
:1013E0006F937F938F939F93AF93BF93EF93FF93ED
:1013F000E0910D03F0910E03309709F00995FF91EC
:10140000EF91BF91AF919F918F917F916F915F917C
:101410004F913F912F910F900FBE0F901F901895F5
:10142000DC012C916150223039F4673068F4E62FEA
:10143000F0E0E65CFE4F06C0693030F4E62FF0E0E5
:10144000EF5BFE4F208101C020E0DC011A96ED9198
:10145000FC911B978081887F822B80830895CF9396
:10146000DF93EC016883613011F120F0623009F004
:101470006CC048C01B821A8286E490E09D838C83F6
:101480008EE690E09F838E8384E490E0998788873E
:1014900085E490E09B878A871D861C8687E490E020
:1014A0009F878E87198A188A88E490E022C08FE689
:1014B00090E09F838E8385E890E09B838A8384E815
:1014C00090E09D838C8380E890E09987888781E80D
:1014D00090E09B878A8789E890E09D878C8788E8E1
:1014E00090E09F878E878BE890E0998B888B8AE8C5
:1014F00090E09B8B8A8B1D8A1C8A1F8A1E8A82E041
:10150000898323C01B821A8282EB90E09D838C83A7
:1015100080E790E09F838E8380EB90E099878887B7
:1015200081EB90E09B878A871D861C8683EB90E089
:101530009F878E87198A188A84EB90E09B8B8A8B11
:101540001D8A1C8A1F8A1E8A698360E0CE010E9460
:10155000100AEA81FB81309709F01082EC81FD814D
:101560001082198E188E1B8E1A8E1D8E1C8E1F8E49
:101570001E8E19A218A2DF91CF91089551E041115A
:1015800001C050E06530F0F4E62FF0E0E65BFE4F7E
:10159000408147FD17C0DC011696ED91FC9117972D
:1015A000808121E030E0042E01C0220F0A94EAF786
:1015B00020952823852F042E01C0880F0A94EAF76E
:1015C000282B20830895623099F028F4662341F097
:1015D0006130C9F409C0633079F06430A1F410C0FF
:1015E000FC01518F408F0FC0FC01538F428F0BC005
:1015F000FC01558F448F07C0FC01578F468F03C0F5
:10160000FC0151A340A3452B11F440E003C0222369
:1016100019F041E00C94BE0A0895DC011896ED9192
:10162000FC9119973081262F23703C7F232B208338
:101630001A96ED91FC911B9780816C70660F877EE6
:10164000682B6083089560E08FE093E00E942F0A8A
:1016500061E08DEE92E00E942F0A62E08BEC92E056
:101660000C942F0AA1E21A2EAA1BBB1BFD010DC070
:10167000AA1FBB1FEE1FFF1FA217B307E407F50742
:1016800020F0A21BB30BE40BF50B661F771F881F1E
:10169000991F1A9469F760957095809590959B01B4
:1016A000AC01BD01CF010895052E97FB16F40094FF
:1016B00007D057FD0DD00E94320B07FC09D07EF4F5
:1016C00090958095709561957F4F8F4F9F4F0895AE
:1016D00050954095309521953F4F4F4F5F4F08955E
:1016E000EE0FFF1F0590F491E02D0994F894FFCFC1
:1016F0000000310320000F000F0001012000000056
:101700000000FF01FB01000000005C0442070E0422
:10171000130439042704000000003404B404BA049C
:10172000000000002F04A804AE0401020304050613
:10173000070102000300040506070001020305007B
:00000001FF
