:100000000C9442000C946A000C946A000C946A00F0
:100010000C946A000C946A000C946A000C946A00B8
:100020000C946A000C945F080C9488080C94B10836
:100030000C9455090C94DA080C9403090C942C09BF
:100040000C94E4070C940D080C9436080C946A0088
:100050000C9409070C94BC040C946A000C946A007C
:100060000C946A000C946A000C946A000C946A0068
:100070000C94DE060C940A050C946A00C801370340
:100080003407910A11241FBECFEFD0E1DEBFCDBFF0
:1000900011E0A0E0B1E0EAE1F6E102C005900D92C6
:1000A000AC34B107D9F713E0ACE4B1E001C01D9264
:1000B000AB38B107E1F710E0C4E8D0E004C0229704
:1000C000FE010E94FB0ACC37D107C9F70E94030446
:1000D0000C940B0B0C940000EF920F931F93CF9393
:1000E000DF93CDB7DEB728970FB6F894DEBF0FBE0B
:1000F000CDBF09831A832B833C834D835E836F833B
:100100007887FC0110821182128213821482158278
:100110001682178228E0FE013196DC0101900D92D3
:100120002A95E1F7FC01E0861186128628960FB623
:10013000F894DEBF0FBECDBFDF91CF911F910F911D
:10014000EF900895FC0180850895FC016187089572
:10015000FC0181850895FC0181859285891719F03C
:10016000828781E0089580E00895CF93DF93CDB733
:10017000DEB728970FB6F894DEBF0FBECDBF28E0DC
:10018000FC01DE01119601900D922A95E1F729817B
:100190003A814B815C816D817E818F819885289623
:1001A0000FB6F894DEBF0FBECDBFDF91CF9108959B
:1001B000EF920F93E12C01E028E040E051EE60E087
:1001C00070E089EC92E00E94DC0528E040E051EE0E
:1001D00060E070E08DE692E00E94DC056DE672E082
:1001E0008EED91E00F91EF900C945A0287E591E02B
:1001F0000C9457030F93CF93DF93CDB7DEB76C9773
:100200000FB6F894DEBF0FBECDBF2D8B3E8B4F8B4C
:10021000588F698F7A8F8B8F9C8FCE0101960E94A9
:100220008302BE016B5E7F4FCE0101960E949E024B
:100230000C8BBE016C5E7F4FCE0101960E947C024A
:1002400061E0CE0101960E94800260E0CE0101963D
:100250000E94790261E0CE0101960E94A702BE01D0
:100260006F5F7F4F8EED91E00E94C7026C960FB6D4
:10027000F894DEBF0FBECDBFDF91CF910F910895EF
:100280009F92AF92BF92CF92DF92EF92FF920F9325
:100290001F93CF93DF93CDB7DEB761970FB6F89476
:1002A000DEBF0FBECDBF87E591E00E94C60382305E
:1002B00009F05CC060E087E591E00E94C903982ED8
:1002C00061E087E591E00E94C903682F70E080E05B
:1002D00090E01F921F921F922FEF2F93A12CB12C11
:1002E00065011FE7E12EF12C00E010E021E030E095
:1002F00040E050E00E9466078CE491E0698B0E9428
:10030000A2000F900F900F900F906989891104C07F
:100310008CE491E00E94A5008CE491E00E94AB0087
:10032000882321F18CE491E00E94A800082F8CE43E
:1003300091E00E94B50029873A874B875C876D87DB
:100340007E878F87988B98E0FE013996DE011196A3
:1003500001900D929A95E1F729813A814B815C8158
:100360006D817E818F8198850E94FA0061960FB61B
:10037000F894DEBF0FBECDBFDF91CF911F910F91DB
:10038000FF90EF90DF90CF90BF90AF909F90089537
:10039000EF920F931F93CF93DF93CDB7DEB72897DC
:1003A0000FB6F894DEBF0FBECDBF8EED91E00E9478
:1003B000480240E451E069EC72E087E591E00E9478
:1003C0004C0380E092EAA3E1B0E0082F89839A838E
:1003D000AB83BC838FE29CE6A6EEB0E4482F8D830E
:1003E0009E83AF83B8873CE4E32E1A812B813C8146
:1003F0005E816F8178858CE491E00E946C00289684
:100400000FB6F894DEBF0FBECDBFDF91CF911F9125
:100410000F91EF900895FC018681845F0895FC019F
:10042000611102C082850895613011F481850895BB
:10043000623011F480850895633011F48781089546
:10044000643011F486850895653011F4858508952A
:10045000663011F484850895673011F4838508951A
:10046000683011F480890895693011F48785089502
:100470006A3011F4818908956B3011F482890895EE
:100480000480F581E02DE60FF11D3C9780810895F1
:10049000FC01128611861486158617821086158235
:1004A0000E9691838083E458FF4F89EC92E091830C
:1004B0008083089584589F4FFC0171836083089561
:1004C00084589F4FDC018D919C91DC01ED91FC9152
:1004D0000284F385E02D099484589F4FFC01A0818C
:1004E000B181ED91FC9111970190F081E02DCD014A
:1004F0000994FC0163830895FC0175836483089566
:10050000FC0166830895FC0180E1828381E083839E
:100510001582148216828EE091E091838083178287
:1005200010861186128613861486158616868EEF1F
:100530009FEF908B8787118A128A089528E0FB012C
:10054000DC01179601900D922A95E1F70895FC01C0
:10055000628B08951F93CF93DF93EC01162F4423F2
:1005600079F0862F8D57823020F0613111F06331A0
:1005700039F46DE7CE010E946C0260E2612701C090
:10058000612FCE01DF91CF911F910C946C02DF920D
:10059000EF92FF920F931F93CF93DF938C01EB01A8
:1005A0006EE70E946C02E881F9810280F381E02D00
:1005B000CE010995E82EE881F9810280F381E02DD2
:1005C000CE010995F82E2E2D30E02E5F3F4F41E0F1
:1005D000632FC8010E94AA026F2D6E5F41E0C8011F
:1005E0000E94AA0241E06A81C8010E94AA0241E079
:1005F0006B81C8010E94AA02DA808B81D80EE12C9F
:10060000F12C19C0E881F9810190F081E02D6E2D67
:10061000CE01099541E0682FC8010E94AA02E88135
:10062000F9810190F081E02D6E2DCE010995D80E53
:100630008FEFE81AF80AE881F9810280F381E02D52
:10064000CE010995282F30E0E216F306DCF26D2D7D
:10065000609541E0C8010E94AA02C801DF91CF91D4
:100660001F910F91FF90EF90DF900C946002109219
:100670005C0210925D0210925E0210925F028FEF98
:100680009FEFA0E0B0E08093600290936102A0939E
:100690006202B09363020895FC01EB57FF4F718330
:1006A0006083FC01ED57FF4F518340830895BF9253
:1006B000CF92DF92EF92FF920F931F93CF93DF932E
:1006C000EC017C0185E8E80EF11C8E010E571F4FEE
:1006D000BB24B3946E01A3E8CA0ED11CF70180813C
:1006E0009181DC01ED91FC910480F581E02D09956B
:1006F000892B09F441C0F70180819181DC01ED91E2
:10070000FC910084F185E02D0995803C910579F4F8
:1007100088818983882331F0D601ED91FC9130974F
:1007200009F009951882F80110821982D7CF8B3D04
:10073000910519F4D801BC92D1CFF8012081222370
:1007400071F08C3D910521F08D3D910531F403C090
:1007500080EC90E002C08BED90E0D8011C92988173
:10076000FE01E90FF11D8283892F8F5F803811F020
:100770008883B4CF1882B2CFDF91CF911F910F91B0
:10078000FF90EF90DF90CF90BF900895FC018181A2
:100790000895860F911DFC01828108958091650264
:1007A00090916602A0916702B09168023091640254
:1007B000232F2D5F2D3720F40196A11DB11D05C0FB
:1007C000232F2A570296A11DB11D20936402809306
:1007D000650290936602A0936702B09368028091CD
:1007E000690290916A02A0916B02B0916C0201962D
:1007F000A11DB11D8093690290936A02A0936B02C0
:10080000B0936C0208950E94BC070E94D8000E9419
:10081000F600FDCFFC0120893189C9010895DC0172
:1008200050962D913C915197232B49F05496ED9180
:10083000FC915597E80FF91F268930E002C02FEF91
:100840003FEFC9010895FC01118A108A158A148AA4
:10085000138A128A0895FC0124813581C901089503
:10086000FC0124813581C9010895FC0180899189A9
:10087000892BD1F03FB7F894808991890197918BAA
:10088000808B84899589DF01A80FB91F56962C911A
:100890000196803291051CF4958B848B02C0158AD9
:1008A000148A3FBF30E002C02FEF3FEFC901089527
:1008B000EF92FF921F93CF93DF931F92CDB7DEB7D6
:1008C0007C01D701DA968D919C91DB974097C8F710
:1008D0001FB7F894D696ED91FC91D7970190F081CF
:1008E000E02DC701C6966983099569814097C8F4D0
:1008F000F70182AD93AD019693AF82AF84AD95AD14
:10090000E80FF91FE05CFF4F60830196D701DD9689
:100910009C938E93DC97409724F0DD961C921E9258
:10092000DC97F701EA5AFF4F0190F081E02D8081BA
:10093000806280831FBF81E090E00F90DF91CF91B4
:100940001F91FF90EF900895665F7F4F680F791FAA
:10095000CB010895665F7F4F680F791FCB01089523
:10096000665F7F4F680F791FCB010895665F7F4FE9
:10097000680F791FCB0108951F920F920FB60F9247
:1009800011242F938F939F93AF93BF93EF93FF9374
:100990008091030390910403892B21F1E0912303BB
:1009A000F0912403809103039091040301979093A5
:1009B0000403809303038091070390910803DC01F3
:1009C000A150BD4F1A962C910196803191052CF4BF
:1009D000909308038093070304C0109208031092B9
:1009E000070320838091030390910403892B31F442
:1009F000E0911F03F091200388E98083FF91EF913C
:100A0000BF91AF919F918F912F910F900FBE0F903B
:100A10001F9018951F920F920FB60F9211242F93CB
:100A20008F939F93AF93BF93EF93FF938091A70210
:100A30009091A802892B21F1E091C702F091C802A0
:100A40008091A7029091A80201979093A8028093A9
:100A5000A7028091AB029091AC02DC01AD55BD4F75
:100A60001A962C910196803191052CF49093AC024A
:100A70008093AB0204C01092AC021092AB022083B0
:100A80008091A7029091A802892B31F4E091C302D2
:100A9000F091C40288E98083FF91EF91BF91AF91FB
:100AA0009F918F912F910F900FBE0F901F901895CF
:100AB000FC01262F1382128248EE53E060E070E0C2
:100AC000448355836683778386E191E091838083B5
:100AD00086E291E09587848780E290E09787868719
:100AE000118A108A158A148A138A128A80E391E087
:100AF00097AB86AB80E190E091AF80AF13AE12AEC2
:100B000017AE16AE15AE14AE222321F0213009F037
:100B100052C028C0DF01A05BBF4F85EC90E08D93F1
:100B20009C93DF01AE5ABF4F84EC90E08D939C9371
:100B3000DF01AC5ABF4F80EC90E08D939C93DF01B6
:100B4000AA5ABF4F81EC90E08D939C93DF01A85A85
:100B5000BF4F82EC90E08D939C93E65AFF4F86EC5A
:100B600090E027C0DF01A05BBF4F8DEC90E08D933C
:100B70009C93DF01AE5ABF4F8CEC90E08D939C9319
:100B8000DF01AC5ABF4F88EC90E08D939C93DF015E
:100B9000AA5ABF4F89EC90E08D939C93DF01A85A2D
:100BA000BF4F8AEC90E08D939C93E65AFF4F8EECFA
:100BB00090E09183808308953F924F925F926F926D
:100BC0007F928F929F92AF92BF92CF92DF92EF92DD
:100BD000FF920F931F93CF93DF93EC014A015B01C8
:100BE000122F3E2C60E072E18AE790E0A5019401AB
:100BF0000E94B00A69017A0184E0C80ED11CE11C90
:100C0000F11C83E0F694E794D794C7948A95D1F7C2
:100C100060E074E284EF90E0A50194010E94B00AC4
:100C200029013A0194E0490E511C611C711C93E0AA
:100C300076946794579447949A95D1F7A3019201BB
:100C40004427552760E874E88EE190E00E94D20ABC
:100C50005901A818B908B7FE03C0B194A194B1080E
:100C6000A70196014427552760E472E48FE090E0E5
:100C70000E94D20A2819390937FF03C031952195FE
:100C80003109FE01EC5AFF4F0190F081E02DA216D0
:100C9000B3063CF482E08083620181E0C81AD10887
:100CA00004C0108291E0C91AD1081630C1F018F4BE
:100CB000153099F405C0173029F0193071F404C0CB
:100CC00080E00EC084E00CC0FE01EA5AFF4F0190A4
:100CD000F081E02D80818460808386E001C082E025
:100CE000023009F4886091E0391621F092E039125F
:100CF00004C002C0806301C08062FE01E85AFF4F59
:100D00000190F081E02D8083FE01E05BFF4F0190B8
:100D1000F081E02DD082FE01EE5AFF4F0190F0816C
:100D2000E02DC082CA5ADF4FE881F98188E98083CB
:100D3000DF91CF911F910F91FF90EF90DF90CF90B7
:100D4000BF90AF909F908F907F906F905F904F90EB
:100D50003F9008950F931F93CF93DF931F92CDB7CA
:100D6000DEB78C01DC01ED91FC910190F081E02D6A
:100D70006983099569818097D0F4F8018481958110
:100D800001969583848386819781E80FF91F628796
:100D900001968032910534F4D80117969C938E9376
:100DA000169703C0F8011782168281E001C080E027
:100DB0000F90DF91CF911F910F9108951F920F9285
:100DC0000FB60F9211242F933F934F935F936F931E
:100DD0007F938F939F93AF93BF93EF93FF93E09194
:100DE000C702F091C802608189E792E00E94AA06DA
:100DF000FF91EF91BF91AF919F918F917F916F91F3
:100E00005F914F913F912F910F900FBE0F901F90C8
:100E100018951F920F920FB60F9211242F933F93A4
:100E20004F935F936F937F938F939F93AF93BF93F2
:100E3000EF93FF93E0912303F0912403608185ED0C
:100E400092E00E94AA06FF91EF91BF91AF919F910E
:100E50008F917F916F915F914F913F912F910F9063
:100E60000FBE0F901F90189560E089EC92E00E94F1
:100E7000580561E08DE692E00C945805CF92DF9220
:100E8000EF92FF920F931F93CF93DF936C01EB01CF
:100E90007A01E60EF71E00E010E00BC06991D60162
:100EA000ED91FC910190F081E02DC6010995080FAC
:100EB000191FCE15DF0591F7C801DF91CF911F9162
:100EC0000F91FF90EF90DF90CF9008954F925F9237
:100ED0006F927F92AF92BF92CF92DF92EF92FF928A
:100EE0000F931F93CF93DF9300D000D0CDB7DEB721
:100EF0002B013C0129833A834B835C836D897E8976
:100F00008F89988D421A530A640A750A6A197B09F7
:100F10008C099D096F5F7F4F8F4F9F4FA3019201F7
:100F20000E94A00A29813A814B815C81E21AF30A6E
:100F3000040B150B3FEFE31AF30A0F4F1F4FA801E5
:100F400097010E94D20A2A0D3B1D4C1D5D1DB9015F
:100F5000CA010F900F900F900F90DF91CF911F91CA
:100F60000F91FF90EF90DF90CF90BF90AF907F9068
:100F70006F905F904F90089563E089E693E00E9440
:100F80007B0A21E04EEC53E060E089E693E00E94AA
:100F9000510A64E089E693E00E947E0961E087E4FB
:100FA00093E00E947B0A64E087E493E00E947E095C
:100FB00061E085E293E00E947B0A64E085E293E0D1
:100FC0000E947E09789408951F920F920FB60F9297
:100FD00011242F933F934F935F936F937F938F933E
:100FE0009F93AF93BF93EF93FF93E0918303F091AF
:100FF0008403309709F00995FF91EF91BF91AF916C
:101000009F918F917F916F915F914F913F912F9120
:101010000F900FBE0F901F9018951F920F920FB652
:101020000F9211242F933F934F935F936F937F936E
:101030008F939F93AF93BF93EF93FF93E0918503BB
:10104000F0918603309709F00995FF91EF91BF91D8
:10105000AF919F918F917F916F915F914F913F9150
:101060002F910F900FBE0F901F9018951F920F9207
:101070000FB60F9211242F933F934F935F936F936B
:101080007F938F939F93AF93BF93EF93FF93E091E1
:101090008103F0918203309709F00995FF91EF9158
:1010A000BF91AF919F918F917F916F915F914F9180
:1010B0003F912F910F900FBE0F901F9018951F9288
:1010C0000F920FB60F9211242F933F934F935F937C
:1010D0006F937F938F939F93AF93BF93EF93FF9300
:1010E000E0913F03F0914003309709F00995FF919B
:1010F000EF91BF91AF919F918F917F916F915F9190
:101100004F913F912F910F900FBE0F901F90189508
:101110001F920F920FB60F9211242F933F934F936C
:101120005F936F937F938F939F93AF93BF93EF934F
:10113000FF93E0914103F0914203309709F0099544
:10114000FF91EF91BF91AF919F918F917F916F919F
:101150005F914F913F912F910F900FBE0F901F9075
:1011600018951F920F920FB60F9211242F933F9351
:101170004F935F936F937F938F939F93AF93BF939F
:10118000EF93FF93E0913D03F0913E03309709F018
:101190000995FF91EF91BF91AF919F918F917F91B1
:1011A0006F915F914F913F912F910F900FBE0F90D4
:1011B0001F9018951F920F920FB60F9211242F9324
:1011C0003F934F935F936F937F938F939F93AF93CF
:1011D000BF93EF93FF93E0916103F0916203309727
:1011E00009F00995FF91EF91BF91AF919F918F9178
:1011F0007F916F915F914F913F912F910F900FBE13
:101200000F901F9018951F920F920FB60F921124F6
:101210002F933F934F935F936F937F938F939F93FE
:10122000AF93BF93EF93FF93E0916303F091640357
:10123000309709F00995FF91EF91BF91AF919F9180
:101240008F917F916F915F914F913F912F910F906F
:101250000FBE0F901F9018951F920F920FB60F920E
:1012600011242F933F934F935F936F937F938F93AB
:101270009F93AF93BF93EF93FF93E0915F03F09140
:101280006003309709F00995FF91EF91BF91AF91FD
:101290009F918F917F916F915F914F913F912F918E
:1012A0000F900FBE0F901F9018951F920F920FB6C0
:1012B0000F9211242F933F934F935F936F937F93DC
:1012C0008F939F93AF93BF93EF93FF93E091670347
:1012D000F0916803309709F00995FF91EF91BF9164
:1012E000AF919F918F917F916F915F914F913F91BE
:1012F0002F910F900FBE0F901F901895DC012C912D
:101300006150223039F4673068F4E62FF0E0EA5C8F
:10131000FE4F06C0693030F4E62FF0E0E35CFE4F8C
:10132000208101C020E0DC011A96ED91FC911B9711
:101330008081887F822B80830895CF93DF93EC0197
:101340006883613011F120F0623009F06CC048C050
:101350001B821A8286E490E09D838C838EE690E067
:101360009F838E8384E490E09987888785E490E06A
:101370009B878A871D861C8687E490E09F878E87DF
:10138000198A188A88E490E022C08FE690E09F8353
:101390008E8385E890E09B838A8384E890E09D8338
:1013A0008C8380E890E09987888781E890E09B872C
:1013B0008A8789E890E09D878C8788E890E09F87FE
:1013C0008E878BE890E0998B888B8AE890E09B8BE6
:1013D0008A8B1D8A1C8A1F8A1E8A82E0898323C009
:1013E0001B821A8282EB90E09D838C8380E790E0E1
:1013F0009F838E8380EB90E09987888781EB90E0D4
:101400009B878A871D861C8683EB90E09F878E874B
:10141000198A188A84EB90E09B8B8A8B1D8A1C8A20
:101420001F8A1E8A698360E0CE010E947E09EA81DC
:10143000FB81309709F01082EC81FD811082198EBA
:10144000188E1B8E1A8E1D8E1C8E1F8E1E8E19A23C
:1014500018A2DF91CF91089551E0411101C050E0F1
:101460006530F0F4E62FF0E0EA5BFE4F408147FD87
:1014700017C0DC011696ED91FC911797808121E051
:1014800030E0042E01C0220F0A94EAF720952823A9
:10149000852F042E01C0880F0A94EAF7282B208399
:1014A0000895623099F028F4662341F06130C9F460
:1014B00009C0633079F06430A1F410C0FC01518F91
:1014C000408F0FC0FC01538F428F0BC0FC01558F22
:1014D000448F07C0FC01578F468F03C0FC0151A306
:1014E00040A3452B11F440E003C0222319F041E052
:1014F0000C942C0A0895DC011896ED91FC91199733
:101500003081262F23703C7F232B20831A96ED9168
:10151000FC911B9780816C70660F877E682B6083BF
:10152000089560E089E693E00E949D0961E087E408
:1015300093E00E949D0962E085E293E00C949D098E
:10154000DB018F939F930E94EE0ABF91AF91A29F00
:10155000800D911DA39F900DB29F900D11240895B1
:10156000A1E21A2EAA1BBB1BFD010DC0AA1FBB1FA7
:10157000EE1FFF1FA217B307E407F50720F0A21B19
:10158000B30BE40BF50B661F771F881F991F1A9486
:1015900069F760957095809590959B01AC01BD01B0
:1015A000CF010895052E97FB16F4009407D057FD40
:1015B0000DD00E94B00A07FC09D07EF4909580956A
:1015C000709561957F4F8F4F9F4F0895509540952F
:1015D000309521953F4F4F4F5F4F08950E94FF0A6E
:1015E000A59F900DB49F900DA49F800D911D112477
:1015F0000895EE0FFF1F0590F491E02D0994A29F2E
:10160000B001B39FC001A39F01D0B29F700D811D97
:0A1610001124911D0895F894FFCFF6
:10161A0000008B03200001000000000000000F0200
:10162A000B020000000058043E070A040F043504A8
:10163A002304000000003004B004B60400000000D7
:10164A002B04A404AA0401020304050607010200EC
:0C165A0003000405060700010203050060
:00000001FF
