:100000000C9442000C946A000C946A000C946A00F0
:100010000C946A000C946A000C946A000C946A00B8
:100020000C946A000C94DD080C9406090C942F09BA
:100030000C94D3090C9458090C9481090C94AA09C6
:100040000C9462080C948B080C94B4080C946A000D
:100050000C94F9060C94AC040C946A000C946A009D
:100060000C946A000C946A000C946A000C946A0068
:100070000C94CE060C94FA040C946A007A011003D6
:1000800024070F0B11241FBECFEFD0E1DEBFCDBF81
:1000900011E0A0E0B1E0E8ECF6E102C005900D92BD
:1000A000A035B107D9F713E0A0E5B1E001C01D927A
:1000B000A932B107E1F710E0C4E8D0E004C022970C
:1000C000FE010E945E0BCC37D107C9F70E94F303F3
:1000D0000C94620B0C940000EF920F9361E08091FE
:1000E00008010E94C50361E0809106010E94C503DA
:1000F000E12C01E028E040E051EE60E070E087E6AE
:1001000092E00E94CC0528E040E051EE60E070E013
:100110008BE092E00E94CC056BE072E08CE791E00E
:100120000F91EF900C943602CF93DF93CDB7DEB7EB
:100130006C970FB6F894DEBF0FBECDBF2D8B3E8BF4
:100140004F8B588F698F7A8F8B8F9C8FCE01019642
:100150000E945F02BE016B5E7F4FCE0101960E943E
:100160007A02809152018C8BBE016C5E7F4FCE0172
:1001700001960E94580261E0CE0101960E945C0245
:1001800060E0CE0101960E945502BE016F5F7F4F75
:100190008CE791E00E94A0026C960FB6F894DEBF47
:1001A0000FBECDBFDF91CF91089580915201909104
:1001B0005301909351018093500185E00E942C03DC
:1001C000BC0197FF02C06D5F7F4F75956795759570
:1001D0006795709353016093520180915001909103
:1001E0005101681B790B77FF03C071956195710907
:1001F0004AE050E087E692E00E9432086CE071E04D
:1002000087E692E00E94730787E692E00E947507F6
:1002100080915201909153012091500130915101F0
:10022000821B930B97FF03C09195819591090397CA
:100230000CF45AC0209174013091750140917601FF
:1002400050917701609178017091790180917A01E4
:1002500090917B010E94940020916C0130916D017E
:1002600040916E0150916F01609170017091710128
:1002700080917201909173010E9494002091640119
:10028000309165014091660150916701609168016C
:100290007091690180916A0190916B010E949400B4
:1002A00020915C0130915D0140915E0150915F01B0
:1002B0006091600170916101809162019091630190
:1002C0000E949400209154013091550140915601B3
:1002D00050915701609158017091590180915A01D4
:1002E00090915B010E94940062E370E080E090E0F6
:1002F0000C94A3038CE791E00E94240280E092EA30
:10030000A3E1B0E08093740190937501A09376010E
:10031000B093770143E15CE666EE70E440937801C8
:100320005093790160937A0170937B0180936C0103
:1003300090936D01A0936E01B0936F0147ED5DE660
:1003400066EE70E440937001509371016093720106
:10035000709373018093640190936501A09366018B
:10036000B093670149E45CE666EE70E4409368018F
:100370005093690160936A0170936B0180935C01F3
:1003800090935D01A0935E01B0935F0148E15CE64C
:1003900066EE70E4409360015093610160936201E6
:1003A000709363018093540190935501A09356017B
:1003B000B09357018FE29CE6A6EEB0E4809358011B
:1003C00090935901A0935A01B0935B010895FC01E9
:1003D0008681845F0895FC01611102C082850895C1
:1003E000613011F481850895623011F4808508959B
:1003F000633011F487810895643011F4868508957F
:10040000653011F485850895663011F4848508956A
:10041000673011F483850895683011F48089089558
:10042000693011F4878508956A3011F4818908953F
:100430006B3011F4828908950480F581E02DE60F78
:10044000F11D3C9780810895FC0112861186148667
:1004500015861782108615820E9691838083E45844
:10046000FF4F87E692E091838083089584589F4FE1
:10047000FC0171836083089584589F4FDC018D9146
:100480009C91DC01ED91FC910284F385E02D0994AF
:1004900084589F4FFC01A081B181ED91FC9111978F
:1004A0000190F081E02DCD010994FC016383089552
:1004B000FC01758364830895FC0166830895FC0143
:1004C00080E1828381E0838315821482168282E137
:1004D00091E091838083178210861186128613869D
:1004E0001486158616868EEF9FEF908B8787118A6C
:1004F000128A089528E0FB01DC01179601900D9205
:100500002A95E1F708951F93CF93DF93EC01162FFF
:10051000442379F0862F8D57823020F0613111F01D
:10052000633139F46DE7CE010E94480260E2612731
:1005300001C0612FCE01DF91CF911F910C94480231
:10054000DF92EF92FF920F931F93CF93DF938C0173
:10055000EB016EE70E944802E881F9810280F38195
:10056000E02DCE010995E82EE881F9810280F38122
:10057000E02DCE010995F82E2E2D30E02E5F3F4F55
:1005800041E0632FC8010E9483026F2D6E5F41E03E
:10059000C8010E94830241E06A81C8010E9483026F
:1005A00041E06B81C8010E948302DA808B81D80E02
:1005B000E12CF12C19C0E881F9810190F081E02D46
:1005C0006E2DCE01099541E0682FC8010E9483027B
:1005D000E881F9810190F081E02D6E2DCE01099521
:1005E000D80E8FEFE81AF80AE881F9810280F381CA
:1005F000E02DCE010995282F30E0E216F306DCF25B
:100600006D2D609541E0C8010E948302C801DF9111
:10061000CF911F910F91FF90EF90DF900C943C02CF
:100620001092FA011092FB011092FC011092FD0150
:100630008FEF9FEFA0E0B0E08093FE019093FF0169
:10064000A0930002B0930102089580E480937C009F
:1006500087E880937A000895CF93DF931F92CDB7F8
:10066000DEB790910A01913031F489830E9425030D
:1006700010920A018981877020910B0140E4249F28
:1006800090011124822B80937C0080917A008064F9
:1006900080937A0080917A0086FDFCCF20917800CB
:1006A00030917900932F80E0FC01E22B9F01C9017A
:1006B0000F90DF91CF9108958091030290910402F1
:1006C000A0910502B091060230910202232F2D5F06
:1006D0002D3720F40196A11DB11D05C0232F2A57E7
:1006E0000296A11DB11D20930202809303029093F4
:1006F0000402A0930502B093060280910702909134
:100700000802A0910902B0910A020196A11DB11D33
:100710008093070290930802A0930902B0930A0203
:1007200008950F931F938FB7F894009103021091CF
:10073000040220910502309106028FBFB801C90161
:100740001F910F9108958F929F92AF92BF92CF9277
:10075000DF92EF92FF926B017C010E9491034B01AB
:100760005C010E949103681979098A099B096C153B
:100770007D058E059F05A8F3FF90EF90DF90CF9049
:10078000BF90AF909F908F900895982F977021E021
:1007900030E0092E01C0220F0A94EAF7869586956B
:1007A000869581F0813089F0823091F08330D1F4E8
:1007B00012C080812095822302C08081822B808399
:1007C0009FBF0895EAE2F0E008C0E7E2F0E005C06C
:1007D000E4E2F0E002C0E1E2F0E09FB7F8946623C3
:1007E00041F3EBCF08950E943A080E946C000E94EA
:1007F000D500FDCFFC0120893189C9010895DC01B4
:1008000050962D913C915197232B49F05496ED91A0
:10081000FC915597E80FF91F268930E002C02FEFB1
:100820003FEFC9010895FC01118A108A158A148AC4
:10083000138A128A0895FC0124813581C901089523
:10084000FC0124813581C9010895FC0180899189C9
:10085000892BD1F03FB7F894808991890197918BCA
:10086000808B84899589DF01A80FB91F56962C913A
:100870000196803291051CF4958B848B02C0158AF9
:10088000148A3FBF30E002C02FEF3FEFC901089547
:10089000EF92FF921F93CF93DF931F92CDB7DEB7F6
:1008A0007C01D701DA968D919C91DB974097C8F730
:1008B0001FB7F894D696ED91FC91D7970190F081EF
:1008C000E02DC701C6966983099569814097C8F4F0
:1008D000F70182AD93AD019693AF82AF84AD95AD34
:1008E000E80FF91FE05CFF4F60830196D701DD96AA
:1008F0009C938E93DC97409724F0DD961C921E9279
:10090000DC97F701EA5AFF4F0190F081E02D8081DA
:10091000806280831FBF81E090E00F90DF91CF91D4
:100920001F91FF90EF900895665F7F4F680F791FCA
:10093000CB010895665F7F4F680F791FCB01089543
:10094000665F7F4F680F791FCB010895665F7F4F09
:10095000680F791FCB0108951F920F920FB60F9267
:1009600011242F938F939F93AF93BF93EF93FF9394
:100970008091A1029091A202892B21F1E091C10204
:10098000F091C2028091A1029091A20201979093EE
:10099000A2028093A1028091A5029091A602DC019F
:1009A000A356BD4F1A962C910196803191052CF4D7
:1009B0009093A6028093A50204C01092A602109202
:1009C000A50220838091A1029091A202892B31F48B
:1009D000E091BD02F091BE0288E98083FF91EF9122
:1009E000BF91AF919F918F912F910F900FBE0F905C
:1009F0001F9018951F920F920FB60F9211242F93EC
:100A00008F939F93AF93BF93EF93FF938091450292
:100A100090914602892B21F1E0916502F0916602E6
:100A200080914502909146020197909346028093EF
:100A300045028091490290914A02DC01AF5BBD4FB3
:100A40001A962C910196803191052CF490934A02CC
:100A50008093490204C010924A02109249022083F6
:100A60008091450290914602892B31F4E091610218
:100A7000F091620288E98083FF91EF91BF91AF917D
:100A80009F918F912F910F900FBE0F901F901895EF
:100A9000FC01262F1382128248EE53E060E070E0E2
:100AA00044835583668377838AE191E091838083D1
:100AB0008AE291E09587848780E290E09787868735
:100AC000118A108A158A148A138A128A84E391E0A3
:100AD00097AB86AB80E190E091AF80AF13AE12AEE2
:100AE00017AE16AE15AE14AE222321F0213009F058
:100AF00052C028C0DF01A05BBF4F85EC90E08D9312
:100B00009C93DF01AE5ABF4F84EC90E08D939C9391
:100B1000DF01AC5ABF4F80EC90E08D939C93DF01D6
:100B2000AA5ABF4F81EC90E08D939C93DF01A85AA5
:100B3000BF4F82EC90E08D939C93E65AFF4F86EC7A
:100B400090E027C0DF01A05BBF4F8DEC90E08D935C
:100B50009C93DF01AE5ABF4F8CEC90E08D939C9339
:100B6000DF01AC5ABF4F88EC90E08D939C93DF017E
:100B7000AA5ABF4F89EC90E08D939C93DF01A85A4D
:100B8000BF4F8AEC90E08D939C93E65AFF4F8EEC1A
:100B900090E09183808308953F924F925F926F928D
:100BA0007F928F929F92AF92BF92CF92DF92EF92FD
:100BB000FF920F931F93CF93DF93EC014A015B01E8
:100BC000122F3E2C60E072E18AE790E0A5019401CB
:100BD0000E941E0B69017A0184E0C80ED11CE11C41
:100BE000F11C83E0F694E794D794C7948A95D1F7E3
:100BF00060E074E284EF90E0A50194010E941E0B76
:100C000029013A0194E0490E511C611C711C93E0CA
:100C100076946794579447949A95D1F7A3019201DB
:100C20004427552760E874E88EE190E00E94400B6D
:100C30005901A818B908B7FE03C0B194A194B1082E
:100C4000A70196014427552760E472E48FE090E005
:100C50000E94400B2819390937FF03C031952195AF
:100C60003109FE01EC5AFF4F0190F081E02DA216F0
:100C7000B3063CF482E08083620181E0C81AD108A7
:100C800004C0108291E0C91AD1081630C1F018F4DE
:100C9000153099F405C0173029F0193071F404C0EB
:100CA00080E00EC084E00CC0FE01EA5AFF4F0190C4
:100CB000F081E02D80818460808386E001C082E045
:100CC000023009F4886091E0391621F092E039127F
:100CD00004C002C0806301C08062FE01E85AFF4F79
:100CE0000190F081E02D8083FE01E05BFF4F0190D9
:100CF000F081E02DD082FE01EE5AFF4F0190F0818D
:100D0000E02DC082CA5ADF4FE881F98188E98083EB
:100D1000DF91CF911F910F91FF90EF90DF90CF90D7
:100D2000BF90AF909F908F907F906F905F904F900B
:100D30003F9008950F931F93CF93DF931F92CDB7EA
:100D4000DEB78C01DC01ED91FC910190F081E02D8A
:100D50006983099569818097D0F4F8018481958130
:100D600001969583848386819781E80FF91F6287B6
:100D700001968032910534F4D80117969C938E9396
:100D8000169703C0F8011782168281E001C080E047
:100D90000F90DF91CF911F910F9108951F920F92A5
:100DA0000FB60F9211242F933F934F935F936F933E
:100DB0007F938F939F93AF93BF93EF93FF93E091B4
:100DC0006502F0916602608187E192E00E949A06D6
:100DD000FF91EF91BF91AF919F918F917F916F9113
:100DE0005F914F913F912F910F900FBE0F901F90E9
:100DF00018951F920F920FB60F9211242F933F93C5
:100E00004F935F936F937F938F939F93AF93BF9312
:100E1000EF93FF93E091C102F091C202608183E7FA
:100E200092E00E949A06FF91EF91BF91AF919F913E
:100E30008F917F916F915F914F913F912F910F9083
:100E40000FBE0F901F90189560E087E692E00E9419
:100E5000480561E08BE092E00C944805CF92DF9268
:100E6000EF92FF920F931F93CF93DF936C01EB01EF
:100E70007A01E60EF71E00E010E00BC06991D60182
:100E8000ED91FC910190F081E02DC6010995080FCC
:100E9000191FCE15DF0591F7C801DF91CF911F9182
:100EA0000F91FF90EF90DF90CF900895611571053D
:100EB00081F0DB010D900020E9F7AD0141505109AF
:100EC000461B570BDC01ED91FC910280F381E02D74
:100ED000099480E090E00895DC01ED91FC9101908F
:100EE000F081E02D09940C9456070F931F93CF9334
:100EF000DF93EC016DE00E946C078C016AE0CE018B
:100F00000E946C079C01200F311FC901DF91CF9116
:100F10001F910F9108954F925F926F927F929F92CF
:100F2000AF92BF92CF92DF92EF92FF920F931F93F7
:100F3000CF93DF93CDB7DEB7A1970FB6F894DEBF9E
:100F40000FBECDBF5C016A017B01922E19A281E028
:100F5000821710F08AE0982E8E010F5D1F4F492CEA
:100F6000512C612C712CC701B601A30192010E9482
:100F70001E0B8C2D929E80191124015011098A306C
:100F800014F4805D01C0895CF801808369017A01F5
:100F9000C114D104E104F10431F7B801C5010E9484
:100FA0005607A1960FB6F894DEBF0FBECDBFDF91F6
:100FB000CF911F910F91FF90EF90DF90CF90BF9056
:100FC000AF909F907F906F905F904F900895CF92D9
:100FD000DF92EF92FF920F931F93CF93DF93EC0179
:100FE0006A017B012115310579F4E881F9810190CD
:100FF000F081E02D642FDF91CF911F910F91FF9031
:10100000EF90DF90CF9009942A30310519F477FDE5
:101010000EC02AE0B701A601CE01DF91CF911F914A
:101020000F91FF90EF90DF90CF900C948B076DE2C3
:101030000E946C078C0144275527BA014C195D09A1
:101040006E097F092AE0CE010E948B07080F191F45
:10105000C801DF91CF911F910F91FF90EF90DF902A
:10106000CF9008959A01AB01662757FD6095762FC2
:101070000C94E70763E087E093E00E94F90A21E01F
:101080004CE553E060E087E093E00E94CF0A64E023
:1010900087E093E00E94FC0961E085EE92E00E9407
:1010A000F90A64E085EE92E00E94FC0961E083ECBD
:1010B00092E00E94F90A64E083EC92E00E94FC094D
:1010C000789408951F920F920FB60F9211242F93C8
:1010D0003F934F935F936F937F938F939F93AF93C0
:1010E000BF93EF93FF93E0912103F0912203309798
:1010F00009F00995FF91EF91BF91AF919F918F9169
:101100007F916F915F914F913F912F910F900FBE03
:101110000F901F9018951F920F920FB60F921124E7
:101120002F933F934F935F936F937F938F939F93EF
:10113000AF93BF93EF93FF93E0912303F0912403C8
:10114000309709F00995FF91EF91BF91AF919F9171
:101150008F917F916F915F914F913F912F910F9060
:101160000FBE0F901F9018951F920F920FB60F92FF
:1011700011242F933F934F935F936F937F938F939C
:101180009F93AF93BF93EF93FF93E0911F03F09171
:101190002003309709F00995FF91EF91BF91AF912E
:1011A0009F918F917F916F915F914F913F912F917F
:1011B0000F900FBE0F901F9018951F920F920FB6B1
:1011C0000F9211242F933F934F935F936F937F93CD
:1011D0008F939F93AF93BF93EF93FF93E091DD02C3
:1011E000F091DE02309709F00995FF91EF91BF91E0
:1011F000AF919F918F917F916F915F914F913F91AF
:101200002F910F900FBE0F901F9018951F920F9265
:101210000FB60F9211242F933F934F935F936F93C9
:101220007F938F939F93AF93BF93EF93FF93E0913F
:10123000DF02F091E002309709F00995FF91EF91FC
:10124000BF91AF919F918F917F916F915F914F91DE
:101250003F912F910F900FBE0F901F9018951F92E6
:101260000F920FB60F9211242F933F934F935F93DA
:101270006F937F938F939F93AF93BF93EF93FF935E
:10128000E091DB02F091DC02309709F00995FF91C3
:10129000EF91BF91AF919F918F917F916F915F91EE
:1012A0004F913F912F910F900FBE0F901F90189567
:1012B0001F920F920FB60F9211242F933F934F93CB
:1012C0005F936F937F938F939F93AF93BF93EF93AE
:1012D000FF93E091FF02F0910003309709F0099528
:1012E000FF91EF91BF91AF919F918F917F916F91FE
:1012F0005F914F913F912F910F900FBE0F901F90D4
:1013000018951F920F920FB60F9211242F933F93AF
:101310004F935F936F937F938F939F93AF93BF93FD
:10132000EF93FF93E0910103F0910203309709F0EE
:101330000995FF91EF91BF91AF919F918F917F910F
:101340006F915F914F913F912F910F900FBE0F9032
:101350001F9018951F920F920FB60F9211242F9382
:101360003F934F935F936F937F938F939F93AF932D
:10137000BF93EF93FF93E091FD02F091FE0230974F
:1013800009F00995FF91EF91BF91AF919F918F91D6
:101390007F916F915F914F913F912F910F900FBE71
:1013A0000F901F9018951F920F920FB60F92112455
:1013B0002F933F934F935F936F937F938F939F935D
:1013C000AF93BF93EF93FF93E0910503F091060372
:1013D000309709F00995FF91EF91BF91AF919F91DF
:1013E0008F917F916F915F914F913F912F910F90CE
:1013F0000FBE0F901F901895DC012C916150223088
:1014000039F4673068F4E62FF0E0E65CFE4F06C082
:10141000693030F4E62FF0E0EF5BFE4F208101C031
:1014200020E0DC011A96ED91FC911B978081887F6A
:10143000822B80830895CF93DF93EC016883613022
:1014400011F120F0623009F06CC048C01B821A8292
:1014500086E490E09D838C838EE690E09F838E836C
:1014600084E490E09987888785E490E09B878A8769
:101470001D861C8687E490E09F878E87198A188ACC
:1014800088E490E022C08FE690E09F838E8385E819
:1014900090E09B838A8384E890E09D838C8380E83E
:1014A00090E09987888781E890E09B878A8789E820
:1014B00090E09D878C8788E890E09F878E878BE8F7
:1014C00090E0998B888B8AE890E09B8B8A8B1D8AB1
:1014D0001C8A1F8A1E8A82E0898323C01B821A828B
:1014E00082EB90E09D838C8380E790E09F838E83E6
:1014F00080EB90E09987888781EB90E09B878A87D3
:101500001D861C8683EB90E09F878E87198A188A38
:1015100084EB90E09B8B8A8B1D8A1C8A1F8A1E8A13
:10152000698360E0CE010E94FC09EA81FB8130976B
:1015300009F01082EC81FD811082198E188E1B8EAD
:101540001A8E1D8E1C8E1F8E1E8E19A218A2DF9160
:10155000CF91089551E0411101C050E06530F0F4A1
:10156000E62FF0E0E65BFE4F408147FD17C0DC014F
:101570001696ED91FC911797808121E030E0042EC2
:1015800001C0220F0A94EAF720952823852F042E04
:1015900001C0880F0A94EAF7282B2083089562304F
:1015A00099F028F4662341F06130C9F409C0633032
:1015B00079F06430A1F410C0FC01518F408F0FC04E
:1015C000FC01538F428F0BC0FC01558F448F07C025
:1015D000FC01578F468F03C0FC0151A340A3452B4C
:1015E00011F440E003C0222319F041E00C94AA0A50
:1015F0000895DC011896ED91FC9119973081262F02
:1016000023703C7F232B20831A96ED91FC911B972E
:1016100080816C70660F877E682B6083089560E020
:1016200087E093E00E941B0A61E085EE92E00E9451
:101630001B0A62E083EC92E00C941B0AA1E21A2ED2
:10164000AA1BBB1BFD010DC0AA1FBB1FEE1FFF1F66
:10165000A217B307E407F50720F0A21BB30BE40BB6
:10166000F50B661F771F881F991F1A9469F76095FD
:101670007095809590959B01AC01BD01CF010895B7
:10168000052E97FB16F4009407D057FD0DD00E944D
:101690001E0B07FC09D07EF490958095709561959E
:1016A0007F4F8F4F9F4F08955095409530952195CE
:1016B0003F4F4F4F5F4F0895EE0FFF1F0590F4917E
:0816C000E02D0994F894FFCF1E
:1016C8000000290320000F000F0001012000000086
:1016D8000000EB01E7010000000048042E07FA03B0
:1016E800FF0325041304000000002004A004A6043E
:1016F800000000001B0494049A0401020304050678
:1017080007010200030004050607000102030500A3
:00000001FF
