:100000000C9442000C946A000C946A000C946A00F0
:100010000C946A000C946A000C946A000C946A00B8
:100020000C946A000C943A090C9463090C948C09A2
:100030000C94300A0C94B5090C94DE090C94070A50
:100040000C94BF080C94E8080C9411090C946A00F5
:100050000C9446070C94F9040C946A000C946A0002
:100060000C946A000C946A000C946A000C946A0068
:100070000C941B070C9447050C946A00D000940361
:1000800071076C0B11241FBECFEFD0E1DEBFCDBFD7
:1000900011E0A0E0B1E0E2E8F7E102C005900D92C6
:1000A000AC34B107D9F713E0ACE4B1E001C01D9264
:1000B000A134B107E1F710E0C4E8D0E004C0229712
:1000C000FE010E94BB0BCC37D107C9F70E94400448
:1000D0000C94BF0B0C940000EF920F9361E08091A1
:1000E00008010E94120461E0809106010E9412043E
:1000F000E12C01E028E040E052EC61E070E08FE7A5
:1001000092E00E94190628E040E051EE60E070E0C5
:1001100083E292E00E94190663E272E084E991E0D2
:100120000F91EF900C94E701CF93DF93CDB7DEB73B
:100130006C970FB6F894DEBF0FBECDBF2D8B3E8BF4
:100140004F8B588F698F7A8F8B8F9C8FCE01019642
:100150000E94BC02BE016B5E7F4FCE0101960E94E1
:10016000FE0280914C018C8BBE016C5E7F4FCE01F4
:1001700001960E94B50261E0CE0101960E94B9028B
:10018000BE016F5F7F4F84E991E00E9424036C966B
:100190000FB6F894DEBF0FBECDBFDF91CF910895AB
:1001A00084E991E00E94D50140E052EA63E170E009
:1001B00040938B0150938C0160938D0170938E015D
:1001C00083E19CE6A6EEB0E480938F0190939001CA
:1001D000A0939101B09392014093830150938401C5
:1001E00060938501709386018093870190938801C5
:1001F000A0938901B0938A0140937B0150937C01C5
:1002000060937D0170937E0180937F0190938001C4
:10021000A0938101B09382014093730150937401C4
:1002200060937501709376018093770190937801C4
:10023000A0937901B0937A0140936B0150936C01C4
:1002400060936D0170936E0180936F0190937001C4
:10025000A0937101B093720121E043E951E06BE892
:1002600071E088E591E00E94D7028EE491E00C9461
:10027000C501CF93DF93CDB7DEB728970FB6F894BB
:10028000DEBF0FBECDBF84E991E00E9425028FE75B
:1002900092E00E944704892B79F08FE792E00E9458
:1002A000720490934D0180934C014AE050E0BC01F0
:1002B0008FE792E00E947D0880914C01809393012A
:1002C00080E092EAA3E1B0E0282F89839A83AB8390
:1002D000BC8383E19CE6A6EEB0E4682F8D839E8309
:1002E000AF83B8873A814B815C817E818F8198850D
:1002F0000E94940062E370E080E090E028960FB6E0
:10030000F894DEBF0FBECDBFDF91CF910C94F00308
:10031000FC018681845F0895FC01611102C0828521
:100320000895613011F481850895623011F480855B
:100330000895633011F487810895643011F486853F
:100340000895653011F485850895663011F484852B
:100350000895673011F483850895683011F4808919
:100360000895693011F4878508956A3011F4818900
:1003700008956B3011F4828908950480F581E02D91
:10038000E60FF11D3C97808108950895FC011782C6
:100390001086158212821382148216820895FC013F
:1003A0001286118614860C94C601FC0112861186F1
:1003B000148615861782108615820E969183808387
:1003C000E458FF4F8FE792E091838083089584582B
:1003D0009F4FFC0171836083089584589F4FDC0117
:1003E0008D919C91DC01ED91FC910480F581E02DD3
:1003F000099521E0892B09F420E0822F0895845883
:100400009F4FDC018D919C91DC01ED91FC9100846A
:10041000F185E02D0995089584589F4FDC018D9159
:100420009C91DC01ED91FC910284F385E02D09940F
:1004300084589F4FFC01A081B181ED91FC911197EF
:100440000190F081E02DCD010994DF92EF92FF92AF
:100450000F931F93CF93DF93EC018F81811179C0AC
:100460008885811176C002E0F02E11E083E0E82E4D
:1004700094E0D92E00E2CE010E94ED01882309F418
:100480006CC0CE010E94FF018B879A85992399F059
:100490008E3711F483E039C08D3769F4CE010E94A4
:1004A000ED01882331F0CE010E94FF0180278B8768
:1004B00002C01987E0CF8985882321F08B858027AA
:1004C0008B8719864A85433020F08C859B85890F60
:1004D0008C87413059F028F0423061F0433091F47C
:1004E0000DC08B858E3739F61A87C5CF8B858B83E8
:1004F000FA86C1CF8B858C83EA86BDCF8B858A83B4
:10050000DA86B9CF4F3618F082E0888726C0242FCC
:1005100030E08C8190E003962817390779F48C85B8
:100520008F3F31F48B858D8381E08F83188602C0E5
:1005300081E0888744504E831A860FC08B85E881FE
:10054000F981E20FF31F349780838A858F5F8A8752
:1005500092CFCE010E94CF0186CFDF91CF911F9124
:100560000F91FF90EF90DF900895FC0175836483F5
:100570000895FC0166830895FC0180E1828381E097
:1005800083831582148216828EE091E091838083AA
:100590001782108611861286138614861586168693
:1005A0008EEF9FEF908B8787118A128A0895CF93E1
:1005B000DF93EC0180E18A8381E08B835D834C8350
:1005C0002E838EE091E0998388831F821886198696
:1005D0001A861B861C861D861E8688E0FB01DE01AE
:1005E000179601900D928A95E1F78EEF9FEF988B09
:1005F0008F87198A1A8ADF91CF91089528E0FB012D
:10060000DC01179601900D922A95E1F708951F934A
:10061000CF93DF93EC01162F442379F0862F8D576B
:10062000823020F0613111F0633139F46DE7CE0191
:100630000E94180260E2612701C0612FCE01DF91A4
:10064000CF911F910C941802DF92EF92FF920F93BB
:100650001F93CF93DF938C01EB016EE70E9418028A
:10066000E881F9810280F381E02DCE010995E82E21
:10067000E881F9810280F381E02DCE010995F82E01
:100680002E2D30E02E5F3F4F41E0632FC8010E94C6
:1006900007036F2D6E5F41E0C8010E94070341E030
:1006A0006A81C8010E94070341E06B81C8010E9472
:1006B0000703DA808B81D80EE12CF12C19C0E88178
:1006C000F9810190F081E02D6E2DCE01099541E078
:1006D000682FC8010E940703E881F9810190F08129
:1006E000E02D6E2DCE010995D80E8FEFE81AF80A8D
:1006F000E881F9810280F381E02DCE010995282F50
:1007000030E0E216F306DCF26D2D609541E0C801A1
:100710000E940703C801DF91CF911F910F91FF90B5
:10072000EF90DF900C940C021092120210921302C0
:1007300010921402109215028FEF9FEFA0E0B0E02C
:100740008093160290931702A0931802B093190297
:10075000089580911B0290911C02A0911D02B091FE
:100760001E0230911A02232F2D5F2D3720F401969F
:10077000A11DB11D05C0232F2A570296A11DB11D31
:1007800020931A0280931B0290931C02A0931D02D7
:10079000B0931E0280911F0290912002A09121022D
:1007A000B09122020196A11DB11D80931F0290936A
:1007B0002002A0932102B093220208950F931F9369
:1007C0008FB7F89400911B0210911C0220911D021A
:1007D00030911E028FBFB801C9011F910F9108957A
:1007E0008F929F92AF92BF92CF92DF92EF92FF9241
:1007F0006B017C010E94DE034B015C010E94DE0361
:10080000681979098A099B096C157D058E059F0574
:10081000A8F3FF90EF90DF90CF90BF90AF909F90A4
:100820008F900895982F977021E030E0092E01C035
:10083000220F0A94EAF786958695869581F0813095
:1008400089F0823091F08330D1F412C080812095FC
:10085000822302C08081822B80839FBF0895EAE2B9
:10086000F0E008C0E7E2F0E005C0E4E2F0E002C03A
:10087000E1E2F0E09FB7F894662341F3EBCF0895EF
:100880000E9497080E946C000E943901FDCFFC0174
:1008900020893189C9010895DC0150962D913C9140
:1008A0005197232B49F05496ED91FC915597E80F01
:1008B000F91F268930E002C02FEF3FEFC9010895EC
:1008C000FC01118A108A158A148A138A128A0895E3
:1008D000FC0124813581C9010895FC012481358101
:1008E000C9010895FC0180899189892BD1F03FB716
:1008F000F894808991890197918B808B848995895F
:10090000DF01A80FB91F56962C91019680329105F0
:100910001CF4958B848B02C0158A148A3FBF30E08B
:1009200002C02FEF3FEFC9010895EF92FF921F938E
:10093000CF93DF931F92CDB7DEB77C01D701DA9654
:100940008D919C91DB974097C8F71FB7F894D69686
:10095000ED91FC91D7970190F081E02DC701C696EB
:100960006983099569814097C8F4F70182AD93AD19
:10097000019693AF82AF84AD95ADE80FF91FE05CAF
:10098000FF4F60830196D701DD969C938E93DC9791
:10099000409724F0DD961C921E92DC97F701EA5AEC
:1009A000FF4F0190F081E02D8081806280831FBF26
:1009B00081E090E00F90DF91CF911F91FF90EF9039
:1009C0000895665F7F4F680F791FCB010895665FBA
:1009D0007F4F680F791FCB010895665F7F4F680FC7
:1009E000791FCB010895665F7F4F680F791FCB0198
:1009F00008951F920F920FB60F9211242F938F9389
:100A00009F93AF93BF93EF93FF938091B90290911F
:100A1000BA02892B21F1E091D902F091DA0280919A
:100A2000B9029091BA0201979093BA028093B902E9
:100A30008091BD029091BE02DC01AB54BD4F1A966D
:100A40002C910196803191052CF49093BE028093F5
:100A5000BD0204C01092BE021092BD02208380919C
:100A6000B9029091BA02892B31F4E091D502F0914C
:100A7000D60288E98083FF91EF91BF91AF919F915A
:100A80008F912F910F900FBE0F901F9018951F926E
:100A90000F920FB60F9211242F938F939F93AF93C2
:100AA000BF93EF93FF9380915D0290915E02892B3B
:100AB00021F1E0917D02F0917E0280915D029091A2
:100AC0005E02019790935E0280935D0280916102C5
:100AD00090916202DC01A75ABD4F1A962C910196A3
:100AE000803191052CF4909362028093610204C0DE
:100AF0001092620210926102208380915D029091B7
:100B00005E02892B31F4E0917902F0917A0288E952
:100B10008083FF91EF91BF91AF919F918F912F9122
:100B20000F900FBE0F901F901895FC01262F138277
:100B3000128248EE53E060E070E0448355836683A0
:100B4000778386E191E09183808386E291E09587C7
:100B5000848780E290E097878687118A108A158AB9
:100B6000148A138A128A80E391E097AB86AB80E106
:100B700090E091AF80AF13AE12AE17AE16AE15AEC9
:100B800014AE222321F0213009F052C028C0DF0129
:100B9000A05BBF4F85EC90E08D939C93DF01AE5A34
:100BA000BF4F84EC90E08D939C93DF01AC5ABF4F14
:100BB00080EC90E08D939C93DF01AA5ABF4F81ECAB
:100BC00090E08D939C93DF01A85ABF4F82EC90E098
:100BD0008D939C93E65AFF4F86EC90E027C0DF018F
:100BE000A05BBF4F8DEC90E08D939C93DF01AE5ADC
:100BF000BF4F8CEC90E08D939C93DF01AC5ABF4FBC
:100C000088EC90E08D939C93DF01AA5ABF4F89EC4A
:100C100090E08D939C93DF01A85ABF4F8AEC90E03F
:100C20008D939C93E65AFF4F8EEC90E091838083E6
:100C300008953F924F925F926F927F928F929F9210
:100C4000AF92BF92CF92DF92EF92FF920F931F93DA
:100C5000CF93DF93EC014A015B01122F3E2C60E041
:100C600072E18AE790E0A50194010E947B0B690183
:100C70007A0184E0C80ED11CE11CF11C83E0F694DB
:100C8000E794D794C7948A95D1F760E074E284EF33
:100C900090E0A50194010E947B0B29013A0194E0A8
:100CA000490E511C611C711C93E076946794579413
:100CB00047949A95D1F7A30192014427552760E8FC
:100CC00074E88EE190E00E949D0B5901A818B908C4
:100CD000B7FE03C0B194A194B108A70196014427BF
:100CE000552760E472E48FE090E00E949D0B281984
:100CF000390937FF03C0319521953109FE01EC5ABE
:100D0000FF4F0190F081E02DA216B3063CF482E083
:100D10008083620181E0C81AD10804C0108291E08A
:100D2000C91AD1081630C1F018F4153099F405C06D
:100D3000173029F0193071F404C080E00EC084E04F
:100D40000CC0FE01EA5AFF4F0190F081E02D808136
:100D50008460808386E001C082E0023009F488600C
:100D600091E0391621F092E0391204C002C080638C
:100D700001C08062FE01E85AFF4F0190F081E02D32
:100D80008083FE01E05BFF4F0190F081E02DD08277
:100D9000FE01EE5AFF4F0190F081E02DC082CA5A49
:100DA000DF4FE881F98188E98083DF91CF911F913E
:100DB0000F91FF90EF90DF90CF90BF90AF909F90FA
:100DC0008F907F906F905F904F903F9008950F931A
:100DD0001F93CF93DF931F92CDB7DEB78C01DC0159
:100DE000ED91FC910190F081E02D69830995698175
:100DF0008097D0F4F801848195810196958384834E
:100E000086819781E80FF91F6287019680329105EC
:100E100034F4D80117969C938E93169703C0F8016B
:100E20001782168281E001C080E00F90DF91CF91A0
:100E30001F910F9108951F920F920FB60F921124D8
:100E40002F933F934F935F936F937F938F939F93D2
:100E5000AF93BF93EF93FF93E0917D02F0917E02F9
:100E600060818FE292E00E94E706FF91EF91BF91CF
:100E7000AF919F918F917F916F915F914F913F9132
:100E80002F910F900FBE0F901F9018951F920F92E9
:100E90000FB60F9211242F933F934F935F936F934D
:100EA0007F938F939F93AF93BF93EF93FF93E091C3
:100EB000D902F091DA0260818BE892E00E94E706A5
:100EC000FF91EF91BF91AF919F918F917F916F9122
:100ED0005F914F913F912F910F900FBE0F901F90F8
:100EE000189560E08FE792E00E94950561E083E24B
:100EF00092E00C949505CF92DF92EF92FF920F93C0
:100F00001F93CF93DF936C01EB017A01E60EF71E7E
:100F100000E010E00BC06991D601ED91FC910190C9
:100F2000F081E02DC6010995080F191FCE15DF05C8
:100F300091F7C801DF91CF911F910F91FF90EF9032
:100F4000DF90CF9008956115710581F0DB010D9060
:100F50000020E9F7AD0141505109461B570BDC0158
:100F6000ED91FC910280F381E02D099480E090E006
:100F70000895DC01ED91FC910190F081E02D099440
:100F80000F931F93CF93DF93EC016DE00E94B9079D
:100F90008C016AE0CE010E94B9079C01200F311F2D
:100FA000C901DF91CF911F910F9108954F925F92E8
:100FB0006F927F929F92AF92BF92CF92DF92EF9209
:100FC000FF920F931F93CF93DF93CDB7DEB7A19717
:100FD0000FB6F894DEBF0FBECDBF5C016A017B0186
:100FE000922E19A281E0821710F08AE0982E8E01CD
:100FF0000F5D1F4F492C512C612C712CC701B6017C
:10100000A30192010E947B0B8C2D929E80191124CA
:10101000015011098A3014F4805D01C0895CF80127
:10102000808369017A01C114D104E104F10431F72C
:10103000B801C5010E94A307A1960FB6F894DEBFC0
:101040000FBECDBFDF91CF911F910F91FF90EF9019
:10105000DF90CF90BF90AF909F907F906F905F9008
:101060004F900895CF92DF92EF92FF920F931F93CC
:10107000CF93DF93EC016A017B012115310579F4EF
:10108000E881F9810190F081E02D642FDF91CF910B
:101090001F910F91FF90EF90DF90CF9009942A302D
:1010A000310519F477FD0EC02AE0B701A601CE0183
:1010B000DF91CF911F910F91FF90EF90DF90CF9034
:1010C0000C94D6076DE20E94B9078C01442755277E
:1010D000BA014C195D096E097F092AE0CE010E9410
:1010E000D607080F191FC801DF91CF911F910F91EB
:1010F000FF90EF90DF90CF9008950F931F93CF93C1
:10110000DF93EC019A01AB01662757FD6095762FBE
:101110000E9432088C01CE010E94C0079801280F5E
:10112000391FC901DF91CF911F910F91089563E09D
:101130008FE193E00E94560B21E049EA53E060E022
:101140008FE193E00E942C0B64E08FE193E00E941A
:10115000590A61E08DEF92E00E94560B64E08DEF3A
:1011600092E00E94590A61E08BED92E00E94560BDA
:1011700064E08BED92E00E94590A789408951F92E2
:101180000F920FB60F9211242F933F934F935F93BB
:101190006F937F938F939F93AF93BF93EF93FF933F
:1011A000E0913903F0913A03309709F00995FF91E6
:1011B000EF91BF91AF919F918F917F916F915F91CF
:1011C0004F913F912F910F900FBE0F901F90189548
:1011D0001F920F920FB60F9211242F933F934F93AC
:1011E0005F936F937F938F939F93AF93BF93EF938F
:1011F000FF93E0913B03F0913C03309709F0099590
:10120000FF91EF91BF91AF919F918F917F916F91DE
:101210005F914F913F912F910F900FBE0F901F90B4
:1012200018951F920F920FB60F9211242F933F9390
:101230004F935F936F937F938F939F93AF93BF93DE
:10124000EF93FF93E0913703F0913803309709F063
:101250000995FF91EF91BF91AF919F918F917F91F0
:101260006F915F914F913F912F910F900FBE0F9013
:101270001F9018951F920F920FB60F9211242F9363
:101280003F934F935F936F937F938F939F93AF930E
:10129000BF93EF93FF93E091F502F091F602309740
:1012A00009F00995FF91EF91BF91AF919F918F91B7
:1012B0007F916F915F914F913F912F910F900FBE52
:1012C0000F901F9018951F920F920FB60F92112436
:1012D0002F933F934F935F936F937F938F939F933E
:1012E000AF93BF93EF93FF93E091F702F091F80271
:1012F000309709F00995FF91EF91BF91AF919F91C0
:101300008F917F916F915F914F913F912F910F90AE
:101310000FBE0F901F9018951F920F920FB60F924D
:1013200011242F933F934F935F936F937F938F93EA
:101330009F93AF93BF93EF93FF93E091F302F091EC
:10134000F402309709F00995FF91EF91BF91AF91A9
:101350009F918F917F916F915F914F913F912F91CD
:101360000F900FBE0F901F9018951F920F920FB6FF
:101370000F9211242F933F934F935F936F937F931B
:101380008F939F93AF93BF93EF93FF93E0911703D6
:10139000F0911803309709F00995FF91EF91BF91F3
:1013A000AF919F918F917F916F915F914F913F91FD
:1013B0002F910F900FBE0F901F9018951F920F92B4
:1013C0000FB60F9211242F933F934F935F936F9318
:1013D0007F938F939F93AF93BF93EF93FF93E0918E
:1013E0001903F0911A03309709F00995FF91EF91D5
:1013F000BF91AF919F918F917F916F915F914F912D
:101400003F912F910F900FBE0F901F9018951F9234
:101410000F920FB60F9211242F933F934F935F9328
:101420006F937F938F939F93AF93BF93EF93FF93AC
:10143000E0911503F0911603309709F00995FF919B
:10144000EF91BF91AF919F918F917F916F915F913C
:101450004F913F912F910F900FBE0F901F901895B5
:101460001F920F920FB60F9211242F933F934F9319
:101470005F936F937F938F939F93AF93BF93EF93FC
:10148000FF93E0911D03F0911E03309709F0099539
:10149000FF91EF91BF91AF919F918F917F916F914C
:1014A0005F914F913F912F910F900FBE0F901F9022
:1014B0001895DC012C916150223039F4673068F4C2
:1014C000E62FF0E0EA5CFE4F06C0693030F4E62F0C
:1014D000F0E0E35CFE4F208101C020E0DC011A96C1
:1014E000ED91FC911B978081887F822B80830895EA
:1014F000CF93DF93EC016883613011F120F062300B
:1015000009F06CC048C01B821A8286E490E09D837B
:101510008C838EE690E09F838E8384E490E09987AD
:10152000888785E490E09B878A871D861C8687E4F0
:1015300090E09F878E87198A188A88E490E022C0FD
:101540008FE690E09F838E8385E890E09B838A837B
:1015500084E890E09D838C8380E890E09987888779
:1015600081E890E09B878A8789E890E09D878C8757
:1015700088E890E09F878E878BE890E0998B888B36
:101580008AE890E09B8B8A8B1D8A1C8A1F8A1E8AA0
:1015900082E0898323C01B821A8282EB90E09D83C4
:1015A0008C8380E790E09F838E8380EB90E0998727
:1015B000888781EB90E09B878A871D861C8683EB5A
:1015C00090E09F878E87198A188A84EB90E09B8B26
:1015D0008A8B1D8A1C8A1F8A1E8A698360E0CE015D
:1015E0000E94590AEA81FB81309709F01082EC8150
:1015F000FD811082198E188E1B8E1A8E1D8E1C8EE8
:101600001F8E1E8E19A218A2DF91CF91089551E06E
:10161000411101C050E06530F0F4E62FF0E0EA5BE4
:10162000FE4F408147FD17C0DC011696ED91FC91FD
:101630001797808121E030E0042E01C0220F0A9428
:10164000EAF720952823852F042E01C0880F0A94DD
:10165000EAF7282B20830895623099F028F4662356
:1016600041F06130C9F409C0633079F06430A1F40D
:1016700010C0FC01518F408F0FC0FC01538F428F6F
:101680000BC0FC01558F448F07C0FC01578F468F5C
:1016900003C0FC0151A340A3452B11F440E003C05B
:1016A000222319F041E00C94070B0895DC011896F1
:1016B000ED91FC9119973081262F23703C7F232BCD
:1016C00020831A96ED91FC911B9780816C70660FB8
:1016D000877E682B6083089560E08FE193E00E942D
:1016E000780A61E08DEF92E00E94780A62E08BED6B
:1016F00092E00C94780AA1E21A2EAA1BBB1BFD01F2
:101700000DC0AA1FBB1FEE1FFF1FA217B307E407E0
:10171000F50720F0A21BB30BE40BF50B661F771F38
:10172000881F991F1A9469F7609570958095909518
:101730009B01AC01BD01CF010895052E97FB16F466
:10174000009407D057FD0DD00E947B0B07FC09D0F9
:101750007EF490958095709561957F4F8F4F9F4F48
:10176000089550954095309521953F4F4F4F5F4FCD
:101770000895EE0FFF1F0590F491E02D0994F89461
:02178000FFCF99
:101782000000410320000F000F00000000008C0148
:1017920088010000000095047B0747044C04720492
:1017A2006004000000006D04ED04F304000000007A
:1017B2006804E104E70401020304050607010200CC
:0C17C200030004050607000102030500F7
:00000001FF
