:100000000C9442000C946A000C946A000C946A00F0
:100010000C946A000C946A000C946A000C946A00B8
:100020000C946A000C94C3090C94EC090C94150A06
:100030000C94B90A0C943E0A0C94670A0C94900A2A
:100040000C9448090C9471090C949A090C946A0058
:100050000C9479070C942C050C946A000C946A009B
:100060000C946A000C946A000C946A000C946A0068
:100070000C944E070C947A050C946A003601BE036A
:10008000A407F50B11241FBECFEFD0E1DEBFCDBF1B
:1000900011E0A0E0B1E0E2EEF8E102C005900D92BF
:1000A000AE34B107D9F713E0AEE4B1E001C01D9260
:1000B000AF32B107E1F710E0C4E8D0E004C0229706
:1000C000FE010E945F0CCC37D107C9F70E94730470
:1000D0000C946F0C0C9400000F931F93CF93DF933D
:1000E000CDB7DEB728970FB6F894DEBF0FBECDBFF1
:1000F00009831A832B833C834D835E836F837887C8
:10010000FC011082118212821382148215821682DF
:10011000178228E0FE013196DC0101900D922A95AC
:10012000E1F7FC011086118628960FB6F894DEBF21
:100130000FBECDBFDF91CF911F910F910895FC01AC
:1001400060870895FC0180850895FC018085918574
:10015000891719F0818781E0089580E00895CF9391
:10016000DF93CDB7DEB728970FB6F894DEBF0FBE8A
:10017000CDBF28E0FC01DE01119601900D922A9579
:10018000E1F729813A814B815C816D817E818F818C
:10019000988528960FB6F894DEBF0FBECDBFDF91CD
:1001A000CF910895EF920F93E12C01E028E040E019
:1001B00051EE60E070E08DE692E00E944C0628E08F
:1001C00040E051EE60E070E081E192E00E944C0678
:1001D00061E172E082E891E00F91EF900C94E1020E
:1001E0000F93CF93DF93CDB7DEB76C970FB6F8942C
:1001F000DEBF0FBECDBF2D8B3E8B4F8B588F698FCF
:100200007A8F8B8F9C8FCE0101960E940A03BE01CC
:100210006B5E7F4FCE0101960E9425030C8BBE01C1
:100220006C5E7F4FCE0101960E94030361E0CE0118
:1002300001960E94070360E0CE0101960E94000330
:1002400061E0CE0101960E942E03BE016F5F7F4FD9
:1002500082E891E00E944E036C960FB6F894DEBFE0
:100260000FBECDBFDF91CF910F910895CF92DF9256
:10027000EF92FF920F931F93CF93DF93CDB7DEB72B
:1002800028970FB6F894DEBF0FBECDBF82E891E08D
:100290000E94CF02C12C82EAD82E83E1E82EF12CF5
:1002A0000C2DC982DA82EB82FC8283E19CE6A6EE09
:1002B000B0E4482F8D839E83AF83B8871A812B814A
:1002C0003C815E816F81788580E591E00E946C00C1
:1002D000C982DA82EB82FC8287ED9DE6A6EEB0E46D
:1002E000482F8D839E83AF83B8871A812B813C81F1
:1002F0005E816F8178858AE591E00E946C00C982F9
:10030000DA82EB82FC8289E49CE6A6EEB0E4482F18
:100310008D839E83AF83B8871A812B813C815E8158
:100320006F81788584E691E00E946C00C982DA8250
:10033000EB82FC8288E19CE6A6EEB0E4482F8D8338
:100340009E83AF83B8871A812B813C815E816F8148
:1003500078858EE691E00E946C00C982DA82EB8299
:10036000FC828FE29CE6A6EEB0E4482F8D839E834C
:10037000AF83B8871A812B813C815E816F8178853C
:1003800088E791E00E946C0028960FB6F894DEBFD3
:100390000FBECDBFDF91CF911F910F91FF90EF90D6
:1003A000DF90CF9008957F928F929F92AF92BF92ED
:1003B000CF92DF92EF92FF920F931F93CF93DF9331
:1003C000CDB7DEB760970FB6F894DEBF0FBECDBFD6
:1003D00085E00E94DA039C0197FF02C02D5F3F4F2A
:1003E000359527953595279530934F0120934E01EC
:1003F00054EB852E6AE0962E78E0772E78C08DE655
:1004000092E00E94A504BC01882777FD8095982F73
:100410001F921F921F928F92A12CB12C65011FE792
:10042000E12EF12C00E010E021E030E040E050E06F
:100430000E94CA08F62EC62ED72E0F900F900F904E
:100440000F9000E010E0909EC001919E900D11244D
:100450006F2D805B9E4F0E949F000F5F1F4F0530E6
:10046000110589F7E12CF12C9E9C80019F9C100DB9
:100470001124005B1E4FC8010E94A500882319F1BA
:10048000C8010E94A200B82EC8010E94AF002987AF
:100490003A874B875C876D877E878F87988BFE01B5
:1004A0003996DE011196872D01900D928A95E1F71C
:1004B0000B2D29813A814B815C816D817E818F81F9
:1004C00098850E94F0008FEFE81AF80A85E0E81698
:1004D000F10451F662E370E080E090E00E94510484
:1004E00040E050E0B6018DE692E00E94B0088DE653
:1004F00092E00E947A04892B09F081CF60960FB6B2
:10050000F894DEBF0FBECDBFDF91CF911F910F9149
:10051000FF90EF90DF90CF90BF90AF909F908F9023
:100520007F900895FC018681845F0895FC0161112C
:1005300002C082850895613011F48185089562308A
:1005400011F480850895633011F487810895643033
:1005500011F486850895653011F485850895663017
:1005600011F484850895673011F483850895683007
:1005700011F480890895693011F4878508956A30EF
:1005800011F4818908956B3011F4828908950480F3
:10059000F581E02DE60FF11D3C9780810895FC0167
:1005A00012861186148615861782108615820E967D
:1005B00091838083E458FF4F8DE692E0918380839E
:1005C000089584589F4FFC01718360830895845877
:1005D0009F4FDC018D919C91DC01ED91FC91028497
:1005E000F385E02D099484589F4FFC01A081B181CF
:1005F000ED91FC9111970190F081E02DCD010994CE
:10060000FC0163830895FC01758364830895FC01F4
:1006100066830895FC0180E1828381E083831582F3
:100620001482168280E191E0918380831782108684
:100630001186128613861486158616868EEF9FEF16
:10064000908B8787118A128A089528E0FB01DC01CC
:10065000179601900D922A95E1F70895FC01628B9F
:1006600008951F93CF93DF93EC01162F442379F065
:10067000862F8D57823020F0613111F0633139F4CB
:100680006DE7CE010E94F30260E2612701C0612F95
:10069000CE01DF91CF911F910C94F302DF92EF9284
:1006A000FF920F931F93CF93DF938C01EB016EE7C3
:1006B0000E94F302E881F9810280F381E02DCE01EE
:1006C0000995E82EE881F9810280F381E02DCE01C1
:1006D0000995F82E2E2D30E02E5F3F4F41E0632F1D
:1006E000C8010E9431036F2D6E5F41E0C8010E9476
:1006F000310341E06A81C8010E94310341E06B810E
:10070000C8010E943103DA808B81D80EE12CF12CD4
:1007100019C0E881F9810190F081E02D6E2DCE01A4
:10072000099541E0682FC8010E943103E881F981F1
:100730000190F081E02D6E2DCE010995D80E8FEF3E
:10074000E81AF80AE881F9810280F381E02DCE01F0
:100750000995282F30E0E216F306DCF26D2D609546
:1007600041E0C8010E943103C801DF91CF911F9180
:100770000F91FF90EF90DF900C94E702109200022F
:100780001092010210920202109203028FEF9FEF6B
:10079000A0E0B0E08093040290930502A0930602CB
:1007A000B0930702089580E480937C0087E88093EB
:1007B0007A000895CF93DF931F92CDB7DEB7909163
:1007C0000A01913031F489830E94D30310920A0107
:1007D0008981877020910B0140E4249F90011124AE
:1007E000822B80937C0080917A00806480937A00D1
:1007F00080917A0086FDFCCF2091780030917900BD
:10080000932F80E0FC01E22B9F01C9010F90DF9143
:10081000CF9108958091090290910A02A0910B0254
:10082000B0910C0230910802232F2D5F2D3720F458
:100830000196A11DB11D05C0232F2A570296A11DA7
:10084000B11D209308028093090290930A02A0939D
:100850000B02B0930C0280910D0290910E02A091B8
:100860000F02B09110020196A11DB11D80930D02DF
:1008700090930E02A0930F02B093100208950F936D
:100880001F938FB7F8940091090210910A022091EA
:100890000B0230910C028FBFB801C9011F910F915B
:1008A00008958F929F92AF92BF92CF92DF92EF9274
:1008B000FF926B017C010E943F044B015C010E948E
:1008C0003F04681979098A099B096C157D058E0515
:1008D0009F05A8F3FF90EF90DF90CF90BF90AF906F
:1008E0009F908F9008950E9420090E94D2000E943C
:1008F000D301FDCFFC0120893189C9010895DC01B4
:1009000050962D913C915197232B49F05496ED919F
:10091000FC915597E80FF91F268930E002C02FEFB0
:100920003FEFC9010895FC01118A108A158A148AC3
:10093000138A128A0895FC0124813581C901089522
:10094000FC0124813581C9010895FC0180899189C8
:10095000892BD1F03FB7F894808991890197918BC9
:10096000808B84899589DF01A80FB91F56962C9139
:100970000196803291051CF4958B848B02C0158AF8
:10098000148A3FBF30E002C02FEF3FEFC901089546
:10099000EF92FF921F93CF93DF931F92CDB7DEB7F5
:1009A0007C01D701DA968D919C91DB974097C8F72F
:1009B0001FB7F894D696ED91FC91D7970190F081EE
:1009C000E02DC701C6966983099569814097C8F4EF
:1009D000F70182AD93AD019693AF82AF84AD95AD33
:1009E000E80FF91FE05CFF4F60830196D701DD96A9
:1009F0009C938E93DC97409724F0DD961C921E9278
:100A0000DC97F701EA5AFF4F0190F081E02D8081D9
:100A1000806280831FBF81E090E00F90DF91CF91D3
:100A20001F91FF90EF900895665F7F4F680F791FC9
:100A3000CB010895665F7F4F680F791FCB01089542
:100A4000665F7F4F680F791FCB010895665F7F4F08
:100A5000680F791FCB0108951F920F920FB60F9266
:100A600011242F938F939F93AF93BF93EF93FF9393
:100A70008091A7029091A802892B21F1E091C702F1
:100A8000F091C8028091A7029091A80201979093DB
:100A9000A8028093A7028091AB029091AC02DC0186
:100AA000AD55BD4F1A962C910196803191052CF4CD
:100AB0009093AC028093AB0204C01092AC021092EF
:100AC000AB0220838091A7029091A802892B31F478
:100AD000E091C302F091C40288E98083FF91EF9115
:100AE000BF91AF919F918F912F910F900FBE0F905B
:100AF0001F9018951F920F920FB60F9211242F93EB
:100B00008F939F93AF93BF93EF93FF9380914B028B
:100B100090914C02892B21F1E0916B02F0916C02D3
:100B200080914B0290914C02019790934C028093DC
:100B30004B0280914F0290915002DC01A95BBD4FA6
:100B40001A962C910196803191052CF490935002C5
:100B500080934F0204C01092500210924F022083E3
:100B600080914B0290914C02892B31F4E091670205
:100B7000F091680288E98083FF91EF91BF91AF9176
:100B80009F918F912F910F900FBE0F901F901895EE
:100B9000FC01262F1382128248EE53E060E070E0E1
:100BA000448355836683778388E191E091838083D2
:100BB00088E291E09587848780E290E09787868736
:100BC000118A108A158A148A138A128A82E391E0A4
:100BD00097AB86AB80E190E091AF80AF13AE12AEE1
:100BE00017AE16AE15AE14AE222321F0213009F057
:100BF00052C028C0DF01A05BBF4F85EC90E08D9311
:100C00009C93DF01AE5ABF4F84EC90E08D939C9390
:100C1000DF01AC5ABF4F80EC90E08D939C93DF01D5
:100C2000AA5ABF4F81EC90E08D939C93DF01A85AA4
:100C3000BF4F82EC90E08D939C93E65AFF4F86EC79
:100C400090E027C0DF01A05BBF4F8DEC90E08D935B
:100C50009C93DF01AE5ABF4F8CEC90E08D939C9338
:100C6000DF01AC5ABF4F88EC90E08D939C93DF017D
:100C7000AA5ABF4F89EC90E08D939C93DF01A85A4C
:100C8000BF4F8AEC90E08D939C93E65AFF4F8EEC19
:100C900090E09183808308953F924F925F926F928C
:100CA0007F928F929F92AF92BF92CF92DF92EF92FC
:100CB000FF920F931F93CF93DF93EC014A015B01E7
:100CC000122F3E2C60E072E18AE790E0A5019401CA
:100CD0000E94140C69017A0184E0C80ED11CE11C49
:100CE000F11C83E0F694E794D794C7948A95D1F7E2
:100CF00060E074E284EF90E0A50194010E94140C7E
:100D000029013A0194E0490E511C611C711C93E0C9
:100D100076946794579447949A95D1F7A3019201DA
:100D20004427552760E874E88EE190E00E94360C75
:100D30005901A818B908B7FE03C0B194A194B1082D
:100D4000A70196014427552760E472E48FE090E004
:100D50000E94360C2819390937FF03C031952195B7
:100D60003109FE01EC5AFF4F0190F081E02DA216EF
:100D7000B3063CF482E08083620181E0C81AD108A6
:100D800004C0108291E0C91AD1081630C1F018F4DD
:100D9000153099F405C0173029F0193071F404C0EA
:100DA00080E00EC084E00CC0FE01EA5AFF4F0190C3
:100DB000F081E02D80818460808386E001C082E044
:100DC000023009F4886091E0391621F092E039127E
:100DD00004C002C0806301C08062FE01E85AFF4F78
:100DE0000190F081E02D8083FE01E05BFF4F0190D8
:100DF000F081E02DD082FE01EE5AFF4F0190F0818C
:100E0000E02DC082CA5ADF4FE881F98188E98083EA
:100E1000DF91CF911F910F91FF90EF90DF90CF90D6
:100E2000BF90AF909F908F907F906F905F904F900A
:100E30003F9008950F931F93CF93DF931F92CDB7E9
:100E4000DEB78C01DC01ED91FC910190F081E02D89
:100E50006983099569818097D0F4F801848195812F
:100E600001969583848386819781E80FF91F6287B5
:100E700001968032910534F4D80117969C938E9395
:100E8000169703C0F8011782168281E001C080E046
:100E90000F90DF91CF911F910F9108951F920F92A4
:100EA0000FB60F9211242F933F934F935F936F933D
:100EB0007F938F939F93AF93BF93EF93FF93E091B3
:100EC0006B02F0916C0260818DE192E00E941A0742
:100ED000FF91EF91BF91AF919F918F917F916F9112
:100EE0005F914F913F912F910F900FBE0F901F90E8
:100EF00018951F920F920FB60F9211242F933F93C4
:100F00004F935F936F937F938F939F93AF93BF9311
:100F1000EF93FF93E091C702F091C802608189E7E7
:100F200092E00E941A07FF91EF91BF91AF919F91BC
:100F30008F917F916F915F914F913F912F910F9082
:100F40000FBE0F901F90189560E08DE692E00E9412
:100F5000C80561E081E192E00C94C805CF92DF9270
:100F6000EF92FF920F931F93CF93DF936C01EB01EE
:100F70007A01E60EF71E00E010E00BC06991D60181
:100F8000ED91FC910190F081E02DC6010995080FCB
:100F9000191FCE15DF0591F7C801DF91CF911F9181
:100FA0000F91FF90EF90DF90CF900895611571053C
:100FB00081F0DB010D900020E9F7AD0141505109AE
:100FC000461B570BDC01ED91FC910280F381E02D73
:100FD000099480E090E00895DC01ED91FC9101908E
:100FE000F081E02D09940F931F93CF93DF93EC01D1
:100FF0006DE00E94EC078C016AE0CE010E94EC07D4
:101000009C01200F311FC901DF91CF911F910F91DA
:1010100008954F925F926F927F929F92AF92BF928C
:10102000CF92DF92EF92FF920F931F93CF93DF93B4
:10103000CDB7DEB7A1970FB6F894DEBF0FBECDBF18
:101040005C016A017B01922E19A281E0821710F0E7
:101050008AE0982E8E010F5D1F4F492C512C612C78
:10106000712CC701B601A30192010E94140C8C2DB2
:10107000929E80191124015011098A3014F4805D68
:1010800001C0895CF801808369017A01C114D1042F
:10109000E104F10431F7B801C5010E94D607A19619
:1010A0000FB6F894DEBF0FBECDBFDF91CF911F9179
:1010B0000F91FF90EF90DF90CF90BF90AF909F90F7
:1010C0007F906F905F904F900895CF92DF92EF9254
:1010D000FF920F931F93CF93DF93EC016A017B0183
:1010E0002115310579F4E881F9810190F081E02D35
:1010F000642FDF91CF911F910F91FF90EF90DF90C0
:10110000CF9009942A30310519F477FD0EC02AE0FA
:10111000B701A601CE01DF91CF911F910F91FF90F2
:10112000EF90DF90CF900C9409086DE20E94EC07DD
:101130008C0144275527BA014C195D096E097F09B6
:101140002AE0CE010E940908080F191FC801DF918B
:10115000CF911F910F91FF90EF90DF90CF90089566
:101160000F931F93CF93DF93EC019A01AB01662796
:1011700057FD6095762F0E9465088C01CE010E9474
:10118000F3079801280F391FC901DF91CF911F91F3
:101190000F9108954F925F926F927F92AF92BF929C
:1011A000CF92DF92EF92FF920F931F93CF93DF9333
:1011B00000D000D0CDB7DEB72B013C0129833A83A4
:1011C0004B835C836D897E898F89988D421A530A7F
:1011D000640A750A6A197B098C099D096F5F7F4F44
:1011E0008F4F9F4FA30192010E94040C29813A81E5
:1011F0004B815C81E21AF30A040B150B3FEFE31AF3
:10120000F30A0F4F1F4FA80197010E94360C2A0DB9
:101210003B1D4C1D5D1DB901CA010F900F900F9031
:101220000F90DF91CF911F910F91FF90EF90DF9082
:10123000CF90BF90AF907F906F905F904F90089548
:1012400063E08DE093E00E94DF0B21E04AE054E090
:1012500060E08DE093E00E94B50B64E08DE093E0E8
:101260000E94E20A61E08BEE92E00E94DF0B64E0F4
:101270008BEE92E00E94E20A61E089EC92E00E942B
:10128000DF0B64E089EC92E00E94E20A7894089512
:101290001F920F920FB60F9211242F933F934F93EB
:1012A0005F936F937F938F939F93AF93BF93EF93CE
:1012B000FF93E0912703F0912803309709F00995F7
:1012C000FF91EF91BF91AF919F918F917F916F911E
:1012D0005F914F913F912F910F900FBE0F901F90F4
:1012E00018951F920F920FB60F9211242F933F93D0
:1012F0004F935F936F937F938F939F93AF93BF931E
:10130000EF93FF93E0912903F0912A03309709F0BE
:101310000995FF91EF91BF91AF919F918F917F912F
:101320006F915F914F913F912F910F900FBE0F9052
:101330001F9018951F920F920FB60F9211242F93A2
:101340003F934F935F936F937F938F939F93AF934D
:10135000BF93EF93FF93E0912503F091260330971D
:1013600009F00995FF91EF91BF91AF919F918F91F6
:101370007F916F915F914F913F912F910F900FBE91
:101380000F901F9018951F920F920FB60F92112475
:101390002F933F934F935F936F937F938F939F937D
:1013A000AF93BF93EF93FF93E091E302F091E402D8
:1013B000309709F00995FF91EF91BF91AF919F91FF
:1013C0008F917F916F915F914F913F912F910F90EE
:1013D0000FBE0F901F9018951F920F920FB60F928D
:1013E00011242F933F934F935F936F937F938F932A
:1013F0009F93AF93BF93EF93FF93E091E502F0913A
:10140000E602309709F00995FF91EF91BF91AF91F6
:101410009F918F917F916F915F914F913F912F910C
:101420000F900FBE0F901F9018951F920F920FB63E
:101430000F9211242F933F934F935F936F937F935A
:101440008F939F93AF93BF93EF93FF93E091E1024C
:10145000F091E202309709F00995FF91EF91BF9169
:10146000AF919F918F917F916F915F914F913F913C
:101470002F910F900FBE0F901F9018951F920F92F3
:101480000FB60F9211242F933F934F935F936F9357
:101490007F938F939F93AF93BF93EF93FF93E091CD
:1014A0000503F0910603309709F00995FF91EF913C
:1014B000BF91AF919F918F917F916F915F914F916C
:1014C0003F912F910F900FBE0F901F9018951F9274
:1014D0000F920FB60F9211242F933F934F935F9368
:1014E0006F937F938F939F93AF93BF93EF93FF93EC
:1014F000E0910703F0910803309709F00995FF91F7
:10150000EF91BF91AF919F918F917F916F915F917B
:101510004F913F912F910F900FBE0F901F901895F4
:101520001F920F920FB60F9211242F933F934F9358
:101530005F936F937F938F939F93AF93BF93EF933B
:10154000FF93E0910303F0910403309709F00995AC
:10155000FF91EF91BF91AF919F918F917F916F918B
:101560005F914F913F912F910F900FBE0F901F9061
:1015700018951F920F920FB60F9211242F933F933D
:101580004F935F936F937F938F939F93AF93BF938B
:10159000EF93FF93E0910B03F0910C03309709F068
:1015A0000995FF91EF91BF91AF919F918F917F919D
:1015B0006F915F914F913F912F910F900FBE0F90C0
:1015C0001F901895DC012C916150223039F467305E
:1015D00068F4E62FF0E0E85CFE4F06C0693030F4B6
:1015E000E62FF0E0E15CFE4F208101C020E0DC014D
:1015F0001A96ED91FC911B978081887F822B8083C6
:101600000895CF93DF93EC016883613011F120F0EE
:10161000623009F06CC048C01B821A8286E490E0F8
:101620009D838C838EE690E09F838E8384E490E09C
:101630009987888785E490E09B878A871D861C862A
:1016400087E490E09F878E87198A188A88E490E063
:1016500022C08FE690E09F838E8385E890E09B8395
:101660008A8384E890E09D838C8380E890E099876A
:10167000888781E890E09B878A8789E890E09D874A
:101680008C8788E890E09F878E878BE890E0998B25
:10169000888B8AE890E09B8B8A8B1D8A1C8A1F8A24
:1016A0001E8A82E0898323C01B821A8282EB90E02B
:1016B0009D838C8380E790E09F838E8380EB90E016
:1016C0009987888781EB90E09B878A871D861C8697
:1016D00083EB90E09F878E87198A188A84EB90E0CD
:1016E0009B8B8A8B1D8A1C8A1F8A1E8A698360E0F5
:1016F000CE010E94E20AEA81FB81309709F0108254
:10170000EC81FD811082198E188E1B8E1A8E1D8E13
:101710001C8E1F8E1E8E19A218A2DF91CF910895E4
:1017200051E0411101C050E06530F0F4E62FF0E0E7
:10173000E85BFE4F408147FD17C0DC011696ED9136
:10174000FC911797808121E030E0042E01C0220F28
:101750000A94EAF720952823852F042E01C0880FCC
:101760000A94EAF7282B20830895623099F028F430
:10177000662341F06130C9F409C0633079F0643008
:10178000A1F410C0FC01518F408F0FC0FC01538F9A
:10179000428F0BC0FC01558F448F07C0FC01578F4F
:1017A000468F03C0FC0151A340A3452B11F440E038
:1017B00003C0222319F041E00C94900B0895DC0142
:1017C0001896ED91FC9119973081262F23703C7F5C
:1017D000232B20831A96ED91FC911B9780816C70CE
:1017E000660F877E682B6083089560E08DE093E04C
:1017F0000E94010B61E08BEE92E00E94010B62E01F
:1018000089EC92E00C94010BDB018F939F930E9473
:10181000520CBF91AF91A29F800D911DA39F900D7F
:10182000B29F900D11240895A1E21A2EAA1BBB1B92
:10183000FD010DC0AA1FBB1FEE1FFF1FA217B3079C
:10184000E407F50720F0A21BB30BE40BF50B661FB2
:10185000771F881F991F1A9469F760957095809576
:1018600090959B01AC01BD01CF010895052E97FB1A
:1018700016F4009407D057FD0DD00E94140C07FCFD
:1018800009D07EF490958095709561957F4F8F4F2C
:101890009F4F089550954095309521953F4F4F4F5C
:1018A0005F4F08950E94630CA59F900DB49F900D0B
:1018B000A49F800D911D11240895EE0FFF1F059028
:1018C000F491E02D0994A29FB001B39FC001A39FA2
:1018D00001D0B29F700D811D1124911D0895F894BF
:0218E000FFCF38
:1018E20000002F03200001000000010100000000A1
:1018F2009602920200000000C804AE077A047F0438
:10190200A504930400000000A004200526050000A1
:1019120000009B0414051A050102030405060701D1
:0E192200020003000405060700010203050091
:00000001FF
